{
	"contracts/2_variables_modificadores.sol": {
		"variables_modifiers": {
			"abi": [
				{
					"inputs": [],
					"name": "address1",
					"outputs": [
						{
							"internalType": "address",
							"name": "",
							"type": "address"
						}
					],
					"stateMutability": "view",
					"type": "function"
				},
				{
					"inputs": [],
					"name": "address2",
					"outputs": [
						{
							"internalType": "address",
							"name": "",
							"type": "address"
						}
					],
					"stateMutability": "view",
					"type": "function"
				},
				{
					"inputs": [],
					"name": "b",
					"outputs": [
						{
							"internalType": "uint8",
							"name": "",
							"type": "uint8"
						}
					],
					"stateMutability": "view",
					"type": "function"
				},
				{
					"inputs": [],
					"name": "boolean_true",
					"outputs": [
						{
							"internalType": "bool",
							"name": "",
							"type": "bool"
						}
					],
					"stateMutability": "view",
					"type": "function"
				},
				{
					"inputs": [],
					"name": "d",
					"outputs": [
						{
							"internalType": "int8",
							"name": "",
							"type": "int8"
						}
					],
					"stateMutability": "view",
					"type": "function"
				},
				{
					"inputs": [],
					"name": "hashing_keccak256",
					"outputs": [
						{
							"internalType": "bytes32",
							"name": "",
							"type": "bytes32"
						}
					],
					"stateMutability": "view",
					"type": "function"
				},
				{
					"inputs": [],
					"name": "hashing_ripemd160",
					"outputs": [
						{
							"internalType": "bytes20",
							"name": "",
							"type": "bytes20"
						}
					],
					"stateMutability": "view",
					"type": "function"
				},
				{
					"inputs": [],
					"name": "hashing_sha256",
					"outputs": [
						{
							"internalType": "bytes32",
							"name": "",
							"type": "bytes32"
						}
					],
					"stateMutability": "view",
					"type": "function"
				},
				{
					"inputs": [],
					"name": "str_public",
					"outputs": [
						{
							"internalType": "string",
							"name": "",
							"type": "string"
						}
					],
					"stateMutability": "view",
					"type": "function"
				},
				{
					"inputs": [],
					"name": "turnOff",
					"outputs": [],
					"stateMutability": "nonpayable",
					"type": "function"
				},
				{
					"inputs": [],
					"name": "turnOn",
					"outputs": [],
					"stateMutability": "nonpayable",
					"type": "function"
				}
			],
			"devdoc": {
				"kind": "dev",
				"methods": {},
				"version": 1
			},
			"evm": {
				"assembly": "    /* \"contracts/2_variables_modificadores.sol\":73:1498  contract variables_modifiers {\r... */\n  mstore(0x40, 0x80)\n    /* \"contracts/2_variables_modificadores.sol\":187:188  3 */\n  0x03\n    /* \"contracts/2_variables_modificadores.sol\":169:188  uint8 public  b = 3 */\n  0x01\n  exp(0x0100, 0x00)\n  dup2\n  sload\n  dup2\n  0xff\n  mul\n  not\n  and\n  swap1\n  dup4\n  0xff\n  and\n  mul\n  or\n  swap1\n  sstore\n  pop\n    /* \"contracts/2_variables_modificadores.sol\":268:271  -32 */\n  0xffffffffffffffffffffffffffffffffffffffffffffffffffffffffffffffe0\n    /* \"contracts/2_variables_modificadores.sol\":252:271  int8 public d = -32 */\n  0x03\n  exp(0x0100, 0x00)\n  dup2\n  sload\n  dup2\n  0xff\n  mul\n  not\n  and\n  swap1\n  dup4\n  0x00\n  signextend\n  0xff\n  and\n  mul\n  or\n  swap1\n  sstore\n  pop\n    /* \"contracts/2_variables_modificadores.sol\":286:288  65 */\n  0x41\n    /* \"contracts/2_variables_modificadores.sol\":278:288  int e = 65 */\n  0x04\n  sstore\n    /* \"contracts/2_variables_modificadores.sol\":339:383  string public str_public = \"Esto es publico\" */\n  mload(0x40)\n  dup1\n  0x40\n  add\n  0x40\n  mstore\n  dup1\n  0x0f\n  dup2\n  mstore\n  0x20\n  add\n  0x4573746f206573207075626c69636f0000000000000000000000000000000000\n  dup2\n  mstore\n  pop\n  0x06\n  swap1\n  dup1\n  mload\n  swap1\n  0x20\n  add\n  swap1\n  tag_1\n  swap3\n  swap2\n  swap1\n  tag_2\n  jump\t// in\ntag_1:\n  pop\n    /* \"contracts/2_variables_modificadores.sol\":390:436  string private str_private = \"Esto es privado\" */\n  mload(0x40)\n  dup1\n  0x40\n  add\n  0x40\n  mstore\n  dup1\n  0x0f\n  dup2\n  mstore\n  0x20\n  add\n  0x4573746f206573207072697661646f0000000000000000000000000000000000\n  dup2\n  mstore\n  pop\n  0x07\n  swap1\n  dup1\n  mload\n  swap1\n  0x20\n  add\n  swap1\n  tag_3\n  swap3\n  swap2\n  swap1\n  tag_2\n  jump\t// in\ntag_3:\n  pop\n    /* \"contracts/2_variables_modificadores.sol\":519:523  true */\n  0x01\n    /* \"contracts/2_variables_modificadores.sol\":492:523  bool public boolean_true = true */\n  0x08\n  exp(0x0100, 0x01)\n  dup2\n  sload\n  dup2\n  0xff\n  mul\n  not\n  and\n  swap1\n  dup4\n  iszero\n  iszero\n  mul\n  or\n  swap1\n  sstore\n  pop\n    /* \"contracts/2_variables_modificadores.sol\":559:564  false */\n  0x00\n    /* \"contracts/2_variables_modificadores.sol\":530:564  bool private boolean_false = false */\n  0x08\n  exp(0x0100, 0x02)\n  dup2\n  sload\n  dup2\n  0xff\n  mul\n  not\n  and\n  swap1\n  dup4\n  iszero\n  iszero\n  mul\n  or\n  swap1\n  sstore\n  pop\n    /* \"contracts/2_variables_modificadores.sol\":776:778  10 */\n  0x0a\n    /* \"contracts/2_variables_modificadores.sol\":781:791  msg.sender */\n  caller\n    /* \"contracts/2_variables_modificadores.sol\":746:792  abi.encodePacked(\"Hola\", uint(10), msg.sender) */\n  add(0x20, mload(0x40))\n  tag_4\n  swap3\n  swap2\n  swap1\n  tag_5\n  jump\t// in\ntag_4:\n  mload(0x40)\n  0x20\n  dup2\n  dup4\n  sub\n  sub\n  dup2\n  mstore\n  swap1\n  0x40\n  mstore\n    /* \"contracts/2_variables_modificadores.sol\":736:793  keccak256(abi.encodePacked(\"Hola\", uint(10), msg.sender)) */\n  dup1\n  mload\n  swap1\n  0x20\n  add\n  keccak256\n    /* \"contracts/2_variables_modificadores.sol\":701:793  bytes32 public hashing_keccak256 = keccak256(abi.encodePacked(\"Hola\", uint(10), msg.sender)) */\n  0x0b\n  sstore\n    /* \"contracts/2_variables_modificadores.sol\":832:871  sha256(abi.encodePacked(\"Hello world\")) */\n  0x02\n    /* \"contracts/2_variables_modificadores.sol\":839:870  abi.encodePacked(\"Hello world\") */\n  add(0x20, mload(0x40))\n  tag_6\n  swap1\n  tag_7\n  jump\t// in\ntag_6:\n  mload(0x40)\n  0x20\n  dup2\n  dup4\n  sub\n  sub\n  dup2\n  mstore\n  swap1\n  0x40\n  mstore\n    /* \"contracts/2_variables_modificadores.sol\":832:871  sha256(abi.encodePacked(\"Hello world\")) */\n  mload(0x40)\n  tag_8\n  swap2\n  swap1\n  tag_9\n  jump\t// in\ntag_8:\n  0x20\n  mload(0x40)\n  dup1\n  dup4\n  sub\n  dup2\n  dup6\n  gas\n  staticcall\n  iszero\n  dup1\n  iszero\n  tag_11\n  jumpi\n  returndatasize\n  0x00\n  dup1\n  returndatacopy\n  revert(0x00, returndatasize)\ntag_11:\n  pop\n  pop\n  pop\n  mload(0x40)\n  returndatasize\n  not(0x1f)\n  0x1f\n  dup3\n  add\n  and\n  dup3\n  add\n  dup1\n  0x40\n  mstore\n  pop\n  dup2\n  add\n  swap1\n  tag_12\n  swap2\n  swap1\n  tag_13\n  jump\t// in\ntag_12:\n    /* \"contracts/2_variables_modificadores.sol\":800:871  bytes32 public hashing_sha256 = sha256(abi.encodePacked(\"Hello world\")) */\n  0x0c\n  sstore\n    /* \"contracts/2_variables_modificadores.sol\":913:955  ripemd160(abi.encodePacked(\"Hello world\")) */\n  0x03\n    /* \"contracts/2_variables_modificadores.sol\":923:954  abi.encodePacked(\"Hello world\") */\n  add(0x20, mload(0x40))\n  tag_14\n  swap1\n  tag_7\n  jump\t// in\ntag_14:\n  mload(0x40)\n  0x20\n  dup2\n  dup4\n  sub\n  sub\n  dup2\n  mstore\n  swap1\n  0x40\n  mstore\n    /* \"contracts/2_variables_modificadores.sol\":913:955  ripemd160(abi.encodePacked(\"Hello world\")) */\n  mload(0x40)\n  tag_15\n  swap2\n  swap1\n  tag_9\n  jump\t// in\ntag_15:\n  0x20\n  mload(0x40)\n  dup1\n  dup4\n  sub\n  dup2\n  dup6\n  gas\n  staticcall\n  iszero\n  dup1\n  iszero\n  tag_17\n  jumpi\n  returndatasize\n  0x00\n  dup1\n  returndatacopy\n  revert(0x00, returndatasize)\ntag_17:\n  pop\n  pop\n  pop\n  shl(0x60, mload(mload(0x40)))\n    /* \"contracts/2_variables_modificadores.sol\":878:955  bytes20 public hashing_ripemd160 = ripemd160(abi.encodePacked(\"Hello world\")) */\n  0x0d\n  exp(0x0100, 0x00)\n  dup2\n  sload\n  dup2\n  0xffffffffffffffffffffffffffffffffffffffff\n  mul\n  not\n  and\n  swap1\n  dup4\n  0x60\n  shr\n  mul\n  or\n  swap1\n  sstore\n  pop\n    /* \"contracts/2_variables_modificadores.sol\":1041:1083  0x5B38Da6a701c568545dCfcB03FcB875f56beddC4 */\n  0x5b38da6a701c568545dcfcb03fcb875f56beddc4\n    /* \"contracts/2_variables_modificadores.sol\":1015:1083  address public address1 = 0x5B38Da6a701c568545dCfcB03FcB875f56beddC4 */\n  0x0f\n  exp(0x0100, 0x00)\n  dup2\n  sload\n  dup2\n  0xffffffffffffffffffffffffffffffffffffffff\n  mul\n  not\n  and\n  swap1\n  dup4\n  0xffffffffffffffffffffffffffffffffffffffff\n  and\n  mul\n  or\n  swap1\n  sstore\n  pop\n    /* \"contracts/2_variables_modificadores.sol\":1116:1126  msg.sender */\n  caller\n    /* \"contracts/2_variables_modificadores.sol\":1090:1126  address public address2 = msg.sender */\n  0x10\n  exp(0x0100, 0x00)\n  dup2\n  sload\n  dup2\n  0xffffffffffffffffffffffffffffffffffffffff\n  mul\n  not\n  and\n  swap1\n  dup4\n  0xffffffffffffffffffffffffffffffffffffffff\n  and\n  mul\n  or\n  swap1\n  sstore\n  pop\n    /* \"contracts/2_variables_modificadores.sol\":73:1498  contract variables_modifiers {\r... */\n  callvalue\n  dup1\n  iszero\n  tag_18\n  jumpi\n  0x00\n  dup1\n  revert\ntag_18:\n  pop\n  jump(tag_19)\ntag_2:\n  dup3\n  dup1\n  sload\n  tag_20\n  swap1\n  tag_21\n  jump\t// in\ntag_20:\n  swap1\n  0x00\n  mstore\n  keccak256(0x00, 0x20)\n  swap1\n  0x1f\n  add\n  0x20\n  swap1\n  div\n  dup2\n  add\n  swap3\n  dup3\n  tag_23\n  jumpi\n  0x00\n  dup6\n  sstore\n  jump(tag_22)\ntag_23:\n  dup3\n  0x1f\n  lt\n  tag_24\n  jumpi\n  dup1\n  mload\n  not(0xff)\n  and\n  dup4\n  dup1\n  add\n  or\n  dup6\n  sstore\n  jump(tag_22)\ntag_24:\n  dup3\n  dup1\n  add\n  0x01\n  add\n  dup6\n  sstore\n  dup3\n  iszero\n  tag_22\n  jumpi\n  swap2\n  dup3\n  add\ntag_25:\n  dup3\n  dup2\n  gt\n  iszero\n  tag_26\n  jumpi\n  dup3\n  mload\n  dup3\n  sstore\n  swap2\n  0x20\n  add\n  swap2\n  swap1\n  0x01\n  add\n  swap1\n  jump(tag_25)\ntag_26:\ntag_22:\n  pop\n  swap1\n  pop\n  tag_27\n  swap2\n  swap1\n  tag_28\n  jump\t// in\ntag_27:\n  pop\n  swap1\n  jump\t// out\ntag_28:\ntag_29:\n  dup1\n  dup3\n  gt\n  iszero\n  tag_30\n  jumpi\n  0x00\n  dup2\n  0x00\n  swap1\n  sstore\n  pop\n  0x01\n  add\n  jump(tag_29)\ntag_30:\n  pop\n  swap1\n  jump\t// out\n    /* \"#utility.yul\":7:150   */\ntag_32:\n    /* \"#utility.yul\":64:69   */\n  0x00\n    /* \"#utility.yul\":95:101   */\n  dup2\n    /* \"#utility.yul\":89:102   */\n  mload\n    /* \"#utility.yul\":80:102   */\n  swap1\n  pop\n    /* \"#utility.yul\":111:144   */\n  tag_34\n    /* \"#utility.yul\":138:143   */\n  dup2\n    /* \"#utility.yul\":111:144   */\n  tag_35\n  jump\t// in\ntag_34:\n    /* \"#utility.yul\":70:150   */\n  swap3\n  swap2\n  pop\n  pop\n  jump\t// out\n    /* \"#utility.yul\":156:440   */\ntag_13:\n    /* \"#utility.yul\":226:232   */\n  0x00\n    /* \"#utility.yul\":275:277   */\n  0x20\n    /* \"#utility.yul\":263:272   */\n  dup3\n    /* \"#utility.yul\":254:261   */\n  dup5\n    /* \"#utility.yul\":250:273   */\n  sub\n    /* \"#utility.yul\":246:278   */\n  slt\n    /* \"#utility.yul\":243:245   */\n  iszero\n  tag_37\n  jumpi\n    /* \"#utility.yul\":291:292   */\n  0x00\n    /* \"#utility.yul\":288:289   */\n  dup1\n    /* \"#utility.yul\":281:293   */\n  revert\n    /* \"#utility.yul\":243:245   */\ntag_37:\n    /* \"#utility.yul\":334:335   */\n  0x00\n    /* \"#utility.yul\":359:423   */\n  tag_38\n    /* \"#utility.yul\":415:422   */\n  dup5\n    /* \"#utility.yul\":406:412   */\n  dup3\n    /* \"#utility.yul\":395:404   */\n  dup6\n    /* \"#utility.yul\":391:413   */\n  add\n    /* \"#utility.yul\":359:423   */\n  tag_32\n  jump\t// in\ntag_38:\n    /* \"#utility.yul\":349:423   */\n  swap2\n  pop\n    /* \"#utility.yul\":305:433   */\n  pop\n    /* \"#utility.yul\":233:440   */\n  swap3\n  swap2\n  pop\n  pop\n  jump\t// out\n    /* \"#utility.yul\":446:603   */\ntag_39:\n    /* \"#utility.yul\":551:596   */\n  tag_41\n    /* \"#utility.yul\":571:595   */\n  tag_42\n    /* \"#utility.yul\":589:594   */\n  dup3\n    /* \"#utility.yul\":571:595   */\n  tag_43\n  jump\t// in\ntag_42:\n    /* \"#utility.yul\":551:596   */\n  tag_44\n  jump\t// in\ntag_41:\n    /* \"#utility.yul\":546:549   */\n  dup3\n    /* \"#utility.yul\":539:597   */\n  mstore\n    /* \"#utility.yul\":529:603   */\n  pop\n  pop\n  jump\t// out\n    /* \"#utility.yul\":609:982   */\ntag_45:\n    /* \"#utility.yul\":713:716   */\n  0x00\n    /* \"#utility.yul\":741:779   */\n  tag_47\n    /* \"#utility.yul\":773:778   */\n  dup3\n    /* \"#utility.yul\":741:779   */\n  tag_48\n  jump\t// in\ntag_47:\n    /* \"#utility.yul\":795:883   */\n  tag_49\n    /* \"#utility.yul\":876:882   */\n  dup2\n    /* \"#utility.yul\":871:874   */\n  dup6\n    /* \"#utility.yul\":795:883   */\n  tag_50\n  jump\t// in\ntag_49:\n    /* \"#utility.yul\":788:883   */\n  swap4\n  pop\n    /* \"#utility.yul\":892:944   */\n  tag_51\n    /* \"#utility.yul\":937:943   */\n  dup2\n    /* \"#utility.yul\":932:935   */\n  dup6\n    /* \"#utility.yul\":925:929   */\n  0x20\n    /* \"#utility.yul\":918:923   */\n  dup7\n    /* \"#utility.yul\":914:930   */\n  add\n    /* \"#utility.yul\":892:944   */\n  tag_52\n  jump\t// in\ntag_51:\n    /* \"#utility.yul\":969:975   */\n  dup1\n    /* \"#utility.yul\":964:967   */\n  dup5\n    /* \"#utility.yul\":960:976   */\n  add\n    /* \"#utility.yul\":953:976   */\n  swap2\n  pop\n    /* \"#utility.yul\":717:982   */\n  pop\n  swap3\n  swap2\n  pop\n  pop\n  jump\t// out\n    /* \"#utility.yul\":988:1388   */\ntag_53:\n    /* \"#utility.yul\":1148:1151   */\n  0x00\n    /* \"#utility.yul\":1169:1253   */\n  tag_55\n    /* \"#utility.yul\":1251:1252   */\n  0x04\n    /* \"#utility.yul\":1246:1249   */\n  dup4\n    /* \"#utility.yul\":1169:1253   */\n  tag_56\n  jump\t// in\ntag_55:\n    /* \"#utility.yul\":1162:1253   */\n  swap2\n  pop\n    /* \"#utility.yul\":1262:1355   */\n  tag_57\n    /* \"#utility.yul\":1351:1354   */\n  dup3\n    /* \"#utility.yul\":1262:1355   */\n  tag_58\n  jump\t// in\ntag_57:\n    /* \"#utility.yul\":1380:1381   */\n  0x04\n    /* \"#utility.yul\":1375:1378   */\n  dup3\n    /* \"#utility.yul\":1371:1382   */\n  add\n    /* \"#utility.yul\":1364:1382   */\n  swap1\n  pop\n    /* \"#utility.yul\":1152:1388   */\n  swap2\n  swap1\n  pop\n  jump\t// out\n    /* \"#utility.yul\":1394:1796   */\ntag_59:\n    /* \"#utility.yul\":1554:1557   */\n  0x00\n    /* \"#utility.yul\":1575:1660   */\n  tag_61\n    /* \"#utility.yul\":1657:1659   */\n  0x0b\n    /* \"#utility.yul\":1652:1655   */\n  dup4\n    /* \"#utility.yul\":1575:1660   */\n  tag_56\n  jump\t// in\ntag_61:\n    /* \"#utility.yul\":1568:1660   */\n  swap2\n  pop\n    /* \"#utility.yul\":1669:1762   */\n  tag_62\n    /* \"#utility.yul\":1758:1761   */\n  dup3\n    /* \"#utility.yul\":1669:1762   */\n  tag_63\n  jump\t// in\ntag_62:\n    /* \"#utility.yul\":1787:1789   */\n  0x0b\n    /* \"#utility.yul\":1782:1785   */\n  dup3\n    /* \"#utility.yul\":1778:1790   */\n  add\n    /* \"#utility.yul\":1771:1790   */\n  swap1\n  pop\n    /* \"#utility.yul\":1558:1796   */\n  swap2\n  swap1\n  pop\n  jump\t// out\n    /* \"#utility.yul\":1802:1959   */\ntag_64:\n    /* \"#utility.yul\":1907:1952   */\n  tag_66\n    /* \"#utility.yul\":1927:1951   */\n  tag_67\n    /* \"#utility.yul\":1945:1950   */\n  dup3\n    /* \"#utility.yul\":1927:1951   */\n  tag_68\n  jump\t// in\ntag_67:\n    /* \"#utility.yul\":1907:1952   */\n  tag_69\n  jump\t// in\ntag_66:\n    /* \"#utility.yul\":1902:1905   */\n  dup3\n    /* \"#utility.yul\":1895:1953   */\n  mstore\n    /* \"#utility.yul\":1885:1959   */\n  pop\n  pop\n  jump\t// out\n    /* \"#utility.yul\":1965:2236   */\ntag_9:\n    /* \"#utility.yul\":2095:2098   */\n  0x00\n    /* \"#utility.yul\":2117:2210   */\n  tag_71\n    /* \"#utility.yul\":2206:2209   */\n  dup3\n    /* \"#utility.yul\":2197:2203   */\n  dup5\n    /* \"#utility.yul\":2117:2210   */\n  tag_45\n  jump\t// in\ntag_71:\n    /* \"#utility.yul\":2110:2210   */\n  swap2\n  pop\n    /* \"#utility.yul\":2227:2230   */\n  dup2\n    /* \"#utility.yul\":2220:2230   */\n  swap1\n  pop\n    /* \"#utility.yul\":2099:2236   */\n  swap3\n  swap2\n  pop\n  pop\n  jump\t// out\n    /* \"#utility.yul\":2242:2905   */\ntag_5:\n    /* \"#utility.yul\":2483:2486   */\n  0x00\n    /* \"#utility.yul\":2505:2653   */\n  tag_73\n    /* \"#utility.yul\":2649:2652   */\n  dup3\n    /* \"#utility.yul\":2505:2653   */\n  tag_53\n  jump\t// in\ntag_73:\n    /* \"#utility.yul\":2498:2653   */\n  swap2\n  pop\n    /* \"#utility.yul\":2663:2738   */\n  tag_74\n    /* \"#utility.yul\":2734:2737   */\n  dup3\n    /* \"#utility.yul\":2725:2731   */\n  dup6\n    /* \"#utility.yul\":2663:2738   */\n  tag_64\n  jump\t// in\ntag_74:\n    /* \"#utility.yul\":2763:2765   */\n  0x20\n    /* \"#utility.yul\":2758:2761   */\n  dup3\n    /* \"#utility.yul\":2754:2766   */\n  add\n    /* \"#utility.yul\":2747:2766   */\n  swap2\n  pop\n    /* \"#utility.yul\":2776:2851   */\n  tag_75\n    /* \"#utility.yul\":2847:2850   */\n  dup3\n    /* \"#utility.yul\":2838:2844   */\n  dup5\n    /* \"#utility.yul\":2776:2851   */\n  tag_39\n  jump\t// in\ntag_75:\n    /* \"#utility.yul\":2876:2878   */\n  0x14\n    /* \"#utility.yul\":2871:2874   */\n  dup3\n    /* \"#utility.yul\":2867:2879   */\n  add\n    /* \"#utility.yul\":2860:2879   */\n  swap2\n  pop\n    /* \"#utility.yul\":2896:2899   */\n  dup2\n    /* \"#utility.yul\":2889:2899   */\n  swap1\n  pop\n    /* \"#utility.yul\":2487:2905   */\n  swap4\n  swap3\n  pop\n  pop\n  pop\n  jump\t// out\n    /* \"#utility.yul\":2911:3292   */\ntag_7:\n    /* \"#utility.yul\":3096:3099   */\n  0x00\n    /* \"#utility.yul\":3118:3266   */\n  tag_77\n    /* \"#utility.yul\":3262:3265   */\n  dup3\n    /* \"#utility.yul\":3118:3266   */\n  tag_59\n  jump\t// in\ntag_77:\n    /* \"#utility.yul\":3111:3266   */\n  swap2\n  pop\n    /* \"#utility.yul\":3283:3286   */\n  dup2\n    /* \"#utility.yul\":3276:3286   */\n  swap1\n  pop\n    /* \"#utility.yul\":3100:3292   */\n  swap2\n  swap1\n  pop\n  jump\t// out\n    /* \"#utility.yul\":3298:3396   */\ntag_48:\n    /* \"#utility.yul\":3349:3355   */\n  0x00\n    /* \"#utility.yul\":3383:3388   */\n  dup2\n    /* \"#utility.yul\":3377:3389   */\n  mload\n    /* \"#utility.yul\":3367:3389   */\n  swap1\n  pop\n    /* \"#utility.yul\":3356:3396   */\n  swap2\n  swap1\n  pop\n  jump\t// out\n    /* \"#utility.yul\":3402:3549   */\ntag_50:\n    /* \"#utility.yul\":3503:3514   */\n  0x00\n    /* \"#utility.yul\":3540:3543   */\n  dup2\n    /* \"#utility.yul\":3525:3543   */\n  swap1\n  pop\n    /* \"#utility.yul\":3515:3549   */\n  swap3\n  swap2\n  pop\n  pop\n  jump\t// out\n    /* \"#utility.yul\":3555:3703   */\ntag_56:\n    /* \"#utility.yul\":3657:3668   */\n  0x00\n    /* \"#utility.yul\":3694:3697   */\n  dup2\n    /* \"#utility.yul\":3679:3697   */\n  swap1\n  pop\n    /* \"#utility.yul\":3669:3703   */\n  swap3\n  swap2\n  pop\n  pop\n  jump\t// out\n    /* \"#utility.yul\":3709:3805   */\ntag_43:\n    /* \"#utility.yul\":3746:3753   */\n  0x00\n    /* \"#utility.yul\":3775:3799   */\n  tag_82\n    /* \"#utility.yul\":3793:3798   */\n  dup3\n    /* \"#utility.yul\":3775:3799   */\n  tag_83\n  jump\t// in\ntag_82:\n    /* \"#utility.yul\":3764:3799   */\n  swap1\n  pop\n    /* \"#utility.yul\":3754:3805   */\n  swap2\n  swap1\n  pop\n  jump\t// out\n    /* \"#utility.yul\":3811:3888   */\ntag_84:\n    /* \"#utility.yul\":3848:3855   */\n  0x00\n    /* \"#utility.yul\":3877:3882   */\n  dup2\n    /* \"#utility.yul\":3866:3882   */\n  swap1\n  pop\n    /* \"#utility.yul\":3856:3888   */\n  swap2\n  swap1\n  pop\n  jump\t// out\n    /* \"#utility.yul\":3894:4020   */\ntag_83:\n    /* \"#utility.yul\":3931:3938   */\n  0x00\n    /* \"#utility.yul\":3971:4013   */\n  0xffffffffffffffffffffffffffffffffffffffff\n    /* \"#utility.yul\":3964:3969   */\n  dup3\n    /* \"#utility.yul\":3960:4014   */\n  and\n    /* \"#utility.yul\":3949:4014   */\n  swap1\n  pop\n    /* \"#utility.yul\":3939:4020   */\n  swap2\n  swap1\n  pop\n  jump\t// out\n    /* \"#utility.yul\":4026:4103   */\ntag_68:\n    /* \"#utility.yul\":4063:4070   */\n  0x00\n    /* \"#utility.yul\":4092:4097   */\n  dup2\n    /* \"#utility.yul\":4081:4097   */\n  swap1\n  pop\n    /* \"#utility.yul\":4071:4103   */\n  swap2\n  swap1\n  pop\n  jump\t// out\n    /* \"#utility.yul\":4109:4416   */\ntag_52:\n    /* \"#utility.yul\":4177:4178   */\n  0x00\n    /* \"#utility.yul\":4187:4300   */\ntag_89:\n    /* \"#utility.yul\":4201:4207   */\n  dup4\n    /* \"#utility.yul\":4198:4199   */\n  dup2\n    /* \"#utility.yul\":4195:4208   */\n  lt\n    /* \"#utility.yul\":4187:4300   */\n  iszero\n  tag_91\n  jumpi\n    /* \"#utility.yul\":4286:4287   */\n  dup1\n    /* \"#utility.yul\":4281:4284   */\n  dup3\n    /* \"#utility.yul\":4277:4288   */\n  add\n    /* \"#utility.yul\":4271:4289   */\n  mload\n    /* \"#utility.yul\":4267:4268   */\n  dup2\n    /* \"#utility.yul\":4262:4265   */\n  dup5\n    /* \"#utility.yul\":4258:4269   */\n  add\n    /* \"#utility.yul\":4251:4290   */\n  mstore\n    /* \"#utility.yul\":4223:4225   */\n  0x20\n    /* \"#utility.yul\":4220:4221   */\n  dup2\n    /* \"#utility.yul\":4216:4226   */\n  add\n    /* \"#utility.yul\":4211:4226   */\n  swap1\n  pop\n    /* \"#utility.yul\":4187:4300   */\n  jump(tag_89)\ntag_91:\n    /* \"#utility.yul\":4318:4324   */\n  dup4\n    /* \"#utility.yul\":4315:4316   */\n  dup2\n    /* \"#utility.yul\":4312:4325   */\n  gt\n    /* \"#utility.yul\":4309:4311   */\n  iszero\n  tag_92\n  jumpi\n    /* \"#utility.yul\":4398:4399   */\n  0x00\n    /* \"#utility.yul\":4389:4395   */\n  dup5\n    /* \"#utility.yul\":4384:4387   */\n  dup5\n    /* \"#utility.yul\":4380:4396   */\n  add\n    /* \"#utility.yul\":4373:4400   */\n  mstore\n    /* \"#utility.yul\":4309:4311   */\ntag_92:\n    /* \"#utility.yul\":4158:4416   */\n  pop\n  pop\n  pop\n  pop\n  jump\t// out\n    /* \"#utility.yul\":4422:4742   */\ntag_21:\n    /* \"#utility.yul\":4466:4472   */\n  0x00\n    /* \"#utility.yul\":4503:4504   */\n  0x02\n    /* \"#utility.yul\":4497:4501   */\n  dup3\n    /* \"#utility.yul\":4493:4505   */\n  div\n    /* \"#utility.yul\":4483:4505   */\n  swap1\n  pop\n    /* \"#utility.yul\":4550:4551   */\n  0x01\n    /* \"#utility.yul\":4544:4548   */\n  dup3\n    /* \"#utility.yul\":4540:4552   */\n  and\n    /* \"#utility.yul\":4571:4589   */\n  dup1\n    /* \"#utility.yul\":4561:4563   */\n  tag_94\n  jumpi\n    /* \"#utility.yul\":4627:4631   */\n  0x7f\n    /* \"#utility.yul\":4619:4625   */\n  dup3\n    /* \"#utility.yul\":4615:4632   */\n  and\n    /* \"#utility.yul\":4605:4632   */\n  swap2\n  pop\n    /* \"#utility.yul\":4561:4563   */\ntag_94:\n    /* \"#utility.yul\":4689:4691   */\n  0x20\n    /* \"#utility.yul\":4681:4687   */\n  dup3\n    /* \"#utility.yul\":4678:4692   */\n  lt\n    /* \"#utility.yul\":4658:4676   */\n  dup2\n    /* \"#utility.yul\":4655:4693   */\n  eq\n    /* \"#utility.yul\":4652:4654   */\n  iszero\n  tag_95\n  jumpi\n    /* \"#utility.yul\":4708:4726   */\n  tag_96\n  tag_97\n  jump\t// in\ntag_96:\n    /* \"#utility.yul\":4652:4654   */\ntag_95:\n    /* \"#utility.yul\":4473:4742   */\n  pop\n  swap2\n  swap1\n  pop\n  jump\t// out\n    /* \"#utility.yul\":4748:4848   */\ntag_44:\n    /* \"#utility.yul\":4787:4794   */\n  0x00\n    /* \"#utility.yul\":4816:4842   */\n  tag_99\n    /* \"#utility.yul\":4836:4841   */\n  dup3\n    /* \"#utility.yul\":4816:4842   */\n  tag_100\n  jump\t// in\ntag_99:\n    /* \"#utility.yul\":4805:4842   */\n  swap1\n  pop\n    /* \"#utility.yul\":4795:4848   */\n  swap2\n  swap1\n  pop\n  jump\t// out\n    /* \"#utility.yul\":4854:4948   */\ntag_100:\n    /* \"#utility.yul\":4893:4900   */\n  0x00\n    /* \"#utility.yul\":4922:4942   */\n  tag_102\n    /* \"#utility.yul\":4936:4941   */\n  dup3\n    /* \"#utility.yul\":4922:4942   */\n  tag_103\n  jump\t// in\ntag_102:\n    /* \"#utility.yul\":4911:4942   */\n  swap1\n  pop\n    /* \"#utility.yul\":4901:4948   */\n  swap2\n  swap1\n  pop\n  jump\t// out\n    /* \"#utility.yul\":4954:5033   */\ntag_69:\n    /* \"#utility.yul\":4993:5000   */\n  0x00\n    /* \"#utility.yul\":5022:5027   */\n  dup2\n    /* \"#utility.yul\":5011:5027   */\n  swap1\n  pop\n    /* \"#utility.yul\":5001:5033   */\n  swap2\n  swap1\n  pop\n  jump\t// out\n    /* \"#utility.yul\":5039:5219   */\ntag_97:\n    /* \"#utility.yul\":5087:5164   */\n  0x4e487b7100000000000000000000000000000000000000000000000000000000\n    /* \"#utility.yul\":5084:5085   */\n  0x00\n    /* \"#utility.yul\":5077:5165   */\n  mstore\n    /* \"#utility.yul\":5184:5188   */\n  0x22\n    /* \"#utility.yul\":5181:5182   */\n  0x04\n    /* \"#utility.yul\":5174:5189   */\n  mstore\n    /* \"#utility.yul\":5208:5212   */\n  0x24\n    /* \"#utility.yul\":5205:5206   */\n  0x00\n    /* \"#utility.yul\":5198:5213   */\n  revert\n    /* \"#utility.yul\":5225:5319   */\ntag_103:\n    /* \"#utility.yul\":5258:5266   */\n  0x00\n    /* \"#utility.yul\":5306:5311   */\n  dup2\n    /* \"#utility.yul\":5302:5304   */\n  0x60\n    /* \"#utility.yul\":5298:5312   */\n  shl\n    /* \"#utility.yul\":5277:5312   */\n  swap1\n  pop\n    /* \"#utility.yul\":5267:5319   */\n  swap2\n  swap1\n  pop\n  jump\t// out\n    /* \"#utility.yul\":5325:5479   */\ntag_58:\n    /* \"#utility.yul\":5465:5471   */\n  0x486f6c6100000000000000000000000000000000000000000000000000000000\n    /* \"#utility.yul\":5461:5462   */\n  0x00\n    /* \"#utility.yul\":5453:5459   */\n  dup3\n    /* \"#utility.yul\":5449:5463   */\n  add\n    /* \"#utility.yul\":5442:5472   */\n  mstore\n    /* \"#utility.yul\":5431:5479   */\n  pop\n  jump\t// out\n    /* \"#utility.yul\":5485:5646   */\ntag_63:\n    /* \"#utility.yul\":5625:5638   */\n  0x48656c6c6f20776f726c64000000000000000000000000000000000000000000\n    /* \"#utility.yul\":5621:5622   */\n  0x00\n    /* \"#utility.yul\":5613:5619   */\n  dup3\n    /* \"#utility.yul\":5609:5623   */\n  add\n    /* \"#utility.yul\":5602:5639   */\n  mstore\n    /* \"#utility.yul\":5591:5646   */\n  pop\n  jump\t// out\n    /* \"#utility.yul\":5652:5774   */\ntag_35:\n    /* \"#utility.yul\":5725:5749   */\n  tag_110\n    /* \"#utility.yul\":5743:5748   */\n  dup2\n    /* \"#utility.yul\":5725:5749   */\n  tag_84\n  jump\t// in\ntag_110:\n    /* \"#utility.yul\":5718:5723   */\n  dup2\n    /* \"#utility.yul\":5715:5750   */\n  eq\n    /* \"#utility.yul\":5705:5707   */\n  tag_111\n  jumpi\n    /* \"#utility.yul\":5764:5765   */\n  0x00\n    /* \"#utility.yul\":5761:5762   */\n  dup1\n    /* \"#utility.yul\":5754:5766   */\n  revert\n    /* \"#utility.yul\":5705:5707   */\ntag_111:\n    /* \"#utility.yul\":5695:5774   */\n  pop\n  jump\t// out\n    /* \"contracts/2_variables_modificadores.sol\":73:1498  contract variables_modifiers {\r... */\ntag_19:\n  dataSize(sub_0)\n  dup1\n  dataOffset(sub_0)\n  0x00\n  codecopy\n  0x00\n  return\nstop\n\nsub_0: assembly {\n        /* \"contracts/2_variables_modificadores.sol\":73:1498  contract variables_modifiers {\r... */\n      mstore(0x40, 0x80)\n      callvalue\n      dup1\n      iszero\n      tag_1\n      jumpi\n      0x00\n      dup1\n      revert\n    tag_1:\n      pop\n      jumpi(tag_2, lt(calldatasize, 0x04))\n      shr(0xe0, calldataload(0x00))\n      dup1\n      0x8a054ac2\n      gt\n      tag_14\n      jumpi\n      dup1\n      0x8a054ac2\n      eq\n      tag_8\n      jumpi\n      dup1\n      0x9eea4a3a\n      eq\n      tag_9\n      jumpi\n      dup1\n      0xaf10c810\n      eq\n      tag_10\n      jumpi\n      dup1\n      0xb83d07b7\n      eq\n      tag_11\n      jumpi\n      dup1\n      0xba33ed7d\n      eq\n      tag_12\n      jumpi\n      dup1\n      0xc7109d04\n      eq\n      tag_13\n      jumpi\n      jump(tag_2)\n    tag_14:\n      dup1\n      0x2b73648d\n      eq\n      tag_3\n      jumpi\n      dup1\n      0x312eef29\n      eq\n      tag_4\n      jumpi\n      dup1\n      0x3a36399e\n      eq\n      tag_5\n      jumpi\n      dup1\n      0x4df7e3d0\n      eq\n      tag_6\n      jumpi\n      dup1\n      0x7a68ef7f\n      eq\n      tag_7\n      jumpi\n    tag_2:\n      0x00\n      dup1\n      revert\n        /* \"contracts/2_variables_modificadores.sol\":701:793  bytes32 public hashing_keccak256 = keccak256(abi.encodePacked(\"Hola\", uint(10), msg.sender)) */\n    tag_3:\n      tag_15\n      tag_16\n      jump\t// in\n    tag_15:\n      mload(0x40)\n      tag_17\n      swap2\n      swap1\n      tag_18\n      jump\t// in\n    tag_17:\n      mload(0x40)\n      dup1\n      swap2\n      sub\n      swap1\n      return\n        /* \"contracts/2_variables_modificadores.sol\":492:523  bool public boolean_true = true */\n    tag_4:\n      tag_19\n      tag_20\n      jump\t// in\n    tag_19:\n      mload(0x40)\n      tag_21\n      swap2\n      swap1\n      tag_22\n      jump\t// in\n    tag_21:\n      mload(0x40)\n      dup1\n      swap2\n      sub\n      swap1\n      return\n        /* \"contracts/2_variables_modificadores.sol\":1015:1083  address public address1 = 0x5B38Da6a701c568545dCfcB03FcB875f56beddC4 */\n    tag_5:\n      tag_23\n      tag_24\n      jump\t// in\n    tag_23:\n      mload(0x40)\n      tag_25\n      swap2\n      swap1\n      tag_26\n      jump\t// in\n    tag_25:\n      mload(0x40)\n      dup1\n      swap2\n      sub\n      swap1\n      return\n        /* \"contracts/2_variables_modificadores.sol\":169:188  uint8 public  b = 3 */\n    tag_6:\n      tag_27\n      tag_28\n      jump\t// in\n    tag_27:\n      mload(0x40)\n      tag_29\n      swap2\n      swap1\n      tag_30\n      jump\t// in\n    tag_29:\n      mload(0x40)\n      dup1\n      swap2\n      sub\n      swap1\n      return\n        /* \"contracts/2_variables_modificadores.sol\":878:955  bytes20 public hashing_ripemd160 = ripemd160(abi.encodePacked(\"Hello world\")) */\n    tag_7:\n      tag_31\n      tag_32\n      jump\t// in\n    tag_31:\n      mload(0x40)\n      tag_33\n      swap2\n      swap1\n      tag_34\n      jump\t// in\n    tag_33:\n      mload(0x40)\n      dup1\n      swap2\n      sub\n      swap1\n      return\n        /* \"contracts/2_variables_modificadores.sol\":252:271  int8 public d = -32 */\n    tag_8:\n      tag_35\n      tag_36\n      jump\t// in\n    tag_35:\n      mload(0x40)\n      tag_37\n      swap2\n      swap1\n      tag_38\n      jump\t// in\n    tag_37:\n      mload(0x40)\n      dup1\n      swap2\n      sub\n      swap1\n      return\n        /* \"contracts/2_variables_modificadores.sol\":1090:1126  address public address2 = msg.sender */\n    tag_9:\n      tag_39\n      tag_40\n      jump\t// in\n    tag_39:\n      mload(0x40)\n      tag_41\n      swap2\n      swap1\n      tag_26\n      jump\t// in\n    tag_41:\n      mload(0x40)\n      dup1\n      swap2\n      sub\n      swap1\n      return\n        /* \"contracts/2_variables_modificadores.sol\":1344:1408  function turnOff() public {\r... */\n    tag_10:\n      tag_42\n      tag_43\n      jump\t// in\n    tag_42:\n      stop\n        /* \"contracts/2_variables_modificadores.sol\":339:383  string public str_public = \"Esto es publico\" */\n    tag_11:\n      tag_44\n      tag_45\n      jump\t// in\n    tag_44:\n      mload(0x40)\n      tag_46\n      swap2\n      swap1\n      tag_47\n      jump\t// in\n    tag_46:\n      mload(0x40)\n      dup1\n      swap2\n      sub\n      swap1\n      return\n        /* \"contracts/2_variables_modificadores.sol\":1270:1332  function turnOn() public {\r... */\n    tag_12:\n      tag_48\n      tag_49\n      jump\t// in\n    tag_48:\n      stop\n        /* \"contracts/2_variables_modificadores.sol\":800:871  bytes32 public hashing_sha256 = sha256(abi.encodePacked(\"Hello world\")) */\n    tag_13:\n      tag_50\n      tag_51\n      jump\t// in\n    tag_50:\n      mload(0x40)\n      tag_52\n      swap2\n      swap1\n      tag_18\n      jump\t// in\n    tag_52:\n      mload(0x40)\n      dup1\n      swap2\n      sub\n      swap1\n      return\n        /* \"contracts/2_variables_modificadores.sol\":701:793  bytes32 public hashing_keccak256 = keccak256(abi.encodePacked(\"Hola\", uint(10), msg.sender)) */\n    tag_16:\n      sload(0x0b)\n      dup2\n      jump\t// out\n        /* \"contracts/2_variables_modificadores.sol\":492:523  bool public boolean_true = true */\n    tag_20:\n      0x08\n      0x01\n      swap1\n      sload\n      swap1\n      0x0100\n      exp\n      swap1\n      div\n      0xff\n      and\n      dup2\n      jump\t// out\n        /* \"contracts/2_variables_modificadores.sol\":1015:1083  address public address1 = 0x5B38Da6a701c568545dCfcB03FcB875f56beddC4 */\n    tag_24:\n      0x0f\n      0x00\n      swap1\n      sload\n      swap1\n      0x0100\n      exp\n      swap1\n      div\n      0xffffffffffffffffffffffffffffffffffffffff\n      and\n      dup2\n      jump\t// out\n        /* \"contracts/2_variables_modificadores.sol\":169:188  uint8 public  b = 3 */\n    tag_28:\n      0x01\n      0x00\n      swap1\n      sload\n      swap1\n      0x0100\n      exp\n      swap1\n      div\n      0xff\n      and\n      dup2\n      jump\t// out\n        /* \"contracts/2_variables_modificadores.sol\":878:955  bytes20 public hashing_ripemd160 = ripemd160(abi.encodePacked(\"Hello world\")) */\n    tag_32:\n      0x0d\n      0x00\n      swap1\n      sload\n      swap1\n      0x0100\n      exp\n      swap1\n      div\n      0x60\n      shl\n      dup2\n      jump\t// out\n        /* \"contracts/2_variables_modificadores.sol\":252:271  int8 public d = -32 */\n    tag_36:\n      0x03\n      0x00\n      swap1\n      sload\n      swap1\n      0x0100\n      exp\n      swap1\n      div\n      0x00\n      signextend\n      dup2\n      jump\t// out\n        /* \"contracts/2_variables_modificadores.sol\":1090:1126  address public address2 = msg.sender */\n    tag_40:\n      0x10\n      0x00\n      swap1\n      sload\n      swap1\n      0x0100\n      exp\n      swap1\n      div\n      0xffffffffffffffffffffffffffffffffffffffff\n      and\n      dup2\n      jump\t// out\n        /* \"contracts/2_variables_modificadores.sol\":1344:1408  function turnOff() public {\r... */\n    tag_43:\n        /* \"contracts/2_variables_modificadores.sol\":1389:1400  options.OFF */\n      0x01\n        /* \"contracts/2_variables_modificadores.sol\":1381:1386  state */\n      0x10\n      0x14\n        /* \"contracts/2_variables_modificadores.sol\":1381:1400  state = options.OFF */\n      0x0100\n      exp\n      dup2\n      sload\n      dup2\n      0xff\n      mul\n      not\n      and\n      swap1\n      dup4\n      0x01\n      dup2\n      gt\n      iszero\n      tag_54\n      jumpi\n      mstore(0x00, 0x4e487b7100000000000000000000000000000000000000000000000000000000)\n      mstore(0x04, 0x21)\n      revert(0x00, 0x24)\n    tag_54:\n      mul\n      or\n      swap1\n      sstore\n      pop\n        /* \"contracts/2_variables_modificadores.sol\":1344:1408  function turnOff() public {\r... */\n      jump\t// out\n        /* \"contracts/2_variables_modificadores.sol\":339:383  string public str_public = \"Esto es publico\" */\n    tag_45:\n      0x06\n      dup1\n      sload\n      tag_55\n      swap1\n      tag_56\n      jump\t// in\n    tag_55:\n      dup1\n      0x1f\n      add\n      0x20\n      dup1\n      swap2\n      div\n      mul\n      0x20\n      add\n      mload(0x40)\n      swap1\n      dup2\n      add\n      0x40\n      mstore\n      dup1\n      swap3\n      swap2\n      swap1\n      dup2\n      dup2\n      mstore\n      0x20\n      add\n      dup3\n      dup1\n      sload\n      tag_57\n      swap1\n      tag_56\n      jump\t// in\n    tag_57:\n      dup1\n      iszero\n      tag_58\n      jumpi\n      dup1\n      0x1f\n      lt\n      tag_59\n      jumpi\n      0x0100\n      dup1\n      dup4\n      sload\n      div\n      mul\n      dup4\n      mstore\n      swap2\n      0x20\n      add\n      swap2\n      jump(tag_58)\n    tag_59:\n      dup3\n      add\n      swap2\n      swap1\n      0x00\n      mstore\n      keccak256(0x00, 0x20)\n      swap1\n    tag_60:\n      dup2\n      sload\n      dup2\n      mstore\n      swap1\n      0x01\n      add\n      swap1\n      0x20\n      add\n      dup1\n      dup4\n      gt\n      tag_60\n      jumpi\n      dup3\n      swap1\n      sub\n      0x1f\n      and\n      dup3\n      add\n      swap2\n    tag_58:\n      pop\n      pop\n      pop\n      pop\n      pop\n      dup2\n      jump\t// out\n        /* \"contracts/2_variables_modificadores.sol\":1270:1332  function turnOn() public {\r... */\n    tag_49:\n        /* \"contracts/2_variables_modificadores.sol\":1314:1324  options.ON */\n      0x00\n        /* \"contracts/2_variables_modificadores.sol\":1306:1311  state */\n      0x10\n      0x14\n        /* \"contracts/2_variables_modificadores.sol\":1306:1324  state = options.ON */\n      0x0100\n      exp\n      dup2\n      sload\n      dup2\n      0xff\n      mul\n      not\n      and\n      swap1\n      dup4\n      0x01\n      dup2\n      gt\n      iszero\n      tag_62\n      jumpi\n      mstore(0x00, 0x4e487b7100000000000000000000000000000000000000000000000000000000)\n      mstore(0x04, 0x21)\n      revert(0x00, 0x24)\n    tag_62:\n      mul\n      or\n      swap1\n      sstore\n      pop\n        /* \"contracts/2_variables_modificadores.sol\":1270:1332  function turnOn() public {\r... */\n      jump\t// out\n        /* \"contracts/2_variables_modificadores.sol\":800:871  bytes32 public hashing_sha256 = sha256(abi.encodePacked(\"Hello world\")) */\n    tag_51:\n      sload(0x0c)\n      dup2\n      jump\t// out\n        /* \"#utility.yul\":7:125   */\n    tag_64:\n        /* \"#utility.yul\":94:118   */\n      tag_66\n        /* \"#utility.yul\":112:117   */\n      dup2\n        /* \"#utility.yul\":94:118   */\n      tag_67\n      jump\t// in\n    tag_66:\n        /* \"#utility.yul\":89:92   */\n      dup3\n        /* \"#utility.yul\":82:119   */\n      mstore\n        /* \"#utility.yul\":72:125   */\n      pop\n      pop\n      jump\t// out\n        /* \"#utility.yul\":131:240   */\n    tag_68:\n        /* \"#utility.yul\":212:233   */\n      tag_70\n        /* \"#utility.yul\":227:232   */\n      dup2\n        /* \"#utility.yul\":212:233   */\n      tag_71\n      jump\t// in\n    tag_70:\n        /* \"#utility.yul\":207:210   */\n      dup3\n        /* \"#utility.yul\":200:234   */\n      mstore\n        /* \"#utility.yul\":190:240   */\n      pop\n      pop\n      jump\t// out\n        /* \"#utility.yul\":246:364   */\n    tag_72:\n        /* \"#utility.yul\":333:357   */\n      tag_74\n        /* \"#utility.yul\":351:356   */\n      dup2\n        /* \"#utility.yul\":333:357   */\n      tag_75\n      jump\t// in\n    tag_74:\n        /* \"#utility.yul\":328:331   */\n      dup3\n        /* \"#utility.yul\":321:358   */\n      mstore\n        /* \"#utility.yul\":311:364   */\n      pop\n      pop\n      jump\t// out\n        /* \"#utility.yul\":370:488   */\n    tag_76:\n        /* \"#utility.yul\":457:481   */\n      tag_78\n        /* \"#utility.yul\":475:480   */\n      dup2\n        /* \"#utility.yul\":457:481   */\n      tag_79\n      jump\t// in\n    tag_78:\n        /* \"#utility.yul\":452:455   */\n      dup3\n        /* \"#utility.yul\":445:482   */\n      mstore\n        /* \"#utility.yul\":435:488   */\n      pop\n      pop\n      jump\t// out\n        /* \"#utility.yul\":494:603   */\n    tag_80:\n        /* \"#utility.yul\":575:596   */\n      tag_82\n        /* \"#utility.yul\":590:595   */\n      dup2\n        /* \"#utility.yul\":575:596   */\n      tag_83\n      jump\t// in\n    tag_82:\n        /* \"#utility.yul\":570:573   */\n      dup3\n        /* \"#utility.yul\":563:597   */\n      mstore\n        /* \"#utility.yul\":553:603   */\n      pop\n      pop\n      jump\t// out\n        /* \"#utility.yul\":609:973   */\n    tag_84:\n        /* \"#utility.yul\":697:700   */\n      0x00\n        /* \"#utility.yul\":725:764   */\n      tag_86\n        /* \"#utility.yul\":758:763   */\n      dup3\n        /* \"#utility.yul\":725:764   */\n      tag_87\n      jump\t// in\n    tag_86:\n        /* \"#utility.yul\":780:851   */\n      tag_88\n        /* \"#utility.yul\":844:850   */\n      dup2\n        /* \"#utility.yul\":839:842   */\n      dup6\n        /* \"#utility.yul\":780:851   */\n      tag_89\n      jump\t// in\n    tag_88:\n        /* \"#utility.yul\":773:851   */\n      swap4\n      pop\n        /* \"#utility.yul\":860:912   */\n      tag_90\n        /* \"#utility.yul\":905:911   */\n      dup2\n        /* \"#utility.yul\":900:903   */\n      dup6\n        /* \"#utility.yul\":893:897   */\n      0x20\n        /* \"#utility.yul\":886:891   */\n      dup7\n        /* \"#utility.yul\":882:898   */\n      add\n        /* \"#utility.yul\":860:912   */\n      tag_91\n      jump\t// in\n    tag_90:\n        /* \"#utility.yul\":937:966   */\n      tag_92\n        /* \"#utility.yul\":959:965   */\n      dup2\n        /* \"#utility.yul\":937:966   */\n      tag_93\n      jump\t// in\n    tag_92:\n        /* \"#utility.yul\":932:935   */\n      dup5\n        /* \"#utility.yul\":928:967   */\n      add\n        /* \"#utility.yul\":921:967   */\n      swap2\n      pop\n        /* \"#utility.yul\":701:973   */\n      pop\n      swap3\n      swap2\n      pop\n      pop\n      jump\t// out\n        /* \"#utility.yul\":979:1091   */\n    tag_94:\n        /* \"#utility.yul\":1062:1084   */\n      tag_96\n        /* \"#utility.yul\":1078:1083   */\n      dup2\n        /* \"#utility.yul\":1062:1084   */\n      tag_97\n      jump\t// in\n    tag_96:\n        /* \"#utility.yul\":1057:1060   */\n      dup3\n        /* \"#utility.yul\":1050:1085   */\n      mstore\n        /* \"#utility.yul\":1040:1091   */\n      pop\n      pop\n      jump\t// out\n        /* \"#utility.yul\":1097:1319   */\n    tag_26:\n        /* \"#utility.yul\":1190:1194   */\n      0x00\n        /* \"#utility.yul\":1228:1230   */\n      0x20\n        /* \"#utility.yul\":1217:1226   */\n      dup3\n        /* \"#utility.yul\":1213:1231   */\n      add\n        /* \"#utility.yul\":1205:1231   */\n      swap1\n      pop\n        /* \"#utility.yul\":1241:1312   */\n      tag_99\n        /* \"#utility.yul\":1309:1310   */\n      0x00\n        /* \"#utility.yul\":1298:1307   */\n      dup4\n        /* \"#utility.yul\":1294:1311   */\n      add\n        /* \"#utility.yul\":1285:1291   */\n      dup5\n        /* \"#utility.yul\":1241:1312   */\n      tag_64\n      jump\t// in\n    tag_99:\n        /* \"#utility.yul\":1195:1319   */\n      swap3\n      swap2\n      pop\n      pop\n      jump\t// out\n        /* \"#utility.yul\":1325:1535   */\n    tag_22:\n        /* \"#utility.yul\":1412:1416   */\n      0x00\n        /* \"#utility.yul\":1450:1452   */\n      0x20\n        /* \"#utility.yul\":1439:1448   */\n      dup3\n        /* \"#utility.yul\":1435:1453   */\n      add\n        /* \"#utility.yul\":1427:1453   */\n      swap1\n      pop\n        /* \"#utility.yul\":1463:1528   */\n      tag_101\n        /* \"#utility.yul\":1525:1526   */\n      0x00\n        /* \"#utility.yul\":1514:1523   */\n      dup4\n        /* \"#utility.yul\":1510:1527   */\n      add\n        /* \"#utility.yul\":1501:1507   */\n      dup5\n        /* \"#utility.yul\":1463:1528   */\n      tag_68\n      jump\t// in\n    tag_101:\n        /* \"#utility.yul\":1417:1535   */\n      swap3\n      swap2\n      pop\n      pop\n      jump\t// out\n        /* \"#utility.yul\":1541:1763   */\n    tag_34:\n        /* \"#utility.yul\":1634:1638   */\n      0x00\n        /* \"#utility.yul\":1672:1674   */\n      0x20\n        /* \"#utility.yul\":1661:1670   */\n      dup3\n        /* \"#utility.yul\":1657:1675   */\n      add\n        /* \"#utility.yul\":1649:1675   */\n      swap1\n      pop\n        /* \"#utility.yul\":1685:1756   */\n      tag_103\n        /* \"#utility.yul\":1753:1754   */\n      0x00\n        /* \"#utility.yul\":1742:1751   */\n      dup4\n        /* \"#utility.yul\":1738:1755   */\n      add\n        /* \"#utility.yul\":1729:1735   */\n      dup5\n        /* \"#utility.yul\":1685:1756   */\n      tag_72\n      jump\t// in\n    tag_103:\n        /* \"#utility.yul\":1639:1763   */\n      swap3\n      swap2\n      pop\n      pop\n      jump\t// out\n        /* \"#utility.yul\":1769:1991   */\n    tag_18:\n        /* \"#utility.yul\":1862:1866   */\n      0x00\n        /* \"#utility.yul\":1900:1902   */\n      0x20\n        /* \"#utility.yul\":1889:1898   */\n      dup3\n        /* \"#utility.yul\":1885:1903   */\n      add\n        /* \"#utility.yul\":1877:1903   */\n      swap1\n      pop\n        /* \"#utility.yul\":1913:1984   */\n      tag_105\n        /* \"#utility.yul\":1981:1982   */\n      0x00\n        /* \"#utility.yul\":1970:1979   */\n      dup4\n        /* \"#utility.yul\":1966:1983   */\n      add\n        /* \"#utility.yul\":1957:1963   */\n      dup5\n        /* \"#utility.yul\":1913:1984   */\n      tag_76\n      jump\t// in\n    tag_105:\n        /* \"#utility.yul\":1867:1991   */\n      swap3\n      swap2\n      pop\n      pop\n      jump\t// out\n        /* \"#utility.yul\":1997:2207   */\n    tag_38:\n        /* \"#utility.yul\":2084:2088   */\n      0x00\n        /* \"#utility.yul\":2122:2124   */\n      0x20\n        /* \"#utility.yul\":2111:2120   */\n      dup3\n        /* \"#utility.yul\":2107:2125   */\n      add\n        /* \"#utility.yul\":2099:2125   */\n      swap1\n      pop\n        /* \"#utility.yul\":2135:2200   */\n      tag_107\n        /* \"#utility.yul\":2197:2198   */\n      0x00\n        /* \"#utility.yul\":2186:2195   */\n      dup4\n        /* \"#utility.yul\":2182:2199   */\n      add\n        /* \"#utility.yul\":2173:2179   */\n      dup5\n        /* \"#utility.yul\":2135:2200   */\n      tag_80\n      jump\t// in\n    tag_107:\n        /* \"#utility.yul\":2089:2207   */\n      swap3\n      swap2\n      pop\n      pop\n      jump\t// out\n        /* \"#utility.yul\":2213:2526   */\n    tag_47:\n        /* \"#utility.yul\":2326:2330   */\n      0x00\n        /* \"#utility.yul\":2364:2366   */\n      0x20\n        /* \"#utility.yul\":2353:2362   */\n      dup3\n        /* \"#utility.yul\":2349:2367   */\n      add\n        /* \"#utility.yul\":2341:2367   */\n      swap1\n      pop\n        /* \"#utility.yul\":2413:2422   */\n      dup2\n        /* \"#utility.yul\":2407:2411   */\n      dup2\n        /* \"#utility.yul\":2403:2423   */\n      sub\n        /* \"#utility.yul\":2399:2400   */\n      0x00\n        /* \"#utility.yul\":2388:2397   */\n      dup4\n        /* \"#utility.yul\":2384:2401   */\n      add\n        /* \"#utility.yul\":2377:2424   */\n      mstore\n        /* \"#utility.yul\":2441:2519   */\n      tag_109\n        /* \"#utility.yul\":2514:2518   */\n      dup2\n        /* \"#utility.yul\":2505:2511   */\n      dup5\n        /* \"#utility.yul\":2441:2519   */\n      tag_84\n      jump\t// in\n    tag_109:\n        /* \"#utility.yul\":2433:2519   */\n      swap1\n      pop\n        /* \"#utility.yul\":2331:2526   */\n      swap3\n      swap2\n      pop\n      pop\n      jump\t// out\n        /* \"#utility.yul\":2532:2746   */\n    tag_30:\n        /* \"#utility.yul\":2621:2625   */\n      0x00\n        /* \"#utility.yul\":2659:2661   */\n      0x20\n        /* \"#utility.yul\":2648:2657   */\n      dup3\n        /* \"#utility.yul\":2644:2662   */\n      add\n        /* \"#utility.yul\":2636:2662   */\n      swap1\n      pop\n        /* \"#utility.yul\":2672:2739   */\n      tag_111\n        /* \"#utility.yul\":2736:2737   */\n      0x00\n        /* \"#utility.yul\":2725:2734   */\n      dup4\n        /* \"#utility.yul\":2721:2738   */\n      add\n        /* \"#utility.yul\":2712:2718   */\n      dup5\n        /* \"#utility.yul\":2672:2739   */\n      tag_94\n      jump\t// in\n    tag_111:\n        /* \"#utility.yul\":2626:2746   */\n      swap3\n      swap2\n      pop\n      pop\n      jump\t// out\n        /* \"#utility.yul\":2752:2851   */\n    tag_87:\n        /* \"#utility.yul\":2804:2810   */\n      0x00\n        /* \"#utility.yul\":2838:2843   */\n      dup2\n        /* \"#utility.yul\":2832:2844   */\n      mload\n        /* \"#utility.yul\":2822:2844   */\n      swap1\n      pop\n        /* \"#utility.yul\":2811:2851   */\n      swap2\n      swap1\n      pop\n      jump\t// out\n        /* \"#utility.yul\":2857:3026   */\n    tag_89:\n        /* \"#utility.yul\":2941:2952   */\n      0x00\n        /* \"#utility.yul\":2975:2981   */\n      dup3\n        /* \"#utility.yul\":2970:2973   */\n      dup3\n        /* \"#utility.yul\":2963:2982   */\n      mstore\n        /* \"#utility.yul\":3015:3019   */\n      0x20\n        /* \"#utility.yul\":3010:3013   */\n      dup3\n        /* \"#utility.yul\":3006:3020   */\n      add\n        /* \"#utility.yul\":2991:3020   */\n      swap1\n      pop\n        /* \"#utility.yul\":2953:3026   */\n      swap3\n      swap2\n      pop\n      pop\n      jump\t// out\n        /* \"#utility.yul\":3032:3128   */\n    tag_67:\n        /* \"#utility.yul\":3069:3076   */\n      0x00\n        /* \"#utility.yul\":3098:3122   */\n      tag_115\n        /* \"#utility.yul\":3116:3121   */\n      dup3\n        /* \"#utility.yul\":3098:3122   */\n      tag_116\n      jump\t// in\n    tag_115:\n        /* \"#utility.yul\":3087:3122   */\n      swap1\n      pop\n        /* \"#utility.yul\":3077:3128   */\n      swap2\n      swap1\n      pop\n      jump\t// out\n        /* \"#utility.yul\":3134:3224   */\n    tag_71:\n        /* \"#utility.yul\":3168:3175   */\n      0x00\n        /* \"#utility.yul\":3211:3216   */\n      dup2\n        /* \"#utility.yul\":3204:3217   */\n      iszero\n        /* \"#utility.yul\":3197:3218   */\n      iszero\n        /* \"#utility.yul\":3186:3218   */\n      swap1\n      pop\n        /* \"#utility.yul\":3176:3224   */\n      swap2\n      swap1\n      pop\n      jump\t// out\n        /* \"#utility.yul\":3230:3380   */\n    tag_75:\n        /* \"#utility.yul\":3267:3274   */\n      0x00\n        /* \"#utility.yul\":3307:3373   */\n      0xffffffffffffffffffffffffffffffffffffffff000000000000000000000000\n        /* \"#utility.yul\":3300:3305   */\n      dup3\n        /* \"#utility.yul\":3296:3374   */\n      and\n        /* \"#utility.yul\":3285:3374   */\n      swap1\n      pop\n        /* \"#utility.yul\":3275:3380   */\n      swap2\n      swap1\n      pop\n      jump\t// out\n        /* \"#utility.yul\":3386:3463   */\n    tag_79:\n        /* \"#utility.yul\":3423:3430   */\n      0x00\n        /* \"#utility.yul\":3452:3457   */\n      dup2\n        /* \"#utility.yul\":3441:3457   */\n      swap1\n      pop\n        /* \"#utility.yul\":3431:3463   */\n      swap2\n      swap1\n      pop\n      jump\t// out\n        /* \"#utility.yul\":3469:3558   */\n    tag_83:\n        /* \"#utility.yul\":3503:3510   */\n      0x00\n        /* \"#utility.yul\":3546:3551   */\n      dup2\n        /* \"#utility.yul\":3543:3544   */\n      0x00\n        /* \"#utility.yul\":3532:3552   */\n      signextend\n        /* \"#utility.yul\":3521:3552   */\n      swap1\n      pop\n        /* \"#utility.yul\":3511:3558   */\n      swap2\n      swap1\n      pop\n      jump\t// out\n        /* \"#utility.yul\":3564:3690   */\n    tag_116:\n        /* \"#utility.yul\":3601:3608   */\n      0x00\n        /* \"#utility.yul\":3641:3683   */\n      0xffffffffffffffffffffffffffffffffffffffff\n        /* \"#utility.yul\":3634:3639   */\n      dup3\n        /* \"#utility.yul\":3630:3684   */\n      and\n        /* \"#utility.yul\":3619:3684   */\n      swap1\n      pop\n        /* \"#utility.yul\":3609:3690   */\n      swap2\n      swap1\n      pop\n      jump\t// out\n        /* \"#utility.yul\":3696:3782   */\n    tag_97:\n        /* \"#utility.yul\":3731:3738   */\n      0x00\n        /* \"#utility.yul\":3771:3775   */\n      0xff\n        /* \"#utility.yul\":3764:3769   */\n      dup3\n        /* \"#utility.yul\":3760:3776   */\n      and\n        /* \"#utility.yul\":3749:3776   */\n      swap1\n      pop\n        /* \"#utility.yul\":3739:3782   */\n      swap2\n      swap1\n      pop\n      jump\t// out\n        /* \"#utility.yul\":3788:4095   */\n    tag_91:\n        /* \"#utility.yul\":3856:3857   */\n      0x00\n        /* \"#utility.yul\":3866:3979   */\n    tag_124:\n        /* \"#utility.yul\":3880:3886   */\n      dup4\n        /* \"#utility.yul\":3877:3878   */\n      dup2\n        /* \"#utility.yul\":3874:3887   */\n      lt\n        /* \"#utility.yul\":3866:3979   */\n      iszero\n      tag_126\n      jumpi\n        /* \"#utility.yul\":3965:3966   */\n      dup1\n        /* \"#utility.yul\":3960:3963   */\n      dup3\n        /* \"#utility.yul\":3956:3967   */\n      add\n        /* \"#utility.yul\":3950:3968   */\n      mload\n        /* \"#utility.yul\":3946:3947   */\n      dup2\n        /* \"#utility.yul\":3941:3944   */\n      dup5\n        /* \"#utility.yul\":3937:3948   */\n      add\n        /* \"#utility.yul\":3930:3969   */\n      mstore\n        /* \"#utility.yul\":3902:3904   */\n      0x20\n        /* \"#utility.yul\":3899:3900   */\n      dup2\n        /* \"#utility.yul\":3895:3905   */\n      add\n        /* \"#utility.yul\":3890:3905   */\n      swap1\n      pop\n        /* \"#utility.yul\":3866:3979   */\n      jump(tag_124)\n    tag_126:\n        /* \"#utility.yul\":3997:4003   */\n      dup4\n        /* \"#utility.yul\":3994:3995   */\n      dup2\n        /* \"#utility.yul\":3991:4004   */\n      gt\n        /* \"#utility.yul\":3988:3990   */\n      iszero\n      tag_127\n      jumpi\n        /* \"#utility.yul\":4077:4078   */\n      0x00\n        /* \"#utility.yul\":4068:4074   */\n      dup5\n        /* \"#utility.yul\":4063:4066   */\n      dup5\n        /* \"#utility.yul\":4059:4075   */\n      add\n        /* \"#utility.yul\":4052:4079   */\n      mstore\n        /* \"#utility.yul\":3988:3990   */\n    tag_127:\n        /* \"#utility.yul\":3837:4095   */\n      pop\n      pop\n      pop\n      pop\n      jump\t// out\n        /* \"#utility.yul\":4101:4421   */\n    tag_56:\n        /* \"#utility.yul\":4145:4151   */\n      0x00\n        /* \"#utility.yul\":4182:4183   */\n      0x02\n        /* \"#utility.yul\":4176:4180   */\n      dup3\n        /* \"#utility.yul\":4172:4184   */\n      div\n        /* \"#utility.yul\":4162:4184   */\n      swap1\n      pop\n        /* \"#utility.yul\":4229:4230   */\n      0x01\n        /* \"#utility.yul\":4223:4227   */\n      dup3\n        /* \"#utility.yul\":4219:4231   */\n      and\n        /* \"#utility.yul\":4250:4268   */\n      dup1\n        /* \"#utility.yul\":4240:4242   */\n      tag_129\n      jumpi\n        /* \"#utility.yul\":4306:4310   */\n      0x7f\n        /* \"#utility.yul\":4298:4304   */\n      dup3\n        /* \"#utility.yul\":4294:4311   */\n      and\n        /* \"#utility.yul\":4284:4311   */\n      swap2\n      pop\n        /* \"#utility.yul\":4240:4242   */\n    tag_129:\n        /* \"#utility.yul\":4368:4370   */\n      0x20\n        /* \"#utility.yul\":4360:4366   */\n      dup3\n        /* \"#utility.yul\":4357:4371   */\n      lt\n        /* \"#utility.yul\":4337:4355   */\n      dup2\n        /* \"#utility.yul\":4334:4372   */\n      eq\n        /* \"#utility.yul\":4331:4333   */\n      iszero\n      tag_130\n      jumpi\n        /* \"#utility.yul\":4387:4405   */\n      tag_131\n      tag_132\n      jump\t// in\n    tag_131:\n        /* \"#utility.yul\":4331:4333   */\n    tag_130:\n        /* \"#utility.yul\":4152:4421   */\n      pop\n      swap2\n      swap1\n      pop\n      jump\t// out\n        /* \"#utility.yul\":4427:4607   */\n    tag_132:\n        /* \"#utility.yul\":4475:4552   */\n      0x4e487b7100000000000000000000000000000000000000000000000000000000\n        /* \"#utility.yul\":4472:4473   */\n      0x00\n        /* \"#utility.yul\":4465:4553   */\n      mstore\n        /* \"#utility.yul\":4572:4576   */\n      0x22\n        /* \"#utility.yul\":4569:4570   */\n      0x04\n        /* \"#utility.yul\":4562:4577   */\n      mstore\n        /* \"#utility.yul\":4596:4600   */\n      0x24\n        /* \"#utility.yul\":4593:4594   */\n      0x00\n        /* \"#utility.yul\":4586:4601   */\n      revert\n        /* \"#utility.yul\":4613:4715   */\n    tag_93:\n        /* \"#utility.yul\":4654:4660   */\n      0x00\n        /* \"#utility.yul\":4705:4707   */\n      0x1f\n        /* \"#utility.yul\":4701:4708   */\n      not\n        /* \"#utility.yul\":4696:4698   */\n      0x1f\n        /* \"#utility.yul\":4689:4694   */\n      dup4\n        /* \"#utility.yul\":4685:4699   */\n      add\n        /* \"#utility.yul\":4681:4709   */\n      and\n        /* \"#utility.yul\":4671:4709   */\n      swap1\n      pop\n        /* \"#utility.yul\":4661:4715   */\n      swap2\n      swap1\n      pop\n      jump\t// out\n\n    auxdata: 0xa2646970667358221220629f596089dd8bd242cefde0feffbd64a93f456a67e25fbd4b27f4be4d6f4b1d64736f6c63430008040033\n}\n",
				"bytecode": {
					"linkReferences": {},
					"object": "60806040526003600160006101000a81548160ff021916908360ff1602179055507fffffffffffffffffffffffffffffffffffffffffffffffffffffffffffffffe0600360006101000a81548160ff021916908360000b60ff16021790555060416004556040518060400160405280600f81526020017f4573746f206573207075626c69636f000000000000000000000000000000000081525060069080519060200190620000b09291906200030b565b506040518060400160405280600f81526020017f4573746f206573207072697661646f000000000000000000000000000000000081525060079080519060200190620000fe9291906200030b565b506001600860016101000a81548160ff0219169083151502179055506000600860026101000a81548160ff021916908315150217905550600a336040516020016200014b929190620004d2565b60405160208183030381529060405280519060200120600b55600260405160200162000177906200050f565b604051602081830303815290604052604051620001959190620004b9565b602060405180830381855afa158015620001b3573d6000803e3d6000fd5b5050506040513d601f19601f82011682018060405250810190620001d89190620003d2565b600c556003604051602001620001ee906200050f565b6040516020818303038152906040526040516200020c9190620004b9565b602060405180830381855afa1580156200022a573d6000803e3d6000fd5b5050506040515160601b600d60006101000a81548173ffffffffffffffffffffffffffffffffffffffff021916908360601c0217905550735b38da6a701c568545dcfcb03fcb875f56beddc4600f60006101000a81548173ffffffffffffffffffffffffffffffffffffffff021916908373ffffffffffffffffffffffffffffffffffffffff16021790555033601060006101000a81548173ffffffffffffffffffffffffffffffffffffffff021916908373ffffffffffffffffffffffffffffffffffffffff1602179055503480156200030457600080fd5b50620006d5565b8280546200031990620005c5565b90600052602060002090601f0160209004810192826200033d576000855562000389565b82601f106200035857805160ff191683800117855562000389565b8280016001018555821562000389579182015b82811115620003885782518255916020019190600101906200036b565b5b5090506200039891906200039c565b5090565b5b80821115620003b75760008160009055506001016200039d565b5090565b600081519050620003cc81620006bb565b92915050565b600060208284031215620003e557600080fd5b6000620003f584828501620003bb565b91505092915050565b620004136200040d8262000547565b620005fb565b82525050565b6000620004268262000526565b62000432818562000531565b9350620004448185602086016200058f565b80840191505092915050565b60006200045f6004836200053c565b91506200046c8262000669565b600482019050919050565b600062000486600b836200053c565b9150620004938262000692565b600b82019050919050565b620004b3620004ad8262000585565b62000623565b82525050565b6000620004c7828462000419565b915081905092915050565b6000620004df8262000450565b9150620004ed82856200049e565b602082019150620004ff8284620003fe565b6014820191508190509392505050565b60006200051c8262000477565b9150819050919050565b600081519050919050565b600081905092915050565b600081905092915050565b6000620005548262000565565b9050919050565b6000819050919050565b600073ffffffffffffffffffffffffffffffffffffffff82169050919050565b6000819050919050565b60005b83811015620005af57808201518184015260208101905062000592565b83811115620005bf576000848401525b50505050565b60006002820490506001821680620005de57607f821691505b60208210811415620005f557620005f46200062d565b5b50919050565b600062000608826200060f565b9050919050565b60006200061c826200065c565b9050919050565b6000819050919050565b7f4e487b7100000000000000000000000000000000000000000000000000000000600052602260045260246000fd5b60008160601b9050919050565b7f486f6c6100000000000000000000000000000000000000000000000000000000600082015250565b7f48656c6c6f20776f726c64000000000000000000000000000000000000000000600082015250565b620006c6816200055b565b8114620006d257600080fd5b50565b61068480620006e56000396000f3fe608060405234801561001057600080fd5b50600436106100a95760003560e01c80638a054ac2116100715780638a054ac2146101445780639eea4a3a14610162578063af10c81014610180578063b83d07b71461018a578063ba33ed7d146101a8578063c7109d04146101b2576100a9565b80632b73648d146100ae578063312eef29146100cc5780633a36399e146100ea5780634df7e3d0146101085780637a68ef7f14610126575b600080fd5b6100b66101d0565b6040516100c3919061048c565b60405180910390f35b6100d46101d6565b6040516100e19190610456565b60405180910390f35b6100f26101e9565b6040516100ff919061043b565b60405180910390f35b61011061020f565b60405161011d91906104e4565b60405180910390f35b61012e610222565b60405161013b9190610471565b60405180910390f35b61014c610235565b60405161015991906104a7565b60405180910390f35b61016a610248565b604051610177919061043b565b60405180910390f35b61018861026e565b005b6101926102c1565b60405161019f91906104c2565b60405180910390f35b6101b061034f565b005b6101ba6103a2565b6040516101c7919061048c565b60405180910390f35b600b5481565b600860019054906101000a900460ff1681565b600f60009054906101000a900473ffffffffffffffffffffffffffffffffffffffff1681565b600160009054906101000a900460ff1681565b600d60009054906101000a900460601b81565b600360009054906101000a900460000b81565b601060009054906101000a900473ffffffffffffffffffffffffffffffffffffffff1681565b6001601060146101000a81548160ff021916908360018111156102ba577f4e487b7100000000000000000000000000000000000000000000000000000000600052602160045260246000fd5b0217905550565b600680546102ce906105dc565b80601f01602080910402602001604051908101604052809291908181526020018280546102fa906105dc565b80156103475780601f1061031c57610100808354040283529160200191610347565b820191906000526020600020905b81548152906001019060200180831161032a57829003601f168201915b505050505081565b6000601060146101000a81548160ff0219169083600181111561039b577f4e487b7100000000000000000000000000000000000000000000000000000000600052602160045260246000fd5b0217905550565b600c5481565b6103b18161051b565b82525050565b6103c08161052d565b82525050565b6103cf81610539565b82525050565b6103de81610565565b82525050565b6103ed8161056f565b82525050565b60006103fe826104ff565b610408818561050a565b93506104188185602086016105a9565b6104218161063d565b840191505092915050565b6104358161059c565b82525050565b600060208201905061045060008301846103a8565b92915050565b600060208201905061046b60008301846103b7565b92915050565b600060208201905061048660008301846103c6565b92915050565b60006020820190506104a160008301846103d5565b92915050565b60006020820190506104bc60008301846103e4565b92915050565b600060208201905081810360008301526104dc81846103f3565b905092915050565b60006020820190506104f9600083018461042c565b92915050565b600081519050919050565b600082825260208201905092915050565b60006105268261057c565b9050919050565b60008115159050919050565b60007fffffffffffffffffffffffffffffffffffffffff00000000000000000000000082169050919050565b6000819050919050565b60008160000b9050919050565b600073ffffffffffffffffffffffffffffffffffffffff82169050919050565b600060ff82169050919050565b60005b838110156105c75780820151818401526020810190506105ac565b838111156105d6576000848401525b50505050565b600060028204905060018216806105f457607f821691505b602082108114156106085761060761060e565b5b50919050565b7f4e487b7100000000000000000000000000000000000000000000000000000000600052602260045260246000fd5b6000601f19601f830116905091905056fea2646970667358221220629f596089dd8bd242cefde0feffbd64a93f456a67e25fbd4b27f4be4d6f4b1d64736f6c63430008040033",
					"opcodes": "PUSH1 0x80 PUSH1 0x40 MSTORE PUSH1 0x3 PUSH1 0x1 PUSH1 0x0 PUSH2 0x100 EXP DUP2 SLOAD DUP2 PUSH1 0xFF MUL NOT AND SWAP1 DUP4 PUSH1 0xFF AND MUL OR SWAP1 SSTORE POP PUSH32 0xFFFFFFFFFFFFFFFFFFFFFFFFFFFFFFFFFFFFFFFFFFFFFFFFFFFFFFFFFFFFFFE0 PUSH1 0x3 PUSH1 0x0 PUSH2 0x100 EXP DUP2 SLOAD DUP2 PUSH1 0xFF MUL NOT AND SWAP1 DUP4 PUSH1 0x0 SIGNEXTEND PUSH1 0xFF AND MUL OR SWAP1 SSTORE POP PUSH1 0x41 PUSH1 0x4 SSTORE PUSH1 0x40 MLOAD DUP1 PUSH1 0x40 ADD PUSH1 0x40 MSTORE DUP1 PUSH1 0xF DUP2 MSTORE PUSH1 0x20 ADD PUSH32 0x4573746F206573207075626C69636F0000000000000000000000000000000000 DUP2 MSTORE POP PUSH1 0x6 SWAP1 DUP1 MLOAD SWAP1 PUSH1 0x20 ADD SWAP1 PUSH3 0xB0 SWAP3 SWAP2 SWAP1 PUSH3 0x30B JUMP JUMPDEST POP PUSH1 0x40 MLOAD DUP1 PUSH1 0x40 ADD PUSH1 0x40 MSTORE DUP1 PUSH1 0xF DUP2 MSTORE PUSH1 0x20 ADD PUSH32 0x4573746F206573207072697661646F0000000000000000000000000000000000 DUP2 MSTORE POP PUSH1 0x7 SWAP1 DUP1 MLOAD SWAP1 PUSH1 0x20 ADD SWAP1 PUSH3 0xFE SWAP3 SWAP2 SWAP1 PUSH3 0x30B JUMP JUMPDEST POP PUSH1 0x1 PUSH1 0x8 PUSH1 0x1 PUSH2 0x100 EXP DUP2 SLOAD DUP2 PUSH1 0xFF MUL NOT AND SWAP1 DUP4 ISZERO ISZERO MUL OR SWAP1 SSTORE POP PUSH1 0x0 PUSH1 0x8 PUSH1 0x2 PUSH2 0x100 EXP DUP2 SLOAD DUP2 PUSH1 0xFF MUL NOT AND SWAP1 DUP4 ISZERO ISZERO MUL OR SWAP1 SSTORE POP PUSH1 0xA CALLER PUSH1 0x40 MLOAD PUSH1 0x20 ADD PUSH3 0x14B SWAP3 SWAP2 SWAP1 PUSH3 0x4D2 JUMP JUMPDEST PUSH1 0x40 MLOAD PUSH1 0x20 DUP2 DUP4 SUB SUB DUP2 MSTORE SWAP1 PUSH1 0x40 MSTORE DUP1 MLOAD SWAP1 PUSH1 0x20 ADD KECCAK256 PUSH1 0xB SSTORE PUSH1 0x2 PUSH1 0x40 MLOAD PUSH1 0x20 ADD PUSH3 0x177 SWAP1 PUSH3 0x50F JUMP JUMPDEST PUSH1 0x40 MLOAD PUSH1 0x20 DUP2 DUP4 SUB SUB DUP2 MSTORE SWAP1 PUSH1 0x40 MSTORE PUSH1 0x40 MLOAD PUSH3 0x195 SWAP2 SWAP1 PUSH3 0x4B9 JUMP JUMPDEST PUSH1 0x20 PUSH1 0x40 MLOAD DUP1 DUP4 SUB DUP2 DUP6 GAS STATICCALL ISZERO DUP1 ISZERO PUSH3 0x1B3 JUMPI RETURNDATASIZE PUSH1 0x0 DUP1 RETURNDATACOPY RETURNDATASIZE PUSH1 0x0 REVERT JUMPDEST POP POP POP PUSH1 0x40 MLOAD RETURNDATASIZE PUSH1 0x1F NOT PUSH1 0x1F DUP3 ADD AND DUP3 ADD DUP1 PUSH1 0x40 MSTORE POP DUP2 ADD SWAP1 PUSH3 0x1D8 SWAP2 SWAP1 PUSH3 0x3D2 JUMP JUMPDEST PUSH1 0xC SSTORE PUSH1 0x3 PUSH1 0x40 MLOAD PUSH1 0x20 ADD PUSH3 0x1EE SWAP1 PUSH3 0x50F JUMP JUMPDEST PUSH1 0x40 MLOAD PUSH1 0x20 DUP2 DUP4 SUB SUB DUP2 MSTORE SWAP1 PUSH1 0x40 MSTORE PUSH1 0x40 MLOAD PUSH3 0x20C SWAP2 SWAP1 PUSH3 0x4B9 JUMP JUMPDEST PUSH1 0x20 PUSH1 0x40 MLOAD DUP1 DUP4 SUB DUP2 DUP6 GAS STATICCALL ISZERO DUP1 ISZERO PUSH3 0x22A JUMPI RETURNDATASIZE PUSH1 0x0 DUP1 RETURNDATACOPY RETURNDATASIZE PUSH1 0x0 REVERT JUMPDEST POP POP POP PUSH1 0x40 MLOAD MLOAD PUSH1 0x60 SHL PUSH1 0xD PUSH1 0x0 PUSH2 0x100 EXP DUP2 SLOAD DUP2 PUSH20 0xFFFFFFFFFFFFFFFFFFFFFFFFFFFFFFFFFFFFFFFF MUL NOT AND SWAP1 DUP4 PUSH1 0x60 SHR MUL OR SWAP1 SSTORE POP PUSH20 0x5B38DA6A701C568545DCFCB03FCB875F56BEDDC4 PUSH1 0xF PUSH1 0x0 PUSH2 0x100 EXP DUP2 SLOAD DUP2 PUSH20 0xFFFFFFFFFFFFFFFFFFFFFFFFFFFFFFFFFFFFFFFF MUL NOT AND SWAP1 DUP4 PUSH20 0xFFFFFFFFFFFFFFFFFFFFFFFFFFFFFFFFFFFFFFFF AND MUL OR SWAP1 SSTORE POP CALLER PUSH1 0x10 PUSH1 0x0 PUSH2 0x100 EXP DUP2 SLOAD DUP2 PUSH20 0xFFFFFFFFFFFFFFFFFFFFFFFFFFFFFFFFFFFFFFFF MUL NOT AND SWAP1 DUP4 PUSH20 0xFFFFFFFFFFFFFFFFFFFFFFFFFFFFFFFFFFFFFFFF AND MUL OR SWAP1 SSTORE POP CALLVALUE DUP1 ISZERO PUSH3 0x304 JUMPI PUSH1 0x0 DUP1 REVERT JUMPDEST POP PUSH3 0x6D5 JUMP JUMPDEST DUP3 DUP1 SLOAD PUSH3 0x319 SWAP1 PUSH3 0x5C5 JUMP JUMPDEST SWAP1 PUSH1 0x0 MSTORE PUSH1 0x20 PUSH1 0x0 KECCAK256 SWAP1 PUSH1 0x1F ADD PUSH1 0x20 SWAP1 DIV DUP2 ADD SWAP3 DUP3 PUSH3 0x33D JUMPI PUSH1 0x0 DUP6 SSTORE PUSH3 0x389 JUMP JUMPDEST DUP3 PUSH1 0x1F LT PUSH3 0x358 JUMPI DUP1 MLOAD PUSH1 0xFF NOT AND DUP4 DUP1 ADD OR DUP6 SSTORE PUSH3 0x389 JUMP JUMPDEST DUP3 DUP1 ADD PUSH1 0x1 ADD DUP6 SSTORE DUP3 ISZERO PUSH3 0x389 JUMPI SWAP2 DUP3 ADD JUMPDEST DUP3 DUP2 GT ISZERO PUSH3 0x388 JUMPI DUP3 MLOAD DUP3 SSTORE SWAP2 PUSH1 0x20 ADD SWAP2 SWAP1 PUSH1 0x1 ADD SWAP1 PUSH3 0x36B JUMP JUMPDEST JUMPDEST POP SWAP1 POP PUSH3 0x398 SWAP2 SWAP1 PUSH3 0x39C JUMP JUMPDEST POP SWAP1 JUMP JUMPDEST JUMPDEST DUP1 DUP3 GT ISZERO PUSH3 0x3B7 JUMPI PUSH1 0x0 DUP2 PUSH1 0x0 SWAP1 SSTORE POP PUSH1 0x1 ADD PUSH3 0x39D JUMP JUMPDEST POP SWAP1 JUMP JUMPDEST PUSH1 0x0 DUP2 MLOAD SWAP1 POP PUSH3 0x3CC DUP2 PUSH3 0x6BB JUMP JUMPDEST SWAP3 SWAP2 POP POP JUMP JUMPDEST PUSH1 0x0 PUSH1 0x20 DUP3 DUP5 SUB SLT ISZERO PUSH3 0x3E5 JUMPI PUSH1 0x0 DUP1 REVERT JUMPDEST PUSH1 0x0 PUSH3 0x3F5 DUP5 DUP3 DUP6 ADD PUSH3 0x3BB JUMP JUMPDEST SWAP2 POP POP SWAP3 SWAP2 POP POP JUMP JUMPDEST PUSH3 0x413 PUSH3 0x40D DUP3 PUSH3 0x547 JUMP JUMPDEST PUSH3 0x5FB JUMP JUMPDEST DUP3 MSTORE POP POP JUMP JUMPDEST PUSH1 0x0 PUSH3 0x426 DUP3 PUSH3 0x526 JUMP JUMPDEST PUSH3 0x432 DUP2 DUP6 PUSH3 0x531 JUMP JUMPDEST SWAP4 POP PUSH3 0x444 DUP2 DUP6 PUSH1 0x20 DUP7 ADD PUSH3 0x58F JUMP JUMPDEST DUP1 DUP5 ADD SWAP2 POP POP SWAP3 SWAP2 POP POP JUMP JUMPDEST PUSH1 0x0 PUSH3 0x45F PUSH1 0x4 DUP4 PUSH3 0x53C JUMP JUMPDEST SWAP2 POP PUSH3 0x46C DUP3 PUSH3 0x669 JUMP JUMPDEST PUSH1 0x4 DUP3 ADD SWAP1 POP SWAP2 SWAP1 POP JUMP JUMPDEST PUSH1 0x0 PUSH3 0x486 PUSH1 0xB DUP4 PUSH3 0x53C JUMP JUMPDEST SWAP2 POP PUSH3 0x493 DUP3 PUSH3 0x692 JUMP JUMPDEST PUSH1 0xB DUP3 ADD SWAP1 POP SWAP2 SWAP1 POP JUMP JUMPDEST PUSH3 0x4B3 PUSH3 0x4AD DUP3 PUSH3 0x585 JUMP JUMPDEST PUSH3 0x623 JUMP JUMPDEST DUP3 MSTORE POP POP JUMP JUMPDEST PUSH1 0x0 PUSH3 0x4C7 DUP3 DUP5 PUSH3 0x419 JUMP JUMPDEST SWAP2 POP DUP2 SWAP1 POP SWAP3 SWAP2 POP POP JUMP JUMPDEST PUSH1 0x0 PUSH3 0x4DF DUP3 PUSH3 0x450 JUMP JUMPDEST SWAP2 POP PUSH3 0x4ED DUP3 DUP6 PUSH3 0x49E JUMP JUMPDEST PUSH1 0x20 DUP3 ADD SWAP2 POP PUSH3 0x4FF DUP3 DUP5 PUSH3 0x3FE JUMP JUMPDEST PUSH1 0x14 DUP3 ADD SWAP2 POP DUP2 SWAP1 POP SWAP4 SWAP3 POP POP POP JUMP JUMPDEST PUSH1 0x0 PUSH3 0x51C DUP3 PUSH3 0x477 JUMP JUMPDEST SWAP2 POP DUP2 SWAP1 POP SWAP2 SWAP1 POP JUMP JUMPDEST PUSH1 0x0 DUP2 MLOAD SWAP1 POP SWAP2 SWAP1 POP JUMP JUMPDEST PUSH1 0x0 DUP2 SWAP1 POP SWAP3 SWAP2 POP POP JUMP JUMPDEST PUSH1 0x0 DUP2 SWAP1 POP SWAP3 SWAP2 POP POP JUMP JUMPDEST PUSH1 0x0 PUSH3 0x554 DUP3 PUSH3 0x565 JUMP JUMPDEST SWAP1 POP SWAP2 SWAP1 POP JUMP JUMPDEST PUSH1 0x0 DUP2 SWAP1 POP SWAP2 SWAP1 POP JUMP JUMPDEST PUSH1 0x0 PUSH20 0xFFFFFFFFFFFFFFFFFFFFFFFFFFFFFFFFFFFFFFFF DUP3 AND SWAP1 POP SWAP2 SWAP1 POP JUMP JUMPDEST PUSH1 0x0 DUP2 SWAP1 POP SWAP2 SWAP1 POP JUMP JUMPDEST PUSH1 0x0 JUMPDEST DUP4 DUP2 LT ISZERO PUSH3 0x5AF JUMPI DUP1 DUP3 ADD MLOAD DUP2 DUP5 ADD MSTORE PUSH1 0x20 DUP2 ADD SWAP1 POP PUSH3 0x592 JUMP JUMPDEST DUP4 DUP2 GT ISZERO PUSH3 0x5BF JUMPI PUSH1 0x0 DUP5 DUP5 ADD MSTORE JUMPDEST POP POP POP POP JUMP JUMPDEST PUSH1 0x0 PUSH1 0x2 DUP3 DIV SWAP1 POP PUSH1 0x1 DUP3 AND DUP1 PUSH3 0x5DE JUMPI PUSH1 0x7F DUP3 AND SWAP2 POP JUMPDEST PUSH1 0x20 DUP3 LT DUP2 EQ ISZERO PUSH3 0x5F5 JUMPI PUSH3 0x5F4 PUSH3 0x62D JUMP JUMPDEST JUMPDEST POP SWAP2 SWAP1 POP JUMP JUMPDEST PUSH1 0x0 PUSH3 0x608 DUP3 PUSH3 0x60F JUMP JUMPDEST SWAP1 POP SWAP2 SWAP1 POP JUMP JUMPDEST PUSH1 0x0 PUSH3 0x61C DUP3 PUSH3 0x65C JUMP JUMPDEST SWAP1 POP SWAP2 SWAP1 POP JUMP JUMPDEST PUSH1 0x0 DUP2 SWAP1 POP SWAP2 SWAP1 POP JUMP JUMPDEST PUSH32 0x4E487B7100000000000000000000000000000000000000000000000000000000 PUSH1 0x0 MSTORE PUSH1 0x22 PUSH1 0x4 MSTORE PUSH1 0x24 PUSH1 0x0 REVERT JUMPDEST PUSH1 0x0 DUP2 PUSH1 0x60 SHL SWAP1 POP SWAP2 SWAP1 POP JUMP JUMPDEST PUSH32 0x486F6C6100000000000000000000000000000000000000000000000000000000 PUSH1 0x0 DUP3 ADD MSTORE POP JUMP JUMPDEST PUSH32 0x48656C6C6F20776F726C64000000000000000000000000000000000000000000 PUSH1 0x0 DUP3 ADD MSTORE POP JUMP JUMPDEST PUSH3 0x6C6 DUP2 PUSH3 0x55B JUMP JUMPDEST DUP2 EQ PUSH3 0x6D2 JUMPI PUSH1 0x0 DUP1 REVERT JUMPDEST POP JUMP JUMPDEST PUSH2 0x684 DUP1 PUSH3 0x6E5 PUSH1 0x0 CODECOPY PUSH1 0x0 RETURN INVALID PUSH1 0x80 PUSH1 0x40 MSTORE CALLVALUE DUP1 ISZERO PUSH2 0x10 JUMPI PUSH1 0x0 DUP1 REVERT JUMPDEST POP PUSH1 0x4 CALLDATASIZE LT PUSH2 0xA9 JUMPI PUSH1 0x0 CALLDATALOAD PUSH1 0xE0 SHR DUP1 PUSH4 0x8A054AC2 GT PUSH2 0x71 JUMPI DUP1 PUSH4 0x8A054AC2 EQ PUSH2 0x144 JUMPI DUP1 PUSH4 0x9EEA4A3A EQ PUSH2 0x162 JUMPI DUP1 PUSH4 0xAF10C810 EQ PUSH2 0x180 JUMPI DUP1 PUSH4 0xB83D07B7 EQ PUSH2 0x18A JUMPI DUP1 PUSH4 0xBA33ED7D EQ PUSH2 0x1A8 JUMPI DUP1 PUSH4 0xC7109D04 EQ PUSH2 0x1B2 JUMPI PUSH2 0xA9 JUMP JUMPDEST DUP1 PUSH4 0x2B73648D EQ PUSH2 0xAE JUMPI DUP1 PUSH4 0x312EEF29 EQ PUSH2 0xCC JUMPI DUP1 PUSH4 0x3A36399E EQ PUSH2 0xEA JUMPI DUP1 PUSH4 0x4DF7E3D0 EQ PUSH2 0x108 JUMPI DUP1 PUSH4 0x7A68EF7F EQ PUSH2 0x126 JUMPI JUMPDEST PUSH1 0x0 DUP1 REVERT JUMPDEST PUSH2 0xB6 PUSH2 0x1D0 JUMP JUMPDEST PUSH1 0x40 MLOAD PUSH2 0xC3 SWAP2 SWAP1 PUSH2 0x48C JUMP JUMPDEST PUSH1 0x40 MLOAD DUP1 SWAP2 SUB SWAP1 RETURN JUMPDEST PUSH2 0xD4 PUSH2 0x1D6 JUMP JUMPDEST PUSH1 0x40 MLOAD PUSH2 0xE1 SWAP2 SWAP1 PUSH2 0x456 JUMP JUMPDEST PUSH1 0x40 MLOAD DUP1 SWAP2 SUB SWAP1 RETURN JUMPDEST PUSH2 0xF2 PUSH2 0x1E9 JUMP JUMPDEST PUSH1 0x40 MLOAD PUSH2 0xFF SWAP2 SWAP1 PUSH2 0x43B JUMP JUMPDEST PUSH1 0x40 MLOAD DUP1 SWAP2 SUB SWAP1 RETURN JUMPDEST PUSH2 0x110 PUSH2 0x20F JUMP JUMPDEST PUSH1 0x40 MLOAD PUSH2 0x11D SWAP2 SWAP1 PUSH2 0x4E4 JUMP JUMPDEST PUSH1 0x40 MLOAD DUP1 SWAP2 SUB SWAP1 RETURN JUMPDEST PUSH2 0x12E PUSH2 0x222 JUMP JUMPDEST PUSH1 0x40 MLOAD PUSH2 0x13B SWAP2 SWAP1 PUSH2 0x471 JUMP JUMPDEST PUSH1 0x40 MLOAD DUP1 SWAP2 SUB SWAP1 RETURN JUMPDEST PUSH2 0x14C PUSH2 0x235 JUMP JUMPDEST PUSH1 0x40 MLOAD PUSH2 0x159 SWAP2 SWAP1 PUSH2 0x4A7 JUMP JUMPDEST PUSH1 0x40 MLOAD DUP1 SWAP2 SUB SWAP1 RETURN JUMPDEST PUSH2 0x16A PUSH2 0x248 JUMP JUMPDEST PUSH1 0x40 MLOAD PUSH2 0x177 SWAP2 SWAP1 PUSH2 0x43B JUMP JUMPDEST PUSH1 0x40 MLOAD DUP1 SWAP2 SUB SWAP1 RETURN JUMPDEST PUSH2 0x188 PUSH2 0x26E JUMP JUMPDEST STOP JUMPDEST PUSH2 0x192 PUSH2 0x2C1 JUMP JUMPDEST PUSH1 0x40 MLOAD PUSH2 0x19F SWAP2 SWAP1 PUSH2 0x4C2 JUMP JUMPDEST PUSH1 0x40 MLOAD DUP1 SWAP2 SUB SWAP1 RETURN JUMPDEST PUSH2 0x1B0 PUSH2 0x34F JUMP JUMPDEST STOP JUMPDEST PUSH2 0x1BA PUSH2 0x3A2 JUMP JUMPDEST PUSH1 0x40 MLOAD PUSH2 0x1C7 SWAP2 SWAP1 PUSH2 0x48C JUMP JUMPDEST PUSH1 0x40 MLOAD DUP1 SWAP2 SUB SWAP1 RETURN JUMPDEST PUSH1 0xB SLOAD DUP2 JUMP JUMPDEST PUSH1 0x8 PUSH1 0x1 SWAP1 SLOAD SWAP1 PUSH2 0x100 EXP SWAP1 DIV PUSH1 0xFF AND DUP2 JUMP JUMPDEST PUSH1 0xF PUSH1 0x0 SWAP1 SLOAD SWAP1 PUSH2 0x100 EXP SWAP1 DIV PUSH20 0xFFFFFFFFFFFFFFFFFFFFFFFFFFFFFFFFFFFFFFFF AND DUP2 JUMP JUMPDEST PUSH1 0x1 PUSH1 0x0 SWAP1 SLOAD SWAP1 PUSH2 0x100 EXP SWAP1 DIV PUSH1 0xFF AND DUP2 JUMP JUMPDEST PUSH1 0xD PUSH1 0x0 SWAP1 SLOAD SWAP1 PUSH2 0x100 EXP SWAP1 DIV PUSH1 0x60 SHL DUP2 JUMP JUMPDEST PUSH1 0x3 PUSH1 0x0 SWAP1 SLOAD SWAP1 PUSH2 0x100 EXP SWAP1 DIV PUSH1 0x0 SIGNEXTEND DUP2 JUMP JUMPDEST PUSH1 0x10 PUSH1 0x0 SWAP1 SLOAD SWAP1 PUSH2 0x100 EXP SWAP1 DIV PUSH20 0xFFFFFFFFFFFFFFFFFFFFFFFFFFFFFFFFFFFFFFFF AND DUP2 JUMP JUMPDEST PUSH1 0x1 PUSH1 0x10 PUSH1 0x14 PUSH2 0x100 EXP DUP2 SLOAD DUP2 PUSH1 0xFF MUL NOT AND SWAP1 DUP4 PUSH1 0x1 DUP2 GT ISZERO PUSH2 0x2BA JUMPI PUSH32 0x4E487B7100000000000000000000000000000000000000000000000000000000 PUSH1 0x0 MSTORE PUSH1 0x21 PUSH1 0x4 MSTORE PUSH1 0x24 PUSH1 0x0 REVERT JUMPDEST MUL OR SWAP1 SSTORE POP JUMP JUMPDEST PUSH1 0x6 DUP1 SLOAD PUSH2 0x2CE SWAP1 PUSH2 0x5DC JUMP JUMPDEST DUP1 PUSH1 0x1F ADD PUSH1 0x20 DUP1 SWAP2 DIV MUL PUSH1 0x20 ADD PUSH1 0x40 MLOAD SWAP1 DUP2 ADD PUSH1 0x40 MSTORE DUP1 SWAP3 SWAP2 SWAP1 DUP2 DUP2 MSTORE PUSH1 0x20 ADD DUP3 DUP1 SLOAD PUSH2 0x2FA SWAP1 PUSH2 0x5DC JUMP JUMPDEST DUP1 ISZERO PUSH2 0x347 JUMPI DUP1 PUSH1 0x1F LT PUSH2 0x31C JUMPI PUSH2 0x100 DUP1 DUP4 SLOAD DIV MUL DUP4 MSTORE SWAP2 PUSH1 0x20 ADD SWAP2 PUSH2 0x347 JUMP JUMPDEST DUP3 ADD SWAP2 SWAP1 PUSH1 0x0 MSTORE PUSH1 0x20 PUSH1 0x0 KECCAK256 SWAP1 JUMPDEST DUP2 SLOAD DUP2 MSTORE SWAP1 PUSH1 0x1 ADD SWAP1 PUSH1 0x20 ADD DUP1 DUP4 GT PUSH2 0x32A JUMPI DUP3 SWAP1 SUB PUSH1 0x1F AND DUP3 ADD SWAP2 JUMPDEST POP POP POP POP POP DUP2 JUMP JUMPDEST PUSH1 0x0 PUSH1 0x10 PUSH1 0x14 PUSH2 0x100 EXP DUP2 SLOAD DUP2 PUSH1 0xFF MUL NOT AND SWAP1 DUP4 PUSH1 0x1 DUP2 GT ISZERO PUSH2 0x39B JUMPI PUSH32 0x4E487B7100000000000000000000000000000000000000000000000000000000 PUSH1 0x0 MSTORE PUSH1 0x21 PUSH1 0x4 MSTORE PUSH1 0x24 PUSH1 0x0 REVERT JUMPDEST MUL OR SWAP1 SSTORE POP JUMP JUMPDEST PUSH1 0xC SLOAD DUP2 JUMP JUMPDEST PUSH2 0x3B1 DUP2 PUSH2 0x51B JUMP JUMPDEST DUP3 MSTORE POP POP JUMP JUMPDEST PUSH2 0x3C0 DUP2 PUSH2 0x52D JUMP JUMPDEST DUP3 MSTORE POP POP JUMP JUMPDEST PUSH2 0x3CF DUP2 PUSH2 0x539 JUMP JUMPDEST DUP3 MSTORE POP POP JUMP JUMPDEST PUSH2 0x3DE DUP2 PUSH2 0x565 JUMP JUMPDEST DUP3 MSTORE POP POP JUMP JUMPDEST PUSH2 0x3ED DUP2 PUSH2 0x56F JUMP JUMPDEST DUP3 MSTORE POP POP JUMP JUMPDEST PUSH1 0x0 PUSH2 0x3FE DUP3 PUSH2 0x4FF JUMP JUMPDEST PUSH2 0x408 DUP2 DUP6 PUSH2 0x50A JUMP JUMPDEST SWAP4 POP PUSH2 0x418 DUP2 DUP6 PUSH1 0x20 DUP7 ADD PUSH2 0x5A9 JUMP JUMPDEST PUSH2 0x421 DUP2 PUSH2 0x63D JUMP JUMPDEST DUP5 ADD SWAP2 POP POP SWAP3 SWAP2 POP POP JUMP JUMPDEST PUSH2 0x435 DUP2 PUSH2 0x59C JUMP JUMPDEST DUP3 MSTORE POP POP JUMP JUMPDEST PUSH1 0x0 PUSH1 0x20 DUP3 ADD SWAP1 POP PUSH2 0x450 PUSH1 0x0 DUP4 ADD DUP5 PUSH2 0x3A8 JUMP JUMPDEST SWAP3 SWAP2 POP POP JUMP JUMPDEST PUSH1 0x0 PUSH1 0x20 DUP3 ADD SWAP1 POP PUSH2 0x46B PUSH1 0x0 DUP4 ADD DUP5 PUSH2 0x3B7 JUMP JUMPDEST SWAP3 SWAP2 POP POP JUMP JUMPDEST PUSH1 0x0 PUSH1 0x20 DUP3 ADD SWAP1 POP PUSH2 0x486 PUSH1 0x0 DUP4 ADD DUP5 PUSH2 0x3C6 JUMP JUMPDEST SWAP3 SWAP2 POP POP JUMP JUMPDEST PUSH1 0x0 PUSH1 0x20 DUP3 ADD SWAP1 POP PUSH2 0x4A1 PUSH1 0x0 DUP4 ADD DUP5 PUSH2 0x3D5 JUMP JUMPDEST SWAP3 SWAP2 POP POP JUMP JUMPDEST PUSH1 0x0 PUSH1 0x20 DUP3 ADD SWAP1 POP PUSH2 0x4BC PUSH1 0x0 DUP4 ADD DUP5 PUSH2 0x3E4 JUMP JUMPDEST SWAP3 SWAP2 POP POP JUMP JUMPDEST PUSH1 0x0 PUSH1 0x20 DUP3 ADD SWAP1 POP DUP2 DUP2 SUB PUSH1 0x0 DUP4 ADD MSTORE PUSH2 0x4DC DUP2 DUP5 PUSH2 0x3F3 JUMP JUMPDEST SWAP1 POP SWAP3 SWAP2 POP POP JUMP JUMPDEST PUSH1 0x0 PUSH1 0x20 DUP3 ADD SWAP1 POP PUSH2 0x4F9 PUSH1 0x0 DUP4 ADD DUP5 PUSH2 0x42C JUMP JUMPDEST SWAP3 SWAP2 POP POP JUMP JUMPDEST PUSH1 0x0 DUP2 MLOAD SWAP1 POP SWAP2 SWAP1 POP JUMP JUMPDEST PUSH1 0x0 DUP3 DUP3 MSTORE PUSH1 0x20 DUP3 ADD SWAP1 POP SWAP3 SWAP2 POP POP JUMP JUMPDEST PUSH1 0x0 PUSH2 0x526 DUP3 PUSH2 0x57C JUMP JUMPDEST SWAP1 POP SWAP2 SWAP1 POP JUMP JUMPDEST PUSH1 0x0 DUP2 ISZERO ISZERO SWAP1 POP SWAP2 SWAP1 POP JUMP JUMPDEST PUSH1 0x0 PUSH32 0xFFFFFFFFFFFFFFFFFFFFFFFFFFFFFFFFFFFFFFFF000000000000000000000000 DUP3 AND SWAP1 POP SWAP2 SWAP1 POP JUMP JUMPDEST PUSH1 0x0 DUP2 SWAP1 POP SWAP2 SWAP1 POP JUMP JUMPDEST PUSH1 0x0 DUP2 PUSH1 0x0 SIGNEXTEND SWAP1 POP SWAP2 SWAP1 POP JUMP JUMPDEST PUSH1 0x0 PUSH20 0xFFFFFFFFFFFFFFFFFFFFFFFFFFFFFFFFFFFFFFFF DUP3 AND SWAP1 POP SWAP2 SWAP1 POP JUMP JUMPDEST PUSH1 0x0 PUSH1 0xFF DUP3 AND SWAP1 POP SWAP2 SWAP1 POP JUMP JUMPDEST PUSH1 0x0 JUMPDEST DUP4 DUP2 LT ISZERO PUSH2 0x5C7 JUMPI DUP1 DUP3 ADD MLOAD DUP2 DUP5 ADD MSTORE PUSH1 0x20 DUP2 ADD SWAP1 POP PUSH2 0x5AC JUMP JUMPDEST DUP4 DUP2 GT ISZERO PUSH2 0x5D6 JUMPI PUSH1 0x0 DUP5 DUP5 ADD MSTORE JUMPDEST POP POP POP POP JUMP JUMPDEST PUSH1 0x0 PUSH1 0x2 DUP3 DIV SWAP1 POP PUSH1 0x1 DUP3 AND DUP1 PUSH2 0x5F4 JUMPI PUSH1 0x7F DUP3 AND SWAP2 POP JUMPDEST PUSH1 0x20 DUP3 LT DUP2 EQ ISZERO PUSH2 0x608 JUMPI PUSH2 0x607 PUSH2 0x60E JUMP JUMPDEST JUMPDEST POP SWAP2 SWAP1 POP JUMP JUMPDEST PUSH32 0x4E487B7100000000000000000000000000000000000000000000000000000000 PUSH1 0x0 MSTORE PUSH1 0x22 PUSH1 0x4 MSTORE PUSH1 0x24 PUSH1 0x0 REVERT JUMPDEST PUSH1 0x0 PUSH1 0x1F NOT PUSH1 0x1F DUP4 ADD AND SWAP1 POP SWAP2 SWAP1 POP JUMP INVALID LOG2 PUSH5 0x6970667358 0x22 SLT KECCAK256 PUSH3 0x9F5960 DUP10 0xDD DUP12 0xD2 TIMESTAMP 0xCE REVERT 0xE0 INVALID SELFDESTRUCT 0xBD PUSH5 0xA93F456A67 0xE2 0x5F 0xBD 0x4B 0x27 DELEGATECALL 0xBE 0x4D PUSH16 0x4B1D64736F6C63430008040033000000 "
				},
				"gasEstimates": {
					"creation": {
						"codeDepositCost": "333600",
						"executionCost": "infinite",
						"totalCost": "infinite"
					},
					"external": {
						"address1()": "1259",
						"address2()": "1236",
						"b()": "1238",
						"boolean_true()": "1244",
						"d()": "1175",
						"hashing_keccak256()": "1130",
						"hashing_ripemd160()": "1260",
						"hashing_sha256()": "1239",
						"str_public()": "infinite",
						"turnOff()": "21125",
						"turnOn()": "21169"
					}
				},
				"methodIdentifiers": {
					"address1()": "3a36399e",
					"address2()": "9eea4a3a",
					"b()": "4df7e3d0",
					"boolean_true()": "312eef29",
					"d()": "8a054ac2",
					"hashing_keccak256()": "2b73648d",
					"hashing_ripemd160()": "7a68ef7f",
					"hashing_sha256()": "c7109d04",
					"str_public()": "b83d07b7",
					"turnOff()": "af10c810",
					"turnOn()": "ba33ed7d"
				}
			},
			"storageLayout": {
				"storage": [
					{
						"astId": 3,
						"contract": "contracts/2_variables_modificadores.sol:variables_modifiers",
						"label": "a",
						"offset": 0,
						"slot": "0",
						"type": "t_uint256"
					},
					{
						"astId": 6,
						"contract": "contracts/2_variables_modificadores.sol:variables_modifiers",
						"label": "b",
						"offset": 0,
						"slot": "1",
						"type": "t_uint8"
					},
					{
						"astId": 8,
						"contract": "contracts/2_variables_modificadores.sol:variables_modifiers",
						"label": "c",
						"offset": 0,
						"slot": "2",
						"type": "t_int256"
					},
					{
						"astId": 12,
						"contract": "contracts/2_variables_modificadores.sol:variables_modifiers",
						"label": "d",
						"offset": 0,
						"slot": "3",
						"type": "t_int8"
					},
					{
						"astId": 15,
						"contract": "contracts/2_variables_modificadores.sol:variables_modifiers",
						"label": "e",
						"offset": 0,
						"slot": "4",
						"type": "t_int256"
					},
					{
						"astId": 17,
						"contract": "contracts/2_variables_modificadores.sol:variables_modifiers",
						"label": "str",
						"offset": 0,
						"slot": "5",
						"type": "t_string_storage"
					},
					{
						"astId": 20,
						"contract": "contracts/2_variables_modificadores.sol:variables_modifiers",
						"label": "str_public",
						"offset": 0,
						"slot": "6",
						"type": "t_string_storage"
					},
					{
						"astId": 23,
						"contract": "contracts/2_variables_modificadores.sol:variables_modifiers",
						"label": "str_private",
						"offset": 0,
						"slot": "7",
						"type": "t_string_storage"
					},
					{
						"astId": 25,
						"contract": "contracts/2_variables_modificadores.sol:variables_modifiers",
						"label": "boolean",
						"offset": 0,
						"slot": "8",
						"type": "t_bool"
					},
					{
						"astId": 28,
						"contract": "contracts/2_variables_modificadores.sol:variables_modifiers",
						"label": "boolean_true",
						"offset": 1,
						"slot": "8",
						"type": "t_bool"
					},
					{
						"astId": 31,
						"contract": "contracts/2_variables_modificadores.sol:variables_modifiers",
						"label": "boolean_false",
						"offset": 2,
						"slot": "8",
						"type": "t_bool"
					},
					{
						"astId": 33,
						"contract": "contracts/2_variables_modificadores.sol:variables_modifiers",
						"label": "first_bytes",
						"offset": 0,
						"slot": "9",
						"type": "t_bytes32"
					},
					{
						"astId": 35,
						"contract": "contracts/2_variables_modificadores.sol:variables_modifiers",
						"label": "second_bytes",
						"offset": 0,
						"slot": "10",
						"type": "t_bytes4"
					},
					{
						"astId": 37,
						"contract": "contracts/2_variables_modificadores.sol:variables_modifiers",
						"label": "bytes_1",
						"offset": 4,
						"slot": "10",
						"type": "t_bytes1"
					},
					{
						"astId": 51,
						"contract": "contracts/2_variables_modificadores.sol:variables_modifiers",
						"label": "hashing_keccak256",
						"offset": 0,
						"slot": "11",
						"type": "t_bytes32"
					},
					{
						"astId": 59,
						"contract": "contracts/2_variables_modificadores.sol:variables_modifiers",
						"label": "hashing_sha256",
						"offset": 0,
						"slot": "12",
						"type": "t_bytes32"
					},
					{
						"astId": 67,
						"contract": "contracts/2_variables_modificadores.sol:variables_modifiers",
						"label": "hashing_ripemd160",
						"offset": 0,
						"slot": "13",
						"type": "t_bytes20"
					},
					{
						"astId": 69,
						"contract": "contracts/2_variables_modificadores.sol:variables_modifiers",
						"label": "my_address",
						"offset": 0,
						"slot": "14",
						"type": "t_address"
					},
					{
						"astId": 72,
						"contract": "contracts/2_variables_modificadores.sol:variables_modifiers",
						"label": "address1",
						"offset": 0,
						"slot": "15",
						"type": "t_address"
					},
					{
						"astId": 76,
						"contract": "contracts/2_variables_modificadores.sol:variables_modifiers",
						"label": "address2",
						"offset": 0,
						"slot": "16",
						"type": "t_address"
					},
					{
						"astId": 82,
						"contract": "contracts/2_variables_modificadores.sol:variables_modifiers",
						"label": "state",
						"offset": 20,
						"slot": "16",
						"type": "t_enum(options)79"
					}
				],
				"types": {
					"t_address": {
						"encoding": "inplace",
						"label": "address",
						"numberOfBytes": "20"
					},
					"t_bool": {
						"encoding": "inplace",
						"label": "bool",
						"numberOfBytes": "1"
					},
					"t_bytes1": {
						"encoding": "inplace",
						"label": "bytes1",
						"numberOfBytes": "1"
					},
					"t_bytes20": {
						"encoding": "inplace",
						"label": "bytes20",
						"numberOfBytes": "20"
					},
					"t_bytes32": {
						"encoding": "inplace",
						"label": "bytes32",
						"numberOfBytes": "32"
					},
					"t_bytes4": {
						"encoding": "inplace",
						"label": "bytes4",
						"numberOfBytes": "4"
					},
					"t_enum(options)79": {
						"encoding": "inplace",
						"label": "enum variables_modifiers.options",
						"numberOfBytes": "1"
					},
					"t_int256": {
						"encoding": "inplace",
						"label": "int256",
						"numberOfBytes": "32"
					},
					"t_int8": {
						"encoding": "inplace",
						"label": "int8",
						"numberOfBytes": "1"
					},
					"t_string_storage": {
						"encoding": "bytes",
						"label": "string",
						"numberOfBytes": "32"
					},
					"t_uint256": {
						"encoding": "inplace",
						"label": "uint256",
						"numberOfBytes": "32"
					},
					"t_uint8": {
						"encoding": "inplace",
						"label": "uint8",
						"numberOfBytes": "1"
					}
				}
			},
			"userdoc": {
				"kind": "user",
				"methods": {},
				"version": 1
			}
		}
	}
}