{
	"data": {
		"bytecode": {
			"linkReferences": {},
			"object": "6080604052674563918244f4000060085534801561001b575f80fd5b506040516140ba3803806140ba833981810160405281019061003d919061029a565b8181815f908161004d919061051d565b50806001908161005d919061051d565b50505061007c61007161008360201b60201c565b61008a60201b60201c565b50506105ec565b5f33905090565b5f60065f9054906101000a900473ffffffffffffffffffffffffffffffffffffffff1690508160065f6101000a81548173ffffffffffffffffffffffffffffffffffffffff021916908373ffffffffffffffffffffffffffffffffffffffff1602179055508173ffffffffffffffffffffffffffffffffffffffff168173ffffffffffffffffffffffffffffffffffffffff167f8be0079c531659141344cd1fd0a4f28419497f9722a3daafe3b4186f6b6457e060405160405180910390a35050565b5f604051905090565b5f80fd5b5f80fd5b5f80fd5b5f80fd5b5f601f19601f8301169050919050565b7f4e487b71000000000000000000000000000000000000000000000000000000005f52604160045260245ffd5b6101ac82610166565b810181811067ffffffffffffffff821117156101cb576101ca610176565b5b80604052505050565b5f6101dd61014d565b90506101e982826101a3565b919050565b5f67ffffffffffffffff82111561020857610207610176565b5b61021182610166565b9050602081019050919050565b8281835e5f83830152505050565b5f61023e610239846101ee565b6101d4565b90508281526020810184848401111561025a57610259610162565b5b61026584828561021e565b509392505050565b5f82601f8301126102815761028061015e565b5b815161029184826020860161022c565b91505092915050565b5f80604083850312156102b0576102af610156565b5b5f83015167ffffffffffffffff8111156102cd576102cc61015a565b5b6102d98582860161026d565b925050602083015167ffffffffffffffff8111156102fa576102f961015a565b5b6103068582860161026d565b9150509250929050565b5f81519050919050565b7f4e487b71000000000000000000000000000000000000000000000000000000005f52602260045260245ffd5b5f600282049050600182168061035e57607f821691505b6020821081036103715761037061031a565b5b50919050565b5f819050815f5260205f209050919050565b5f6020601f8301049050919050565b5f82821b905092915050565b5f600883026103d37fffffffffffffffffffffffffffffffffffffffffffffffffffffffffffffffff82610398565b6103dd8683610398565b95508019841693508086168417925050509392505050565b5f819050919050565b5f819050919050565b5f61042161041c610417846103f5565b6103fe565b6103f5565b9050919050565b5f819050919050565b61043a83610407565b61044e61044682610428565b8484546103a4565b825550505050565b5f90565b610462610456565b61046d818484610431565b505050565b5b81811015610490576104855f8261045a565b600181019050610473565b5050565b601f8211156104d5576104a681610377565b6104af84610389565b810160208510156104be578190505b6104d26104ca85610389565b830182610472565b50505b505050565b5f82821c905092915050565b5f6104f55f19846008026104da565b1980831691505092915050565b5f61050d83836104e6565b9150826002028217905092915050565b61052682610310565b67ffffffffffffffff81111561053f5761053e610176565b5b6105498254610347565b610554828285610494565b5f60209050601f831160018114610585575f8415610573578287015190505b61057d8582610502565b8655506105e4565b601f19841661059386610377565b5f5b828110156105ba57848901518255600182019150602085019450602081019050610595565b868310156105d757848901516105d3601f8916826104e6565b8355505b6001600288020188555050505b505050505050565b613ac1806105f95f395ff3fe608060405260043610610165575f3560e01c80636352211e116100d05780639b6c354e11610089578063c87b56dd11610063578063c87b56dd146104fc578063ddca3f4314610538578063e985e9c514610562578063f2fde38b1461059e57610165565b80639b6c354e14610481578063a22cb465146104ac578063b88d4fde146104d457610165565b80636352211e1461037757806370a08231146103b3578063715018a6146103ef5780638da5cb5b146104055780639012c4a81461042f57806395d89b411461045757610165565b8063125c4b2b11610122578063125c4b2b1461029b57806323b872dd146102d75780632f2670c3146102ff578063382d04121461031b5780633ccfd60b1461034557806342842e0e1461034f57610165565b806301ffc9a7146101695780630667fac3146101a557806306fdde03146101e5578063081812fc1461020f578063095ea7b31461024b5780630ce90ec214610273575b5f80fd5b348015610174575f80fd5b5061018f600480360381019061018a919061239b565b6105c6565b60405161019c91906123e0565b60405180910390f35b3480156101b0575f80fd5b506101cb60048036038101906101c6919061242c565b6106a7565b6040516101dc9594939291906124f1565b60405180910390f35b3480156101f0575f80fd5b506101f9610787565b6040516102069190612549565b60405180910390f35b34801561021a575f80fd5b506102356004803603810190610230919061242c565b610816565b60405161024291906125a8565b60405180910390f35b348015610256575f80fd5b50610271600480360381019061026c91906125eb565b610897565b005b34801561027e575f80fd5b506102996004803603810190610294919061242c565b6109ad565b005b3480156102a6575f80fd5b506102c160048036038101906102bc9190612629565b610a4c565b6040516102ce91906127e8565b60405180910390f35b3480156102e2575f80fd5b506102fd60048036038101906102f89190612808565b610c44565b005b61031960048036038101906103149190612984565b610ca4565b005b348015610326575f80fd5b5061032f610cbe565b60405161033c91906127e8565b60405180910390f35b61034d610df6565b005b34801561035a575f80fd5b5061037560048036038101906103709190612808565b610ec4565b005b348015610382575f80fd5b5061039d6004803603810190610398919061242c565b610ee3565b6040516103aa91906125a8565b60405180910390f35b3480156103be575f80fd5b506103d960048036038101906103d49190612629565b610f8f565b6040516103e691906129cb565b60405180910390f35b3480156103fa575f80fd5b50610403611043565b005b348015610410575f80fd5b506104196110ca565b60405161042691906125a8565b60405180910390f35b34801561043a575f80fd5b506104556004803603810190610450919061242c565b6110f2565b005b348015610462575f80fd5b5061046b611178565b6040516104789190612549565b60405180910390f35b34801561048c575f80fd5b50610495611208565b6040516104a39291906129e4565b60405180910390f35b3480156104b7575f80fd5b506104d260048036038101906104cd9190612a35565b611231565b005b3480156104df575f80fd5b506104fa60048036038101906104f59190612b11565b611247565b005b348015610507575f80fd5b50610522600480360381019061051d919061242c565b6112a9565b60405161052f9190612549565b60405180910390f35b348015610543575f80fd5b5061054c61134d565b60405161055991906129cb565b60405180910390f35b34801561056d575f80fd5b5061058860048036038101906105839190612b91565b611353565b60405161059591906123e0565b60405180910390f35b3480156105a9575f80fd5b506105c460048036038101906105bf9190612629565b6113e1565b005b5f7f80ac58cd000000000000000000000000000000000000000000000000000000007bffffffffffffffffffffffffffffffffffffffffffffffffffffffff1916827bffffffffffffffffffffffffffffffffffffffffffffffffffffffff1916148061069057507f5b5e139f000000000000000000000000000000000000000000000000000000007bffffffffffffffffffffffffffffffffffffffffffffffffffffffff1916827bffffffffffffffffffffffffffffffffffffffffffffffffffffffff1916145b806106a0575061069f826114d7565b5b9050919050565b600981815481106106b6575f80fd5b905f5260205f2090600402015f91509050805f0180546106d590612bfc565b80601f016020809104026020016040519081016040528092919081815260200182805461070190612bfc565b801561074c5780601f106107235761010080835404028352916020019161074c565b820191905f5260205f20905b81548152906001019060200180831161072f57829003601f168201915b505050505090806001015490806002015490806003015f9054906101000a900460ff16908060030160019054906101000a900460ff16905085565b60605f805461079590612bfc565b80601f01602080910402602001604051908101604052809291908181526020018280546107c190612bfc565b801561080c5780601f106107e35761010080835404028352916020019161080c565b820191905f5260205f20905b8154815290600101906020018083116107ef57829003601f168201915b5050505050905090565b5f61082082611540565b61085f576040517f08c379a000000000000000000000000000000000000000000000000000000000815260040161085690612c9c565b60405180910390fd5b60045f8381526020019081526020015f205f9054906101000a900473ffffffffffffffffffffffffffffffffffffffff169050919050565b5f6108a182610ee3565b90508073ffffffffffffffffffffffffffffffffffffffff168373ffffffffffffffffffffffffffffffffffffffff1603610911576040517f08c379a000000000000000000000000000000000000000000000000000000000815260040161090890612d2a565b60405180910390fd5b8073ffffffffffffffffffffffffffffffffffffffff166109306115a8565b73ffffffffffffffffffffffffffffffffffffffff16148061095f575061095e816109596115a8565b611353565b5b61099e576040517f08c379a000000000000000000000000000000000000000000000000000000000815260040161099590612db8565b60405180910390fd5b6109a883836115af565b505050565b3373ffffffffffffffffffffffffffffffffffffffff166109cd82610ee3565b73ffffffffffffffffffffffffffffffffffffffff16146109ec575f80fd5b5f60098281548110610a0157610a00612dd6565b5b905f5260205f2090600402019050806003015f81819054906101000a900460ff1680929190610a2f90612e30565b91906101000a81548160ff021916908360ff160217905550505050565b60605f610a5883610f8f565b67ffffffffffffffff811115610a7157610a70612860565b5b604051908082528060200260200182016040528015610aaa57816020015b610a97612304565b815260200190600190039081610a8f5790505b5090505f805b600980549050811015610c39578473ffffffffffffffffffffffffffffffffffffffff16610add82610ee3565b73ffffffffffffffffffffffffffffffffffffffff1603610c2c5760098181548110610b0c57610b0b612dd6565b5b905f5260205f2090600402016040518060a00160405290815f82018054610b3290612bfc565b80601f0160208091040260200160405190810160405280929190818152602001828054610b5e90612bfc565b8015610ba95780601f10610b8057610100808354040283529160200191610ba9565b820191905f5260205f20905b815481529060010190602001808311610b8c57829003601f168201915b505050505081526020016001820154815260200160028201548152602001600382015f9054906101000a900460ff1660ff1660ff1681526020016003820160019054906101000a900460ff1660ff1660ff1681525050838381518110610c1257610c11612dd6565b5b60200260200101819052508180610c2890612e58565b9250505b8080600101915050610ab0565b508192505050919050565b610c55610c4f6115a8565b82611665565b610c94576040517f08c379a0000000000000000000000000000000000000000000000000000000008152600401610c8b90612f0f565b60405180910390fd5b610c9f838383611741565b505050565b600854341015610cb2575f80fd5b610cbb81611991565b50565b60606009805480602002602001604051908101604052809291908181526020015f905b82821015610ded578382905f5260205f2090600402016040518060a00160405290815f82018054610d1190612bfc565b80601f0160208091040260200160405190810160405280929190818152602001828054610d3d90612bfc565b8015610d885780601f10610d5f57610100808354040283529160200191610d88565b820191905f5260205f20905b815481529060010190602001808311610d6b57829003601f168201915b505050505081526020016001820154815260200160028201548152602001600382015f9054906101000a900460ff1660ff1660ff1681526020016003820160019054906101000a900460ff1660ff1660ff168152505081526020019060010190610ce1565b50505050905090565b610dfe6115a8565b73ffffffffffffffffffffffffffffffffffffffff16610e1c6110ca565b73ffffffffffffffffffffffffffffffffffffffff1614610e72576040517f08c379a0000000000000000000000000000000000000000000000000000000008152600401610e6990612f77565b60405180910390fd5b5f610e7b6110ca565b90508073ffffffffffffffffffffffffffffffffffffffff166108fc4790811502906040515f60405180830381858888f19350505050158015610ec0573d5f803e3d5ffd5b5050565b610ede83838360405180602001604052805f815250611247565b505050565b5f8060025f8481526020019081526020015f205f9054906101000a900473ffffffffffffffffffffffffffffffffffffffff1690505f73ffffffffffffffffffffffffffffffffffffffff168173ffffffffffffffffffffffffffffffffffffffff1603610f86576040517f08c379a0000000000000000000000000000000000000000000000000000000008152600401610f7d90613005565b60405180910390fd5b80915050919050565b5f8073ffffffffffffffffffffffffffffffffffffffff168273ffffffffffffffffffffffffffffffffffffffff1603610ffe576040517f08c379a0000000000000000000000000000000000000000000000000000000008152600401610ff590613093565b60405180910390fd5b60035f8373ffffffffffffffffffffffffffffffffffffffff1673ffffffffffffffffffffffffffffffffffffffff1681526020019081526020015f20549050919050565b61104b6115a8565b73ffffffffffffffffffffffffffffffffffffffff166110696110ca565b73ffffffffffffffffffffffffffffffffffffffff16146110bf576040517f08c379a00000000000000000000000000000000000000000000000000000000081526004016110b690612f77565b60405180910390fd5b6110c85f611af4565b565b5f60065f9054906101000a900473ffffffffffffffffffffffffffffffffffffffff16905090565b6110fa6115a8565b73ffffffffffffffffffffffffffffffffffffffff166111186110ca565b73ffffffffffffffffffffffffffffffffffffffff161461116e576040517f08c379a000000000000000000000000000000000000000000000000000000000815260040161116590612f77565b60405180910390fd5b8060088190555050565b60606001805461118790612bfc565b80601f01602080910402602001604051908101604052809291908181526020018280546111b390612bfc565b80156111fe5780601f106111d5576101008083540402835291602001916111fe565b820191905f5260205f20905b8154815290600101906020018083116111e157829003601f168201915b5050505050905090565b5f805f3090505f670de0b6b3a76400004761122391906130de565b905081819350935050509091565b61124361123c6115a8565b8383611bb7565b5050565b6112586112526115a8565b83611665565b611297576040517f08c379a000000000000000000000000000000000000000000000000000000000815260040161128e90612f0f565b60405180910390fd5b6112a384848484611d1e565b50505050565b60606112b482611540565b6112f3576040517f08c379a00000000000000000000000000000000000000000000000000000000081526004016112ea9061317e565b60405180910390fd5b5f6112fc611d7a565b90505f81511161131a5760405180602001604052805f815250611345565b8061132484611d90565b6040516020016113359291906131d6565b6040516020818303038152906040525b915050919050565b60085481565b5f60055f8473ffffffffffffffffffffffffffffffffffffffff1673ffffffffffffffffffffffffffffffffffffffff1681526020019081526020015f205f8373ffffffffffffffffffffffffffffffffffffffff1673ffffffffffffffffffffffffffffffffffffffff1681526020019081526020015f205f9054906101000a900460ff16905092915050565b6113e96115a8565b73ffffffffffffffffffffffffffffffffffffffff166114076110ca565b73ffffffffffffffffffffffffffffffffffffffff161461145d576040517f08c379a000000000000000000000000000000000000000000000000000000000815260040161145490612f77565b60405180910390fd5b5f73ffffffffffffffffffffffffffffffffffffffff168173ffffffffffffffffffffffffffffffffffffffff16036114cb576040517f08c379a00000000000000000000000000000000000000000000000000000000081526004016114c290613269565b60405180910390fd5b6114d481611af4565b50565b5f7f01ffc9a7000000000000000000000000000000000000000000000000000000007bffffffffffffffffffffffffffffffffffffffffffffffffffffffff1916827bffffffffffffffffffffffffffffffffffffffffffffffffffffffff1916149050919050565b5f8073ffffffffffffffffffffffffffffffffffffffff1660025f8481526020019081526020015f205f9054906101000a900473ffffffffffffffffffffffffffffffffffffffff1673ffffffffffffffffffffffffffffffffffffffff1614159050919050565b5f33905090565b8160045f8381526020019081526020015f205f6101000a81548173ffffffffffffffffffffffffffffffffffffffff021916908373ffffffffffffffffffffffffffffffffffffffff160217905550808273ffffffffffffffffffffffffffffffffffffffff1661161f83610ee3565b73ffffffffffffffffffffffffffffffffffffffff167f8c5be1e5ebec7d5bd14f71427d1e84f3dd0314c0f7b2291e5b200ac8c7c3b92560405160405180910390a45050565b5f61166f82611540565b6116ae576040517f08c379a00000000000000000000000000000000000000000000000000000000081526004016116a5906132f7565b60405180910390fd5b5f6116b883610ee3565b90508073ffffffffffffffffffffffffffffffffffffffff168473ffffffffffffffffffffffffffffffffffffffff16148061172757508373ffffffffffffffffffffffffffffffffffffffff1661170f84610816565b73ffffffffffffffffffffffffffffffffffffffff16145b8061173857506117378185611353565b5b91505092915050565b8273ffffffffffffffffffffffffffffffffffffffff1661176182610ee3565b73ffffffffffffffffffffffffffffffffffffffff16146117b7576040517f08c379a00000000000000000000000000000000000000000000000000000000081526004016117ae90613385565b60405180910390fd5b5f73ffffffffffffffffffffffffffffffffffffffff168273ffffffffffffffffffffffffffffffffffffffff1603611825576040517f08c379a000000000000000000000000000000000000000000000000000000000815260040161181c90613413565b60405180910390fd5b611830838383611ee9565b61183a5f826115af565b600160035f8573ffffffffffffffffffffffffffffffffffffffff1673ffffffffffffffffffffffffffffffffffffffff1681526020019081526020015f205f8282546118879190613431565b92505081905550600160035f8473ffffffffffffffffffffffffffffffffffffffff1673ffffffffffffffffffffffffffffffffffffffff1681526020019081526020015f205f8282546118db9190613464565b925050819055508160025f8381526020019081526020015f205f6101000a81548173ffffffffffffffffffffffffffffffffffffffff021916908373ffffffffffffffffffffffffffffffffffffffff160217905550808273ffffffffffffffffffffffffffffffffffffffff168473ffffffffffffffffffffffffffffffffffffffff167fddf252ad1be2c89b69c2b068fc378daa952ba7f163c4a11628f55a4df523b3ef60405160405180910390a4505050565b5f61199d6103e8611eee565b90505f6119b0662386f26fc10000611eee565b90505f6040518060a001604052808581526020016007548152602001838152602001600160ff1681526020018460ff168152509050600981908060018154018082558091505060019003905f5260205f2090600402015f909190919091505f820151815f019081611a219190613634565b5060208201518160010155604082015181600201556060820151816003015f6101000a81548160ff021916908360ff16021790555060808201518160030160016101000a81548160ff021916908360ff1602179055505050611a8533600754611f36565b3373ffffffffffffffffffffffffffffffffffffffff167fe6c61928f551ceab96529f7f8e907a65bad987be27d94f9f8b77238bd4335b0660075484604051611acf929190613703565b60405180910390a260075f815480929190611ae990612e58565b919050555050505050565b5f60065f9054906101000a900473ffffffffffffffffffffffffffffffffffffffff1690508160065f6101000a81548173ffffffffffffffffffffffffffffffffffffffff021916908373ffffffffffffffffffffffffffffffffffffffff1602179055508173ffffffffffffffffffffffffffffffffffffffff168173ffffffffffffffffffffffffffffffffffffffff167f8be0079c531659141344cd1fd0a4f28419497f9722a3daafe3b4186f6b6457e060405160405180910390a35050565b8173ffffffffffffffffffffffffffffffffffffffff168373ffffffffffffffffffffffffffffffffffffffff1603611c25576040517f08c379a0000000000000000000000000000000000000000000000000000000008152600401611c1c90613774565b60405180910390fd5b8060055f8573ffffffffffffffffffffffffffffffffffffffff1673ffffffffffffffffffffffffffffffffffffffff1681526020019081526020015f205f8473ffffffffffffffffffffffffffffffffffffffff1673ffffffffffffffffffffffffffffffffffffffff1681526020019081526020015f205f6101000a81548160ff0219169083151502179055508173ffffffffffffffffffffffffffffffffffffffff168373ffffffffffffffffffffffffffffffffffffffff167f17307eab39ab6107e8899845ad3d59bd9653f200f220920489ca2b5937696c3183604051611d1191906123e0565b60405180910390a3505050565b611d29848484611741565b611d3584848484611f53565b611d74576040517f08c379a0000000000000000000000000000000000000000000000000000000008152600401611d6b90613802565b60405180910390fd5b50505050565b606060405180602001604052805f815250905090565b60605f8203611dd6576040518060400160405280600181526020017f30000000000000000000000000000000000000000000000000000000000000008152509050611ee4565b5f8290505f5b5f8214611e05578080611dee90612e58565b915050600a82611dfe91906130de565b9150611ddc565b5f8167ffffffffffffffff811115611e2057611e1f612860565b5b6040519080825280601f01601f191660200182016040528015611e525781602001600182028036833780820191505090505b5090505b5f8514611edd57600182611e6a9190613431565b9150600a85611e799190613820565b6030611e859190613464565b60f81b818381518110611e9b57611e9a612dd6565b5b60200101907effffffffffffffffffffffffffffffffffffffffffffffffffffffffffffff191690815f1a905350600a85611ed691906130de565b9450611e56565b8093505050505b919050565b505050565b5f804233604051602001611f039291906138b5565b6040516020818303038152906040528051906020012090505f815f1c90508381611f2d9190613820565b92505050919050565b611f4f828260405180602001604052805f8152506120d5565b5050565b5f611f738473ffffffffffffffffffffffffffffffffffffffff1661212f565b156120c8578373ffffffffffffffffffffffffffffffffffffffff1663150b7a02611f9c6115a8565b8786866040518563ffffffff1660e01b8152600401611fbe9493929190613932565b6020604051808303815f875af1925050508015611ff957506040513d601f19601f82011682018060405250810190611ff69190613990565b60015b612078573d805f8114612027576040519150601f19603f3d011682016040523d82523d5f602084013e61202c565b606091505b505f815103612070576040517f08c379a000000000000000000000000000000000000000000000000000000000815260040161206790613802565b60405180910390fd5b805181602001fd5b63150b7a0260e01b7bffffffffffffffffffffffffffffffffffffffffffffffffffffffff1916817bffffffffffffffffffffffffffffffffffffffffffffffffffffffff1916149150506120cd565b600190505b949350505050565b6120df8383612140565b6120eb5f848484611f53565b61212a576040517f08c379a000000000000000000000000000000000000000000000000000000000815260040161212190613802565b60405180910390fd5b505050565b5f80823b90505f8111915050919050565b5f73ffffffffffffffffffffffffffffffffffffffff168273ffffffffffffffffffffffffffffffffffffffff16036121ae576040517f08c379a00000000000000000000000000000000000000000000000000000000081526004016121a590613a05565b60405180910390fd5b6121b781611540565b156121f7576040517f08c379a00000000000000000000000000000000000000000000000000000000081526004016121ee90613a6d565b60405180910390fd5b6122025f8383611ee9565b600160035f8473ffffffffffffffffffffffffffffffffffffffff1673ffffffffffffffffffffffffffffffffffffffff1681526020019081526020015f205f82825461224f9190613464565b925050819055508160025f8381526020019081526020015f205f6101000a81548173ffffffffffffffffffffffffffffffffffffffff021916908373ffffffffffffffffffffffffffffffffffffffff160217905550808273ffffffffffffffffffffffffffffffffffffffff165f73ffffffffffffffffffffffffffffffffffffffff167fddf252ad1be2c89b69c2b068fc378daa952ba7f163c4a11628f55a4df523b3ef60405160405180910390a45050565b6040518060a00160405280606081526020015f81526020015f81526020015f60ff1681526020015f60ff1681525090565b5f604051905090565b5f80fd5b5f80fd5b5f7fffffffff0000000000000000000000000000000000000000000000000000000082169050919050565b61237a81612346565b8114612384575f80fd5b50565b5f8135905061239581612371565b92915050565b5f602082840312156123b0576123af61233e565b5b5f6123bd84828501612387565b91505092915050565b5f8115159050919050565b6123da816123c6565b82525050565b5f6020820190506123f35f8301846123d1565b92915050565b5f819050919050565b61240b816123f9565b8114612415575f80fd5b50565b5f8135905061242681612402565b92915050565b5f602082840312156124415761244061233e565b5b5f61244e84828501612418565b91505092915050565b5f81519050919050565b5f82825260208201905092915050565b8281835e5f83830152505050565b5f601f19601f8301169050919050565b5f61249982612457565b6124a38185612461565b93506124b3818560208601612471565b6124bc8161247f565b840191505092915050565b6124d0816123f9565b82525050565b5f60ff82169050919050565b6124eb816124d6565b82525050565b5f60a0820190508181035f830152612509818861248f565b905061251860208301876124c7565b61252560408301866124c7565b61253260608301856124e2565b61253f60808301846124e2565b9695505050505050565b5f6020820190508181035f830152612561818461248f565b905092915050565b5f73ffffffffffffffffffffffffffffffffffffffff82169050919050565b5f61259282612569565b9050919050565b6125a281612588565b82525050565b5f6020820190506125bb5f830184612599565b92915050565b6125ca81612588565b81146125d4575f80fd5b50565b5f813590506125e5816125c1565b92915050565b5f80604083850312156126015761260061233e565b5b5f61260e858286016125d7565b925050602061261f85828601612418565b9150509250929050565b5f6020828403121561263e5761263d61233e565b5b5f61264b848285016125d7565b91505092915050565b5f81519050919050565b5f82825260208201905092915050565b5f819050602082019050919050565b5f82825260208201905092915050565b5f61269782612457565b6126a1818561267d565b93506126b1818560208601612471565b6126ba8161247f565b840191505092915050565b6126ce816123f9565b82525050565b6126dd816124d6565b82525050565b5f60a083015f8301518482035f8601526126fd828261268d565b915050602083015161271260208601826126c5565b50604083015161272560408601826126c5565b50606083015161273860608601826126d4565b50608083015161274b60808601826126d4565b508091505092915050565b5f61276183836126e3565b905092915050565b5f602082019050919050565b5f61277f82612654565b612789818561265e565b93508360208202850161279b8561266e565b805f5b858110156127d657848403895281516127b78582612756565b94506127c283612769565b925060208a0199505060018101905061279e565b50829750879550505050505092915050565b5f6020820190508181035f8301526128008184612775565b905092915050565b5f805f6060848603121561281f5761281e61233e565b5b5f61282c868287016125d7565b935050602061283d868287016125d7565b925050604061284e86828701612418565b9150509250925092565b5f80fd5b5f80fd5b7f4e487b71000000000000000000000000000000000000000000000000000000005f52604160045260245ffd5b6128968261247f565b810181811067ffffffffffffffff821117156128b5576128b4612860565b5b80604052505050565b5f6128c7612335565b90506128d3828261288d565b919050565b5f67ffffffffffffffff8211156128f2576128f1612860565b5b6128fb8261247f565b9050602081019050919050565b828183375f83830152505050565b5f612928612923846128d8565b6128be565b9050828152602081018484840111156129445761294361285c565b5b61294f848285612908565b509392505050565b5f82601f83011261296b5761296a612858565b5b813561297b848260208601612916565b91505092915050565b5f602082840312156129995761299861233e565b5b5f82013567ffffffffffffffff8111156129b6576129b5612342565b5b6129c284828501612957565b91505092915050565b5f6020820190506129de5f8301846124c7565b92915050565b5f6040820190506129f75f830185612599565b612a0460208301846124c7565b9392505050565b612a14816123c6565b8114612a1e575f80fd5b50565b5f81359050612a2f81612a0b565b92915050565b5f8060408385031215612a4b57612a4a61233e565b5b5f612a58858286016125d7565b9250506020612a6985828601612a21565b9150509250929050565b5f67ffffffffffffffff821115612a8d57612a8c612860565b5b612a968261247f565b9050602081019050919050565b5f612ab5612ab084612a73565b6128be565b905082815260208101848484011115612ad157612ad061285c565b5b612adc848285612908565b509392505050565b5f82601f830112612af857612af7612858565b5b8135612b08848260208601612aa3565b91505092915050565b5f805f8060808587031215612b2957612b2861233e565b5b5f612b36878288016125d7565b9450506020612b47878288016125d7565b9350506040612b5887828801612418565b925050606085013567ffffffffffffffff811115612b7957612b78612342565b5b612b8587828801612ae4565b91505092959194509250565b5f8060408385031215612ba757612ba661233e565b5b5f612bb4858286016125d7565b9250506020612bc5858286016125d7565b9150509250929050565b7f4e487b71000000000000000000000000000000000000000000000000000000005f52602260045260245ffd5b5f6002820490506001821680612c1357607f821691505b602082108103612c2657612c25612bcf565b5b50919050565b7f4552433732313a20617070726f76656420717565727920666f72206e6f6e65785f8201527f697374656e7420746f6b656e0000000000000000000000000000000000000000602082015250565b5f612c86602c83612461565b9150612c9182612c2c565b604082019050919050565b5f6020820190508181035f830152612cb381612c7a565b9050919050565b7f4552433732313a20617070726f76616c20746f2063757272656e74206f776e655f8201527f7200000000000000000000000000000000000000000000000000000000000000602082015250565b5f612d14602183612461565b9150612d1f82612cba565b604082019050919050565b5f6020820190508181035f830152612d4181612d08565b9050919050565b7f4552433732313a20617070726f76652063616c6c6572206973206e6f74206f775f8201527f6e6572206e6f7220617070726f76656420666f7220616c6c0000000000000000602082015250565b5f612da2603883612461565b9150612dad82612d48565b604082019050919050565b5f6020820190508181035f830152612dcf81612d96565b9050919050565b7f4e487b71000000000000000000000000000000000000000000000000000000005f52603260045260245ffd5b7f4e487b71000000000000000000000000000000000000000000000000000000005f52601160045260245ffd5b5f612e3a826124d6565b915060ff8203612e4d57612e4c612e03565b5b600182019050919050565b5f612e62826123f9565b91507fffffffffffffffffffffffffffffffffffffffffffffffffffffffffffffffff8203612e9457612e93612e03565b5b600182019050919050565b7f4552433732313a207472616e736665722063616c6c6572206973206e6f74206f5f8201527f776e6572206e6f7220617070726f766564000000000000000000000000000000602082015250565b5f612ef9603183612461565b9150612f0482612e9f565b604082019050919050565b5f6020820190508181035f830152612f2681612eed565b9050919050565b7f4f776e61626c653a2063616c6c6572206973206e6f7420746865206f776e65725f82015250565b5f612f61602083612461565b9150612f6c82612f2d565b602082019050919050565b5f6020820190508181035f830152612f8e81612f55565b9050919050565b7f4552433732313a206f776e657220717565727920666f72206e6f6e65786973745f8201527f656e7420746f6b656e0000000000000000000000000000000000000000000000602082015250565b5f612fef602983612461565b9150612ffa82612f95565b604082019050919050565b5f6020820190508181035f83015261301c81612fe3565b9050919050565b7f4552433732313a2062616c616e636520717565727920666f7220746865207a655f8201527f726f206164647265737300000000000000000000000000000000000000000000602082015250565b5f61307d602a83612461565b915061308882613023565b604082019050919050565b5f6020820190508181035f8301526130aa81613071565b9050919050565b7f4e487b71000000000000000000000000000000000000000000000000000000005f52601260045260245ffd5b5f6130e8826123f9565b91506130f3836123f9565b925082613103576131026130b1565b5b828204905092915050565b7f4552433732314d657461646174613a2055524920717565727920666f72206e6f5f8201527f6e6578697374656e7420746f6b656e0000000000000000000000000000000000602082015250565b5f613168602f83612461565b91506131738261310e565b604082019050919050565b5f6020820190508181035f8301526131958161315c565b9050919050565b5f81905092915050565b5f6131b082612457565b6131ba818561319c565b93506131ca818560208601612471565b80840191505092915050565b5f6131e182856131a6565b91506131ed82846131a6565b91508190509392505050565b7f4f776e61626c653a206e6577206f776e657220697320746865207a65726f20615f8201527f6464726573730000000000000000000000000000000000000000000000000000602082015250565b5f613253602683612461565b915061325e826131f9565b604082019050919050565b5f6020820190508181035f83015261328081613247565b9050919050565b7f4552433732313a206f70657261746f7220717565727920666f72206e6f6e65785f8201527f697374656e7420746f6b656e0000000000000000000000000000000000000000602082015250565b5f6132e1602c83612461565b91506132ec82613287565b604082019050919050565b5f6020820190508181035f83015261330e816132d5565b9050919050565b7f4552433732313a207472616e73666572206f6620746f6b656e207468617420695f8201527f73206e6f74206f776e0000000000000000000000000000000000000000000000602082015250565b5f61336f602983612461565b915061337a82613315565b604082019050919050565b5f6020820190508181035f83015261339c81613363565b9050919050565b7f4552433732313a207472616e7366657220746f20746865207a65726f206164645f8201527f7265737300000000000000000000000000000000000000000000000000000000602082015250565b5f6133fd602483612461565b9150613408826133a3565b604082019050919050565b5f6020820190508181035f83015261342a816133f1565b9050919050565b5f61343b826123f9565b9150613446836123f9565b925082820390508181111561345e5761345d612e03565b5b92915050565b5f61346e826123f9565b9150613479836123f9565b925082820190508082111561349157613490612e03565b5b92915050565b5f819050815f5260205f209050919050565b5f6020601f8301049050919050565b5f82821b905092915050565b5f600883026134f37fffffffffffffffffffffffffffffffffffffffffffffffffffffffffffffffff826134b8565b6134fd86836134b8565b95508019841693508086168417925050509392505050565b5f819050919050565b5f61353861353361352e846123f9565b613515565b6123f9565b9050919050565b5f819050919050565b6135518361351e565b61356561355d8261353f565b8484546134c4565b825550505050565b5f90565b61357961356d565b613584818484613548565b505050565b5b818110156135a75761359c5f82613571565b60018101905061358a565b5050565b601f8211156135ec576135bd81613497565b6135c6846134a9565b810160208510156135d5578190505b6135e96135e1856134a9565b830182613589565b50505b505050565b5f82821c905092915050565b5f61360c5f19846008026135f1565b1980831691505092915050565b5f61362483836135fd565b9150826002028217905092915050565b61363d82612457565b67ffffffffffffffff81111561365657613655612860565b5b6136608254612bfc565b61366b8282856135ab565b5f60209050601f83116001811461369c575f841561368a578287015190505b6136948582613619565b8655506136fb565b601f1984166136aa86613497565b5f5b828110156136d1578489015182556001820191506020850194506020810190506136ac565b868310156136ee57848901516136ea601f8916826135fd565b8355505b6001600288020188555050505b505050505050565b5f6040820190506137165f8301856124c7565b61372360208301846124c7565b9392505050565b7f4552433732313a20617070726f766520746f2063616c6c6572000000000000005f82015250565b5f61375e601983612461565b91506137698261372a565b602082019050919050565b5f6020820190508181035f83015261378b81613752565b9050919050565b7f4552433732313a207472616e7366657220746f206e6f6e2045524337323152655f8201527f63656976657220696d706c656d656e7465720000000000000000000000000000602082015250565b5f6137ec603283612461565b91506137f782613792565b604082019050919050565b5f6020820190508181035f830152613819816137e0565b9050919050565b5f61382a826123f9565b9150613835836123f9565b925082613845576138446130b1565b5b828206905092915050565b5f819050919050565b61386a613865826123f9565b613850565b82525050565b5f8160601b9050919050565b5f61388682613870565b9050919050565b5f6138978261387c565b9050919050565b6138af6138aa82612588565b61388d565b82525050565b5f6138c08285613859565b6020820191506138d0828461389e565b6014820191508190509392505050565b5f81519050919050565b5f82825260208201905092915050565b5f613904826138e0565b61390e81856138ea565b935061391e818560208601612471565b6139278161247f565b840191505092915050565b5f6080820190506139455f830187612599565b6139526020830186612599565b61395f60408301856124c7565b818103606083015261397181846138fa565b905095945050505050565b5f8151905061398a81612371565b92915050565b5f602082840312156139a5576139a461233e565b5b5f6139b28482850161397c565b91505092915050565b7f4552433732313a206d696e7420746f20746865207a65726f20616464726573735f82015250565b5f6139ef602083612461565b91506139fa826139bb565b602082019050919050565b5f6020820190508181035f830152613a1c816139e3565b9050919050565b7f4552433732313a20746f6b656e20616c7265616479206d696e746564000000005f82015250565b5f613a57601c83612461565b9150613a6282613a23565b602082019050919050565b5f6020820190508181035f830152613a8481613a4b565b905091905056fea26469706673582212204da610f8e5c1f15753bea059577ffdf77cd7a42958ca79bad09da7d46dc02ee164736f6c63430008190033",
			"opcodes": "PUSH1 0x80 PUSH1 0x40 MSTORE PUSH8 0x4563918244F40000 PUSH1 0x8 SSTORE CALLVALUE DUP1 ISZERO PUSH2 0x1B JUMPI PUSH0 DUP1 REVERT JUMPDEST POP PUSH1 0x40 MLOAD PUSH2 0x40BA CODESIZE SUB DUP1 PUSH2 0x40BA DUP4 CODECOPY DUP2 DUP2 ADD PUSH1 0x40 MSTORE DUP2 ADD SWAP1 PUSH2 0x3D SWAP2 SWAP1 PUSH2 0x29A JUMP JUMPDEST DUP2 DUP2 DUP2 PUSH0 SWAP1 DUP2 PUSH2 0x4D SWAP2 SWAP1 PUSH2 0x51D JUMP JUMPDEST POP DUP1 PUSH1 0x1 SWAP1 DUP2 PUSH2 0x5D SWAP2 SWAP1 PUSH2 0x51D JUMP JUMPDEST POP POP POP PUSH2 0x7C PUSH2 0x71 PUSH2 0x83 PUSH1 0x20 SHL PUSH1 0x20 SHR JUMP JUMPDEST PUSH2 0x8A PUSH1 0x20 SHL PUSH1 0x20 SHR JUMP JUMPDEST POP POP PUSH2 0x5EC JUMP JUMPDEST PUSH0 CALLER SWAP1 POP SWAP1 JUMP JUMPDEST PUSH0 PUSH1 0x6 PUSH0 SWAP1 SLOAD SWAP1 PUSH2 0x100 EXP SWAP1 DIV PUSH20 0xFFFFFFFFFFFFFFFFFFFFFFFFFFFFFFFFFFFFFFFF AND SWAP1 POP DUP2 PUSH1 0x6 PUSH0 PUSH2 0x100 EXP DUP2 SLOAD DUP2 PUSH20 0xFFFFFFFFFFFFFFFFFFFFFFFFFFFFFFFFFFFFFFFF MUL NOT AND SWAP1 DUP4 PUSH20 0xFFFFFFFFFFFFFFFFFFFFFFFFFFFFFFFFFFFFFFFF AND MUL OR SWAP1 SSTORE POP DUP2 PUSH20 0xFFFFFFFFFFFFFFFFFFFFFFFFFFFFFFFFFFFFFFFF AND DUP2 PUSH20 0xFFFFFFFFFFFFFFFFFFFFFFFFFFFFFFFFFFFFFFFF AND PUSH32 0x8BE0079C531659141344CD1FD0A4F28419497F9722A3DAAFE3B4186F6B6457E0 PUSH1 0x40 MLOAD PUSH1 0x40 MLOAD DUP1 SWAP2 SUB SWAP1 LOG3 POP POP JUMP JUMPDEST PUSH0 PUSH1 0x40 MLOAD SWAP1 POP SWAP1 JUMP JUMPDEST PUSH0 DUP1 REVERT JUMPDEST PUSH0 DUP1 REVERT JUMPDEST PUSH0 DUP1 REVERT JUMPDEST PUSH0 DUP1 REVERT JUMPDEST PUSH0 PUSH1 0x1F NOT PUSH1 0x1F DUP4 ADD AND SWAP1 POP SWAP2 SWAP1 POP JUMP JUMPDEST PUSH32 0x4E487B7100000000000000000000000000000000000000000000000000000000 PUSH0 MSTORE PUSH1 0x41 PUSH1 0x4 MSTORE PUSH1 0x24 PUSH0 REVERT JUMPDEST PUSH2 0x1AC DUP3 PUSH2 0x166 JUMP JUMPDEST DUP2 ADD DUP2 DUP2 LT PUSH8 0xFFFFFFFFFFFFFFFF DUP3 GT OR ISZERO PUSH2 0x1CB JUMPI PUSH2 0x1CA PUSH2 0x176 JUMP JUMPDEST JUMPDEST DUP1 PUSH1 0x40 MSTORE POP POP POP JUMP JUMPDEST PUSH0 PUSH2 0x1DD PUSH2 0x14D JUMP JUMPDEST SWAP1 POP PUSH2 0x1E9 DUP3 DUP3 PUSH2 0x1A3 JUMP JUMPDEST SWAP2 SWAP1 POP JUMP JUMPDEST PUSH0 PUSH8 0xFFFFFFFFFFFFFFFF DUP3 GT ISZERO PUSH2 0x208 JUMPI PUSH2 0x207 PUSH2 0x176 JUMP JUMPDEST JUMPDEST PUSH2 0x211 DUP3 PUSH2 0x166 JUMP JUMPDEST SWAP1 POP PUSH1 0x20 DUP2 ADD SWAP1 POP SWAP2 SWAP1 POP JUMP JUMPDEST DUP3 DUP2 DUP4 MCOPY PUSH0 DUP4 DUP4 ADD MSTORE POP POP POP JUMP JUMPDEST PUSH0 PUSH2 0x23E PUSH2 0x239 DUP5 PUSH2 0x1EE JUMP JUMPDEST PUSH2 0x1D4 JUMP JUMPDEST SWAP1 POP DUP3 DUP2 MSTORE PUSH1 0x20 DUP2 ADD DUP5 DUP5 DUP5 ADD GT ISZERO PUSH2 0x25A JUMPI PUSH2 0x259 PUSH2 0x162 JUMP JUMPDEST JUMPDEST PUSH2 0x265 DUP5 DUP3 DUP6 PUSH2 0x21E JUMP JUMPDEST POP SWAP4 SWAP3 POP POP POP JUMP JUMPDEST PUSH0 DUP3 PUSH1 0x1F DUP4 ADD SLT PUSH2 0x281 JUMPI PUSH2 0x280 PUSH2 0x15E JUMP JUMPDEST JUMPDEST DUP2 MLOAD PUSH2 0x291 DUP5 DUP3 PUSH1 0x20 DUP7 ADD PUSH2 0x22C JUMP JUMPDEST SWAP2 POP POP SWAP3 SWAP2 POP POP JUMP JUMPDEST PUSH0 DUP1 PUSH1 0x40 DUP4 DUP6 SUB SLT ISZERO PUSH2 0x2B0 JUMPI PUSH2 0x2AF PUSH2 0x156 JUMP JUMPDEST JUMPDEST PUSH0 DUP4 ADD MLOAD PUSH8 0xFFFFFFFFFFFFFFFF DUP2 GT ISZERO PUSH2 0x2CD JUMPI PUSH2 0x2CC PUSH2 0x15A JUMP JUMPDEST JUMPDEST PUSH2 0x2D9 DUP6 DUP3 DUP7 ADD PUSH2 0x26D JUMP JUMPDEST SWAP3 POP POP PUSH1 0x20 DUP4 ADD MLOAD PUSH8 0xFFFFFFFFFFFFFFFF DUP2 GT ISZERO PUSH2 0x2FA JUMPI PUSH2 0x2F9 PUSH2 0x15A JUMP JUMPDEST JUMPDEST PUSH2 0x306 DUP6 DUP3 DUP7 ADD PUSH2 0x26D JUMP JUMPDEST SWAP2 POP POP SWAP3 POP SWAP3 SWAP1 POP JUMP JUMPDEST PUSH0 DUP2 MLOAD SWAP1 POP SWAP2 SWAP1 POP JUMP JUMPDEST PUSH32 0x4E487B7100000000000000000000000000000000000000000000000000000000 PUSH0 MSTORE PUSH1 0x22 PUSH1 0x4 MSTORE PUSH1 0x24 PUSH0 REVERT JUMPDEST PUSH0 PUSH1 0x2 DUP3 DIV SWAP1 POP PUSH1 0x1 DUP3 AND DUP1 PUSH2 0x35E JUMPI PUSH1 0x7F DUP3 AND SWAP2 POP JUMPDEST PUSH1 0x20 DUP3 LT DUP2 SUB PUSH2 0x371 JUMPI PUSH2 0x370 PUSH2 0x31A JUMP JUMPDEST JUMPDEST POP SWAP2 SWAP1 POP JUMP JUMPDEST PUSH0 DUP2 SWAP1 POP DUP2 PUSH0 MSTORE PUSH1 0x20 PUSH0 KECCAK256 SWAP1 POP SWAP2 SWAP1 POP JUMP JUMPDEST PUSH0 PUSH1 0x20 PUSH1 0x1F DUP4 ADD DIV SWAP1 POP SWAP2 SWAP1 POP JUMP JUMPDEST PUSH0 DUP3 DUP3 SHL SWAP1 POP SWAP3 SWAP2 POP POP JUMP JUMPDEST PUSH0 PUSH1 0x8 DUP4 MUL PUSH2 0x3D3 PUSH32 0xFFFFFFFFFFFFFFFFFFFFFFFFFFFFFFFFFFFFFFFFFFFFFFFFFFFFFFFFFFFFFFFF DUP3 PUSH2 0x398 JUMP JUMPDEST PUSH2 0x3DD DUP7 DUP4 PUSH2 0x398 JUMP JUMPDEST SWAP6 POP DUP1 NOT DUP5 AND SWAP4 POP DUP1 DUP7 AND DUP5 OR SWAP3 POP POP POP SWAP4 SWAP3 POP POP POP JUMP JUMPDEST PUSH0 DUP2 SWAP1 POP SWAP2 SWAP1 POP JUMP JUMPDEST PUSH0 DUP2 SWAP1 POP SWAP2 SWAP1 POP JUMP JUMPDEST PUSH0 PUSH2 0x421 PUSH2 0x41C PUSH2 0x417 DUP5 PUSH2 0x3F5 JUMP JUMPDEST PUSH2 0x3FE JUMP JUMPDEST PUSH2 0x3F5 JUMP JUMPDEST SWAP1 POP SWAP2 SWAP1 POP JUMP JUMPDEST PUSH0 DUP2 SWAP1 POP SWAP2 SWAP1 POP JUMP JUMPDEST PUSH2 0x43A DUP4 PUSH2 0x407 JUMP JUMPDEST PUSH2 0x44E PUSH2 0x446 DUP3 PUSH2 0x428 JUMP JUMPDEST DUP5 DUP5 SLOAD PUSH2 0x3A4 JUMP JUMPDEST DUP3 SSTORE POP POP POP POP JUMP JUMPDEST PUSH0 SWAP1 JUMP JUMPDEST PUSH2 0x462 PUSH2 0x456 JUMP JUMPDEST PUSH2 0x46D DUP2 DUP5 DUP5 PUSH2 0x431 JUMP JUMPDEST POP POP POP JUMP JUMPDEST JUMPDEST DUP2 DUP2 LT ISZERO PUSH2 0x490 JUMPI PUSH2 0x485 PUSH0 DUP3 PUSH2 0x45A JUMP JUMPDEST PUSH1 0x1 DUP2 ADD SWAP1 POP PUSH2 0x473 JUMP JUMPDEST POP POP JUMP JUMPDEST PUSH1 0x1F DUP3 GT ISZERO PUSH2 0x4D5 JUMPI PUSH2 0x4A6 DUP2 PUSH2 0x377 JUMP JUMPDEST PUSH2 0x4AF DUP5 PUSH2 0x389 JUMP JUMPDEST DUP2 ADD PUSH1 0x20 DUP6 LT ISZERO PUSH2 0x4BE JUMPI DUP2 SWAP1 POP JUMPDEST PUSH2 0x4D2 PUSH2 0x4CA DUP6 PUSH2 0x389 JUMP JUMPDEST DUP4 ADD DUP3 PUSH2 0x472 JUMP JUMPDEST POP POP JUMPDEST POP POP POP JUMP JUMPDEST PUSH0 DUP3 DUP3 SHR SWAP1 POP SWAP3 SWAP2 POP POP JUMP JUMPDEST PUSH0 PUSH2 0x4F5 PUSH0 NOT DUP5 PUSH1 0x8 MUL PUSH2 0x4DA JUMP JUMPDEST NOT DUP1 DUP4 AND SWAP2 POP POP SWAP3 SWAP2 POP POP JUMP JUMPDEST PUSH0 PUSH2 0x50D DUP4 DUP4 PUSH2 0x4E6 JUMP JUMPDEST SWAP2 POP DUP3 PUSH1 0x2 MUL DUP3 OR SWAP1 POP SWAP3 SWAP2 POP POP JUMP JUMPDEST PUSH2 0x526 DUP3 PUSH2 0x310 JUMP JUMPDEST PUSH8 0xFFFFFFFFFFFFFFFF DUP2 GT ISZERO PUSH2 0x53F JUMPI PUSH2 0x53E PUSH2 0x176 JUMP JUMPDEST JUMPDEST PUSH2 0x549 DUP3 SLOAD PUSH2 0x347 JUMP JUMPDEST PUSH2 0x554 DUP3 DUP3 DUP6 PUSH2 0x494 JUMP JUMPDEST PUSH0 PUSH1 0x20 SWAP1 POP PUSH1 0x1F DUP4 GT PUSH1 0x1 DUP2 EQ PUSH2 0x585 JUMPI PUSH0 DUP5 ISZERO PUSH2 0x573 JUMPI DUP3 DUP8 ADD MLOAD SWAP1 POP JUMPDEST PUSH2 0x57D DUP6 DUP3 PUSH2 0x502 JUMP JUMPDEST DUP7 SSTORE POP PUSH2 0x5E4 JUMP JUMPDEST PUSH1 0x1F NOT DUP5 AND PUSH2 0x593 DUP7 PUSH2 0x377 JUMP JUMPDEST PUSH0 JUMPDEST DUP3 DUP2 LT ISZERO PUSH2 0x5BA JUMPI DUP5 DUP10 ADD MLOAD DUP3 SSTORE PUSH1 0x1 DUP3 ADD SWAP2 POP PUSH1 0x20 DUP6 ADD SWAP5 POP PUSH1 0x20 DUP2 ADD SWAP1 POP PUSH2 0x595 JUMP JUMPDEST DUP7 DUP4 LT ISZERO PUSH2 0x5D7 JUMPI DUP5 DUP10 ADD MLOAD PUSH2 0x5D3 PUSH1 0x1F DUP10 AND DUP3 PUSH2 0x4E6 JUMP JUMPDEST DUP4 SSTORE POP JUMPDEST PUSH1 0x1 PUSH1 0x2 DUP9 MUL ADD DUP9 SSTORE POP POP POP JUMPDEST POP POP POP POP POP POP JUMP JUMPDEST PUSH2 0x3AC1 DUP1 PUSH2 0x5F9 PUSH0 CODECOPY PUSH0 RETURN INVALID PUSH1 0x80 PUSH1 0x40 MSTORE PUSH1 0x4 CALLDATASIZE LT PUSH2 0x165 JUMPI PUSH0 CALLDATALOAD PUSH1 0xE0 SHR DUP1 PUSH4 0x6352211E GT PUSH2 0xD0 JUMPI DUP1 PUSH4 0x9B6C354E GT PUSH2 0x89 JUMPI DUP1 PUSH4 0xC87B56DD GT PUSH2 0x63 JUMPI DUP1 PUSH4 0xC87B56DD EQ PUSH2 0x4FC JUMPI DUP1 PUSH4 0xDDCA3F43 EQ PUSH2 0x538 JUMPI DUP1 PUSH4 0xE985E9C5 EQ PUSH2 0x562 JUMPI DUP1 PUSH4 0xF2FDE38B EQ PUSH2 0x59E JUMPI PUSH2 0x165 JUMP JUMPDEST DUP1 PUSH4 0x9B6C354E EQ PUSH2 0x481 JUMPI DUP1 PUSH4 0xA22CB465 EQ PUSH2 0x4AC JUMPI DUP1 PUSH4 0xB88D4FDE EQ PUSH2 0x4D4 JUMPI PUSH2 0x165 JUMP JUMPDEST DUP1 PUSH4 0x6352211E EQ PUSH2 0x377 JUMPI DUP1 PUSH4 0x70A08231 EQ PUSH2 0x3B3 JUMPI DUP1 PUSH4 0x715018A6 EQ PUSH2 0x3EF JUMPI DUP1 PUSH4 0x8DA5CB5B EQ PUSH2 0x405 JUMPI DUP1 PUSH4 0x9012C4A8 EQ PUSH2 0x42F JUMPI DUP1 PUSH4 0x95D89B41 EQ PUSH2 0x457 JUMPI PUSH2 0x165 JUMP JUMPDEST DUP1 PUSH4 0x125C4B2B GT PUSH2 0x122 JUMPI DUP1 PUSH4 0x125C4B2B EQ PUSH2 0x29B JUMPI DUP1 PUSH4 0x23B872DD EQ PUSH2 0x2D7 JUMPI DUP1 PUSH4 0x2F2670C3 EQ PUSH2 0x2FF JUMPI DUP1 PUSH4 0x382D0412 EQ PUSH2 0x31B JUMPI DUP1 PUSH4 0x3CCFD60B EQ PUSH2 0x345 JUMPI DUP1 PUSH4 0x42842E0E EQ PUSH2 0x34F JUMPI PUSH2 0x165 JUMP JUMPDEST DUP1 PUSH4 0x1FFC9A7 EQ PUSH2 0x169 JUMPI DUP1 PUSH4 0x667FAC3 EQ PUSH2 0x1A5 JUMPI DUP1 PUSH4 0x6FDDE03 EQ PUSH2 0x1E5 JUMPI DUP1 PUSH4 0x81812FC EQ PUSH2 0x20F JUMPI DUP1 PUSH4 0x95EA7B3 EQ PUSH2 0x24B JUMPI DUP1 PUSH4 0xCE90EC2 EQ PUSH2 0x273 JUMPI JUMPDEST PUSH0 DUP1 REVERT JUMPDEST CALLVALUE DUP1 ISZERO PUSH2 0x174 JUMPI PUSH0 DUP1 REVERT JUMPDEST POP PUSH2 0x18F PUSH1 0x4 DUP1 CALLDATASIZE SUB DUP2 ADD SWAP1 PUSH2 0x18A SWAP2 SWAP1 PUSH2 0x239B JUMP JUMPDEST PUSH2 0x5C6 JUMP JUMPDEST PUSH1 0x40 MLOAD PUSH2 0x19C SWAP2 SWAP1 PUSH2 0x23E0 JUMP JUMPDEST PUSH1 0x40 MLOAD DUP1 SWAP2 SUB SWAP1 RETURN JUMPDEST CALLVALUE DUP1 ISZERO PUSH2 0x1B0 JUMPI PUSH0 DUP1 REVERT JUMPDEST POP PUSH2 0x1CB PUSH1 0x4 DUP1 CALLDATASIZE SUB DUP2 ADD SWAP1 PUSH2 0x1C6 SWAP2 SWAP1 PUSH2 0x242C JUMP JUMPDEST PUSH2 0x6A7 JUMP JUMPDEST PUSH1 0x40 MLOAD PUSH2 0x1DC SWAP6 SWAP5 SWAP4 SWAP3 SWAP2 SWAP1 PUSH2 0x24F1 JUMP JUMPDEST PUSH1 0x40 MLOAD DUP1 SWAP2 SUB SWAP1 RETURN JUMPDEST CALLVALUE DUP1 ISZERO PUSH2 0x1F0 JUMPI PUSH0 DUP1 REVERT JUMPDEST POP PUSH2 0x1F9 PUSH2 0x787 JUMP JUMPDEST PUSH1 0x40 MLOAD PUSH2 0x206 SWAP2 SWAP1 PUSH2 0x2549 JUMP JUMPDEST PUSH1 0x40 MLOAD DUP1 SWAP2 SUB SWAP1 RETURN JUMPDEST CALLVALUE DUP1 ISZERO PUSH2 0x21A JUMPI PUSH0 DUP1 REVERT JUMPDEST POP PUSH2 0x235 PUSH1 0x4 DUP1 CALLDATASIZE SUB DUP2 ADD SWAP1 PUSH2 0x230 SWAP2 SWAP1 PUSH2 0x242C JUMP JUMPDEST PUSH2 0x816 JUMP JUMPDEST PUSH1 0x40 MLOAD PUSH2 0x242 SWAP2 SWAP1 PUSH2 0x25A8 JUMP JUMPDEST PUSH1 0x40 MLOAD DUP1 SWAP2 SUB SWAP1 RETURN JUMPDEST CALLVALUE DUP1 ISZERO PUSH2 0x256 JUMPI PUSH0 DUP1 REVERT JUMPDEST POP PUSH2 0x271 PUSH1 0x4 DUP1 CALLDATASIZE SUB DUP2 ADD SWAP1 PUSH2 0x26C SWAP2 SWAP1 PUSH2 0x25EB JUMP JUMPDEST PUSH2 0x897 JUMP JUMPDEST STOP JUMPDEST CALLVALUE DUP1 ISZERO PUSH2 0x27E JUMPI PUSH0 DUP1 REVERT JUMPDEST POP PUSH2 0x299 PUSH1 0x4 DUP1 CALLDATASIZE SUB DUP2 ADD SWAP1 PUSH2 0x294 SWAP2 SWAP1 PUSH2 0x242C JUMP JUMPDEST PUSH2 0x9AD JUMP JUMPDEST STOP JUMPDEST CALLVALUE DUP1 ISZERO PUSH2 0x2A6 JUMPI PUSH0 DUP1 REVERT JUMPDEST POP PUSH2 0x2C1 PUSH1 0x4 DUP1 CALLDATASIZE SUB DUP2 ADD SWAP1 PUSH2 0x2BC SWAP2 SWAP1 PUSH2 0x2629 JUMP JUMPDEST PUSH2 0xA4C JUMP JUMPDEST PUSH1 0x40 MLOAD PUSH2 0x2CE SWAP2 SWAP1 PUSH2 0x27E8 JUMP JUMPDEST PUSH1 0x40 MLOAD DUP1 SWAP2 SUB SWAP1 RETURN JUMPDEST CALLVALUE DUP1 ISZERO PUSH2 0x2E2 JUMPI PUSH0 DUP1 REVERT JUMPDEST POP PUSH2 0x2FD PUSH1 0x4 DUP1 CALLDATASIZE SUB DUP2 ADD SWAP1 PUSH2 0x2F8 SWAP2 SWAP1 PUSH2 0x2808 JUMP JUMPDEST PUSH2 0xC44 JUMP JUMPDEST STOP JUMPDEST PUSH2 0x319 PUSH1 0x4 DUP1 CALLDATASIZE SUB DUP2 ADD SWAP1 PUSH2 0x314 SWAP2 SWAP1 PUSH2 0x2984 JUMP JUMPDEST PUSH2 0xCA4 JUMP JUMPDEST STOP JUMPDEST CALLVALUE DUP1 ISZERO PUSH2 0x326 JUMPI PUSH0 DUP1 REVERT JUMPDEST POP PUSH2 0x32F PUSH2 0xCBE JUMP JUMPDEST PUSH1 0x40 MLOAD PUSH2 0x33C SWAP2 SWAP1 PUSH2 0x27E8 JUMP JUMPDEST PUSH1 0x40 MLOAD DUP1 SWAP2 SUB SWAP1 RETURN JUMPDEST PUSH2 0x34D PUSH2 0xDF6 JUMP JUMPDEST STOP JUMPDEST CALLVALUE DUP1 ISZERO PUSH2 0x35A JUMPI PUSH0 DUP1 REVERT JUMPDEST POP PUSH2 0x375 PUSH1 0x4 DUP1 CALLDATASIZE SUB DUP2 ADD SWAP1 PUSH2 0x370 SWAP2 SWAP1 PUSH2 0x2808 JUMP JUMPDEST PUSH2 0xEC4 JUMP JUMPDEST STOP JUMPDEST CALLVALUE DUP1 ISZERO PUSH2 0x382 JUMPI PUSH0 DUP1 REVERT JUMPDEST POP PUSH2 0x39D PUSH1 0x4 DUP1 CALLDATASIZE SUB DUP2 ADD SWAP1 PUSH2 0x398 SWAP2 SWAP1 PUSH2 0x242C JUMP JUMPDEST PUSH2 0xEE3 JUMP JUMPDEST PUSH1 0x40 MLOAD PUSH2 0x3AA SWAP2 SWAP1 PUSH2 0x25A8 JUMP JUMPDEST PUSH1 0x40 MLOAD DUP1 SWAP2 SUB SWAP1 RETURN JUMPDEST CALLVALUE DUP1 ISZERO PUSH2 0x3BE JUMPI PUSH0 DUP1 REVERT JUMPDEST POP PUSH2 0x3D9 PUSH1 0x4 DUP1 CALLDATASIZE SUB DUP2 ADD SWAP1 PUSH2 0x3D4 SWAP2 SWAP1 PUSH2 0x2629 JUMP JUMPDEST PUSH2 0xF8F JUMP JUMPDEST PUSH1 0x40 MLOAD PUSH2 0x3E6 SWAP2 SWAP1 PUSH2 0x29CB JUMP JUMPDEST PUSH1 0x40 MLOAD DUP1 SWAP2 SUB SWAP1 RETURN JUMPDEST CALLVALUE DUP1 ISZERO PUSH2 0x3FA JUMPI PUSH0 DUP1 REVERT JUMPDEST POP PUSH2 0x403 PUSH2 0x1043 JUMP JUMPDEST STOP JUMPDEST CALLVALUE DUP1 ISZERO PUSH2 0x410 JUMPI PUSH0 DUP1 REVERT JUMPDEST POP PUSH2 0x419 PUSH2 0x10CA JUMP JUMPDEST PUSH1 0x40 MLOAD PUSH2 0x426 SWAP2 SWAP1 PUSH2 0x25A8 JUMP JUMPDEST PUSH1 0x40 MLOAD DUP1 SWAP2 SUB SWAP1 RETURN JUMPDEST CALLVALUE DUP1 ISZERO PUSH2 0x43A JUMPI PUSH0 DUP1 REVERT JUMPDEST POP PUSH2 0x455 PUSH1 0x4 DUP1 CALLDATASIZE SUB DUP2 ADD SWAP1 PUSH2 0x450 SWAP2 SWAP1 PUSH2 0x242C JUMP JUMPDEST PUSH2 0x10F2 JUMP JUMPDEST STOP JUMPDEST CALLVALUE DUP1 ISZERO PUSH2 0x462 JUMPI PUSH0 DUP1 REVERT JUMPDEST POP PUSH2 0x46B PUSH2 0x1178 JUMP JUMPDEST PUSH1 0x40 MLOAD PUSH2 0x478 SWAP2 SWAP1 PUSH2 0x2549 JUMP JUMPDEST PUSH1 0x40 MLOAD DUP1 SWAP2 SUB SWAP1 RETURN JUMPDEST CALLVALUE DUP1 ISZERO PUSH2 0x48C JUMPI PUSH0 DUP1 REVERT JUMPDEST POP PUSH2 0x495 PUSH2 0x1208 JUMP JUMPDEST PUSH1 0x40 MLOAD PUSH2 0x4A3 SWAP3 SWAP2 SWAP1 PUSH2 0x29E4 JUMP JUMPDEST PUSH1 0x40 MLOAD DUP1 SWAP2 SUB SWAP1 RETURN JUMPDEST CALLVALUE DUP1 ISZERO PUSH2 0x4B7 JUMPI PUSH0 DUP1 REVERT JUMPDEST POP PUSH2 0x4D2 PUSH1 0x4 DUP1 CALLDATASIZE SUB DUP2 ADD SWAP1 PUSH2 0x4CD SWAP2 SWAP1 PUSH2 0x2A35 JUMP JUMPDEST PUSH2 0x1231 JUMP JUMPDEST STOP JUMPDEST CALLVALUE DUP1 ISZERO PUSH2 0x4DF JUMPI PUSH0 DUP1 REVERT JUMPDEST POP PUSH2 0x4FA PUSH1 0x4 DUP1 CALLDATASIZE SUB DUP2 ADD SWAP1 PUSH2 0x4F5 SWAP2 SWAP1 PUSH2 0x2B11 JUMP JUMPDEST PUSH2 0x1247 JUMP JUMPDEST STOP JUMPDEST CALLVALUE DUP1 ISZERO PUSH2 0x507 JUMPI PUSH0 DUP1 REVERT JUMPDEST POP PUSH2 0x522 PUSH1 0x4 DUP1 CALLDATASIZE SUB DUP2 ADD SWAP1 PUSH2 0x51D SWAP2 SWAP1 PUSH2 0x242C JUMP JUMPDEST PUSH2 0x12A9 JUMP JUMPDEST PUSH1 0x40 MLOAD PUSH2 0x52F SWAP2 SWAP1 PUSH2 0x2549 JUMP JUMPDEST PUSH1 0x40 MLOAD DUP1 SWAP2 SUB SWAP1 RETURN JUMPDEST CALLVALUE DUP1 ISZERO PUSH2 0x543 JUMPI PUSH0 DUP1 REVERT JUMPDEST POP PUSH2 0x54C PUSH2 0x134D JUMP JUMPDEST PUSH1 0x40 MLOAD PUSH2 0x559 SWAP2 SWAP1 PUSH2 0x29CB JUMP JUMPDEST PUSH1 0x40 MLOAD DUP1 SWAP2 SUB SWAP1 RETURN JUMPDEST CALLVALUE DUP1 ISZERO PUSH2 0x56D JUMPI PUSH0 DUP1 REVERT JUMPDEST POP PUSH2 0x588 PUSH1 0x4 DUP1 CALLDATASIZE SUB DUP2 ADD SWAP1 PUSH2 0x583 SWAP2 SWAP1 PUSH2 0x2B91 JUMP JUMPDEST PUSH2 0x1353 JUMP JUMPDEST PUSH1 0x40 MLOAD PUSH2 0x595 SWAP2 SWAP1 PUSH2 0x23E0 JUMP JUMPDEST PUSH1 0x40 MLOAD DUP1 SWAP2 SUB SWAP1 RETURN JUMPDEST CALLVALUE DUP1 ISZERO PUSH2 0x5A9 JUMPI PUSH0 DUP1 REVERT JUMPDEST POP PUSH2 0x5C4 PUSH1 0x4 DUP1 CALLDATASIZE SUB DUP2 ADD SWAP1 PUSH2 0x5BF SWAP2 SWAP1 PUSH2 0x2629 JUMP JUMPDEST PUSH2 0x13E1 JUMP JUMPDEST STOP JUMPDEST PUSH0 PUSH32 0x80AC58CD00000000000000000000000000000000000000000000000000000000 PUSH28 0xFFFFFFFFFFFFFFFFFFFFFFFFFFFFFFFFFFFFFFFFFFFFFFFFFFFFFFFF NOT AND DUP3 PUSH28 0xFFFFFFFFFFFFFFFFFFFFFFFFFFFFFFFFFFFFFFFFFFFFFFFFFFFFFFFF NOT AND EQ DUP1 PUSH2 0x690 JUMPI POP PUSH32 0x5B5E139F00000000000000000000000000000000000000000000000000000000 PUSH28 0xFFFFFFFFFFFFFFFFFFFFFFFFFFFFFFFFFFFFFFFFFFFFFFFFFFFFFFFF NOT AND DUP3 PUSH28 0xFFFFFFFFFFFFFFFFFFFFFFFFFFFFFFFFFFFFFFFFFFFFFFFFFFFFFFFF NOT AND EQ JUMPDEST DUP1 PUSH2 0x6A0 JUMPI POP PUSH2 0x69F DUP3 PUSH2 0x14D7 JUMP JUMPDEST JUMPDEST SWAP1 POP SWAP2 SWAP1 POP JUMP JUMPDEST PUSH1 0x9 DUP2 DUP2 SLOAD DUP2 LT PUSH2 0x6B6 JUMPI PUSH0 DUP1 REVERT JUMPDEST SWAP1 PUSH0 MSTORE PUSH1 0x20 PUSH0 KECCAK256 SWAP1 PUSH1 0x4 MUL ADD PUSH0 SWAP2 POP SWAP1 POP DUP1 PUSH0 ADD DUP1 SLOAD PUSH2 0x6D5 SWAP1 PUSH2 0x2BFC JUMP JUMPDEST DUP1 PUSH1 0x1F ADD PUSH1 0x20 DUP1 SWAP2 DIV MUL PUSH1 0x20 ADD PUSH1 0x40 MLOAD SWAP1 DUP2 ADD PUSH1 0x40 MSTORE DUP1 SWAP3 SWAP2 SWAP1 DUP2 DUP2 MSTORE PUSH1 0x20 ADD DUP3 DUP1 SLOAD PUSH2 0x701 SWAP1 PUSH2 0x2BFC JUMP JUMPDEST DUP1 ISZERO PUSH2 0x74C JUMPI DUP1 PUSH1 0x1F LT PUSH2 0x723 JUMPI PUSH2 0x100 DUP1 DUP4 SLOAD DIV MUL DUP4 MSTORE SWAP2 PUSH1 0x20 ADD SWAP2 PUSH2 0x74C JUMP JUMPDEST DUP3 ADD SWAP2 SWAP1 PUSH0 MSTORE PUSH1 0x20 PUSH0 KECCAK256 SWAP1 JUMPDEST DUP2 SLOAD DUP2 MSTORE SWAP1 PUSH1 0x1 ADD SWAP1 PUSH1 0x20 ADD DUP1 DUP4 GT PUSH2 0x72F JUMPI DUP3 SWAP1 SUB PUSH1 0x1F AND DUP3 ADD SWAP2 JUMPDEST POP POP POP POP POP SWAP1 DUP1 PUSH1 0x1 ADD SLOAD SWAP1 DUP1 PUSH1 0x2 ADD SLOAD SWAP1 DUP1 PUSH1 0x3 ADD PUSH0 SWAP1 SLOAD SWAP1 PUSH2 0x100 EXP SWAP1 DIV PUSH1 0xFF AND SWAP1 DUP1 PUSH1 0x3 ADD PUSH1 0x1 SWAP1 SLOAD SWAP1 PUSH2 0x100 EXP SWAP1 DIV PUSH1 0xFF AND SWAP1 POP DUP6 JUMP JUMPDEST PUSH1 0x60 PUSH0 DUP1 SLOAD PUSH2 0x795 SWAP1 PUSH2 0x2BFC JUMP JUMPDEST DUP1 PUSH1 0x1F ADD PUSH1 0x20 DUP1 SWAP2 DIV MUL PUSH1 0x20 ADD PUSH1 0x40 MLOAD SWAP1 DUP2 ADD PUSH1 0x40 MSTORE DUP1 SWAP3 SWAP2 SWAP1 DUP2 DUP2 MSTORE PUSH1 0x20 ADD DUP3 DUP1 SLOAD PUSH2 0x7C1 SWAP1 PUSH2 0x2BFC JUMP JUMPDEST DUP1 ISZERO PUSH2 0x80C JUMPI DUP1 PUSH1 0x1F LT PUSH2 0x7E3 JUMPI PUSH2 0x100 DUP1 DUP4 SLOAD DIV MUL DUP4 MSTORE SWAP2 PUSH1 0x20 ADD SWAP2 PUSH2 0x80C JUMP JUMPDEST DUP3 ADD SWAP2 SWAP1 PUSH0 MSTORE PUSH1 0x20 PUSH0 KECCAK256 SWAP1 JUMPDEST DUP2 SLOAD DUP2 MSTORE SWAP1 PUSH1 0x1 ADD SWAP1 PUSH1 0x20 ADD DUP1 DUP4 GT PUSH2 0x7EF JUMPI DUP3 SWAP1 SUB PUSH1 0x1F AND DUP3 ADD SWAP2 JUMPDEST POP POP POP POP POP SWAP1 POP SWAP1 JUMP JUMPDEST PUSH0 PUSH2 0x820 DUP3 PUSH2 0x1540 JUMP JUMPDEST PUSH2 0x85F JUMPI PUSH1 0x40 MLOAD PUSH32 0x8C379A000000000000000000000000000000000000000000000000000000000 DUP2 MSTORE PUSH1 0x4 ADD PUSH2 0x856 SWAP1 PUSH2 0x2C9C JUMP JUMPDEST PUSH1 0x40 MLOAD DUP1 SWAP2 SUB SWAP1 REVERT JUMPDEST PUSH1 0x4 PUSH0 DUP4 DUP2 MSTORE PUSH1 0x20 ADD SWAP1 DUP2 MSTORE PUSH1 0x20 ADD PUSH0 KECCAK256 PUSH0 SWAP1 SLOAD SWAP1 PUSH2 0x100 EXP SWAP1 DIV PUSH20 0xFFFFFFFFFFFFFFFFFFFFFFFFFFFFFFFFFFFFFFFF AND SWAP1 POP SWAP2 SWAP1 POP JUMP JUMPDEST PUSH0 PUSH2 0x8A1 DUP3 PUSH2 0xEE3 JUMP JUMPDEST SWAP1 POP DUP1 PUSH20 0xFFFFFFFFFFFFFFFFFFFFFFFFFFFFFFFFFFFFFFFF AND DUP4 PUSH20 0xFFFFFFFFFFFFFFFFFFFFFFFFFFFFFFFFFFFFFFFF AND SUB PUSH2 0x911 JUMPI PUSH1 0x40 MLOAD PUSH32 0x8C379A000000000000000000000000000000000000000000000000000000000 DUP2 MSTORE PUSH1 0x4 ADD PUSH2 0x908 SWAP1 PUSH2 0x2D2A JUMP JUMPDEST PUSH1 0x40 MLOAD DUP1 SWAP2 SUB SWAP1 REVERT JUMPDEST DUP1 PUSH20 0xFFFFFFFFFFFFFFFFFFFFFFFFFFFFFFFFFFFFFFFF AND PUSH2 0x930 PUSH2 0x15A8 JUMP JUMPDEST PUSH20 0xFFFFFFFFFFFFFFFFFFFFFFFFFFFFFFFFFFFFFFFF AND EQ DUP1 PUSH2 0x95F JUMPI POP PUSH2 0x95E DUP2 PUSH2 0x959 PUSH2 0x15A8 JUMP JUMPDEST PUSH2 0x1353 JUMP JUMPDEST JUMPDEST PUSH2 0x99E JUMPI PUSH1 0x40 MLOAD PUSH32 0x8C379A000000000000000000000000000000000000000000000000000000000 DUP2 MSTORE PUSH1 0x4 ADD PUSH2 0x995 SWAP1 PUSH2 0x2DB8 JUMP JUMPDEST PUSH1 0x40 MLOAD DUP1 SWAP2 SUB SWAP1 REVERT JUMPDEST PUSH2 0x9A8 DUP4 DUP4 PUSH2 0x15AF JUMP JUMPDEST POP POP POP JUMP JUMPDEST CALLER PUSH20 0xFFFFFFFFFFFFFFFFFFFFFFFFFFFFFFFFFFFFFFFF AND PUSH2 0x9CD DUP3 PUSH2 0xEE3 JUMP JUMPDEST PUSH20 0xFFFFFFFFFFFFFFFFFFFFFFFFFFFFFFFFFFFFFFFF AND EQ PUSH2 0x9EC JUMPI PUSH0 DUP1 REVERT JUMPDEST PUSH0 PUSH1 0x9 DUP3 DUP2 SLOAD DUP2 LT PUSH2 0xA01 JUMPI PUSH2 0xA00 PUSH2 0x2DD6 JUMP JUMPDEST JUMPDEST SWAP1 PUSH0 MSTORE PUSH1 0x20 PUSH0 KECCAK256 SWAP1 PUSH1 0x4 MUL ADD SWAP1 POP DUP1 PUSH1 0x3 ADD PUSH0 DUP2 DUP2 SWAP1 SLOAD SWAP1 PUSH2 0x100 EXP SWAP1 DIV PUSH1 0xFF AND DUP1 SWAP3 SWAP2 SWAP1 PUSH2 0xA2F SWAP1 PUSH2 0x2E30 JUMP JUMPDEST SWAP2 SWAP1 PUSH2 0x100 EXP DUP2 SLOAD DUP2 PUSH1 0xFF MUL NOT AND SWAP1 DUP4 PUSH1 0xFF AND MUL OR SWAP1 SSTORE POP POP POP POP JUMP JUMPDEST PUSH1 0x60 PUSH0 PUSH2 0xA58 DUP4 PUSH2 0xF8F JUMP JUMPDEST PUSH8 0xFFFFFFFFFFFFFFFF DUP2 GT ISZERO PUSH2 0xA71 JUMPI PUSH2 0xA70 PUSH2 0x2860 JUMP JUMPDEST JUMPDEST PUSH1 0x40 MLOAD SWAP1 DUP1 DUP3 MSTORE DUP1 PUSH1 0x20 MUL PUSH1 0x20 ADD DUP3 ADD PUSH1 0x40 MSTORE DUP1 ISZERO PUSH2 0xAAA JUMPI DUP2 PUSH1 0x20 ADD JUMPDEST PUSH2 0xA97 PUSH2 0x2304 JUMP JUMPDEST DUP2 MSTORE PUSH1 0x20 ADD SWAP1 PUSH1 0x1 SWAP1 SUB SWAP1 DUP2 PUSH2 0xA8F JUMPI SWAP1 POP JUMPDEST POP SWAP1 POP PUSH0 DUP1 JUMPDEST PUSH1 0x9 DUP1 SLOAD SWAP1 POP DUP2 LT ISZERO PUSH2 0xC39 JUMPI DUP5 PUSH20 0xFFFFFFFFFFFFFFFFFFFFFFFFFFFFFFFFFFFFFFFF AND PUSH2 0xADD DUP3 PUSH2 0xEE3 JUMP JUMPDEST PUSH20 0xFFFFFFFFFFFFFFFFFFFFFFFFFFFFFFFFFFFFFFFF AND SUB PUSH2 0xC2C JUMPI PUSH1 0x9 DUP2 DUP2 SLOAD DUP2 LT PUSH2 0xB0C JUMPI PUSH2 0xB0B PUSH2 0x2DD6 JUMP JUMPDEST JUMPDEST SWAP1 PUSH0 MSTORE PUSH1 0x20 PUSH0 KECCAK256 SWAP1 PUSH1 0x4 MUL ADD PUSH1 0x40 MLOAD DUP1 PUSH1 0xA0 ADD PUSH1 0x40 MSTORE SWAP1 DUP2 PUSH0 DUP3 ADD DUP1 SLOAD PUSH2 0xB32 SWAP1 PUSH2 0x2BFC JUMP JUMPDEST DUP1 PUSH1 0x1F ADD PUSH1 0x20 DUP1 SWAP2 DIV MUL PUSH1 0x20 ADD PUSH1 0x40 MLOAD SWAP1 DUP2 ADD PUSH1 0x40 MSTORE DUP1 SWAP3 SWAP2 SWAP1 DUP2 DUP2 MSTORE PUSH1 0x20 ADD DUP3 DUP1 SLOAD PUSH2 0xB5E SWAP1 PUSH2 0x2BFC JUMP JUMPDEST DUP1 ISZERO PUSH2 0xBA9 JUMPI DUP1 PUSH1 0x1F LT PUSH2 0xB80 JUMPI PUSH2 0x100 DUP1 DUP4 SLOAD DIV MUL DUP4 MSTORE SWAP2 PUSH1 0x20 ADD SWAP2 PUSH2 0xBA9 JUMP JUMPDEST DUP3 ADD SWAP2 SWAP1 PUSH0 MSTORE PUSH1 0x20 PUSH0 KECCAK256 SWAP1 JUMPDEST DUP2 SLOAD DUP2 MSTORE SWAP1 PUSH1 0x1 ADD SWAP1 PUSH1 0x20 ADD DUP1 DUP4 GT PUSH2 0xB8C JUMPI DUP3 SWAP1 SUB PUSH1 0x1F AND DUP3 ADD SWAP2 JUMPDEST POP POP POP POP POP DUP2 MSTORE PUSH1 0x20 ADD PUSH1 0x1 DUP3 ADD SLOAD DUP2 MSTORE PUSH1 0x20 ADD PUSH1 0x2 DUP3 ADD SLOAD DUP2 MSTORE PUSH1 0x20 ADD PUSH1 0x3 DUP3 ADD PUSH0 SWAP1 SLOAD SWAP1 PUSH2 0x100 EXP SWAP1 DIV PUSH1 0xFF AND PUSH1 0xFF AND PUSH1 0xFF AND DUP2 MSTORE PUSH1 0x20 ADD PUSH1 0x3 DUP3 ADD PUSH1 0x1 SWAP1 SLOAD SWAP1 PUSH2 0x100 EXP SWAP1 DIV PUSH1 0xFF AND PUSH1 0xFF AND PUSH1 0xFF AND DUP2 MSTORE POP POP DUP4 DUP4 DUP2 MLOAD DUP2 LT PUSH2 0xC12 JUMPI PUSH2 0xC11 PUSH2 0x2DD6 JUMP JUMPDEST JUMPDEST PUSH1 0x20 MUL PUSH1 0x20 ADD ADD DUP2 SWAP1 MSTORE POP DUP2 DUP1 PUSH2 0xC28 SWAP1 PUSH2 0x2E58 JUMP JUMPDEST SWAP3 POP POP JUMPDEST DUP1 DUP1 PUSH1 0x1 ADD SWAP2 POP POP PUSH2 0xAB0 JUMP JUMPDEST POP DUP2 SWAP3 POP POP POP SWAP2 SWAP1 POP JUMP JUMPDEST PUSH2 0xC55 PUSH2 0xC4F PUSH2 0x15A8 JUMP JUMPDEST DUP3 PUSH2 0x1665 JUMP JUMPDEST PUSH2 0xC94 JUMPI PUSH1 0x40 MLOAD PUSH32 0x8C379A000000000000000000000000000000000000000000000000000000000 DUP2 MSTORE PUSH1 0x4 ADD PUSH2 0xC8B SWAP1 PUSH2 0x2F0F JUMP JUMPDEST PUSH1 0x40 MLOAD DUP1 SWAP2 SUB SWAP1 REVERT JUMPDEST PUSH2 0xC9F DUP4 DUP4 DUP4 PUSH2 0x1741 JUMP JUMPDEST POP POP POP JUMP JUMPDEST PUSH1 0x8 SLOAD CALLVALUE LT ISZERO PUSH2 0xCB2 JUMPI PUSH0 DUP1 REVERT JUMPDEST PUSH2 0xCBB DUP2 PUSH2 0x1991 JUMP JUMPDEST POP JUMP JUMPDEST PUSH1 0x60 PUSH1 0x9 DUP1 SLOAD DUP1 PUSH1 0x20 MUL PUSH1 0x20 ADD PUSH1 0x40 MLOAD SWAP1 DUP2 ADD PUSH1 0x40 MSTORE DUP1 SWAP3 SWAP2 SWAP1 DUP2 DUP2 MSTORE PUSH1 0x20 ADD PUSH0 SWAP1 JUMPDEST DUP3 DUP3 LT ISZERO PUSH2 0xDED JUMPI DUP4 DUP3 SWAP1 PUSH0 MSTORE PUSH1 0x20 PUSH0 KECCAK256 SWAP1 PUSH1 0x4 MUL ADD PUSH1 0x40 MLOAD DUP1 PUSH1 0xA0 ADD PUSH1 0x40 MSTORE SWAP1 DUP2 PUSH0 DUP3 ADD DUP1 SLOAD PUSH2 0xD11 SWAP1 PUSH2 0x2BFC JUMP JUMPDEST DUP1 PUSH1 0x1F ADD PUSH1 0x20 DUP1 SWAP2 DIV MUL PUSH1 0x20 ADD PUSH1 0x40 MLOAD SWAP1 DUP2 ADD PUSH1 0x40 MSTORE DUP1 SWAP3 SWAP2 SWAP1 DUP2 DUP2 MSTORE PUSH1 0x20 ADD DUP3 DUP1 SLOAD PUSH2 0xD3D SWAP1 PUSH2 0x2BFC JUMP JUMPDEST DUP1 ISZERO PUSH2 0xD88 JUMPI DUP1 PUSH1 0x1F LT PUSH2 0xD5F JUMPI PUSH2 0x100 DUP1 DUP4 SLOAD DIV MUL DUP4 MSTORE SWAP2 PUSH1 0x20 ADD SWAP2 PUSH2 0xD88 JUMP JUMPDEST DUP3 ADD SWAP2 SWAP1 PUSH0 MSTORE PUSH1 0x20 PUSH0 KECCAK256 SWAP1 JUMPDEST DUP2 SLOAD DUP2 MSTORE SWAP1 PUSH1 0x1 ADD SWAP1 PUSH1 0x20 ADD DUP1 DUP4 GT PUSH2 0xD6B JUMPI DUP3 SWAP1 SUB PUSH1 0x1F AND DUP3 ADD SWAP2 JUMPDEST POP POP POP POP POP DUP2 MSTORE PUSH1 0x20 ADD PUSH1 0x1 DUP3 ADD SLOAD DUP2 MSTORE PUSH1 0x20 ADD PUSH1 0x2 DUP3 ADD SLOAD DUP2 MSTORE PUSH1 0x20 ADD PUSH1 0x3 DUP3 ADD PUSH0 SWAP1 SLOAD SWAP1 PUSH2 0x100 EXP SWAP1 DIV PUSH1 0xFF AND PUSH1 0xFF AND PUSH1 0xFF AND DUP2 MSTORE PUSH1 0x20 ADD PUSH1 0x3 DUP3 ADD PUSH1 0x1 SWAP1 SLOAD SWAP1 PUSH2 0x100 EXP SWAP1 DIV PUSH1 0xFF AND PUSH1 0xFF AND PUSH1 0xFF AND DUP2 MSTORE POP POP DUP2 MSTORE PUSH1 0x20 ADD SWAP1 PUSH1 0x1 ADD SWAP1 PUSH2 0xCE1 JUMP JUMPDEST POP POP POP POP SWAP1 POP SWAP1 JUMP JUMPDEST PUSH2 0xDFE PUSH2 0x15A8 JUMP JUMPDEST PUSH20 0xFFFFFFFFFFFFFFFFFFFFFFFFFFFFFFFFFFFFFFFF AND PUSH2 0xE1C PUSH2 0x10CA JUMP JUMPDEST PUSH20 0xFFFFFFFFFFFFFFFFFFFFFFFFFFFFFFFFFFFFFFFF AND EQ PUSH2 0xE72 JUMPI PUSH1 0x40 MLOAD PUSH32 0x8C379A000000000000000000000000000000000000000000000000000000000 DUP2 MSTORE PUSH1 0x4 ADD PUSH2 0xE69 SWAP1 PUSH2 0x2F77 JUMP JUMPDEST PUSH1 0x40 MLOAD DUP1 SWAP2 SUB SWAP1 REVERT JUMPDEST PUSH0 PUSH2 0xE7B PUSH2 0x10CA JUMP JUMPDEST SWAP1 POP DUP1 PUSH20 0xFFFFFFFFFFFFFFFFFFFFFFFFFFFFFFFFFFFFFFFF AND PUSH2 0x8FC SELFBALANCE SWAP1 DUP2 ISZERO MUL SWAP1 PUSH1 0x40 MLOAD PUSH0 PUSH1 0x40 MLOAD DUP1 DUP4 SUB DUP2 DUP6 DUP9 DUP9 CALL SWAP4 POP POP POP POP ISZERO DUP1 ISZERO PUSH2 0xEC0 JUMPI RETURNDATASIZE PUSH0 DUP1 RETURNDATACOPY RETURNDATASIZE PUSH0 REVERT JUMPDEST POP POP JUMP JUMPDEST PUSH2 0xEDE DUP4 DUP4 DUP4 PUSH1 0x40 MLOAD DUP1 PUSH1 0x20 ADD PUSH1 0x40 MSTORE DUP1 PUSH0 DUP2 MSTORE POP PUSH2 0x1247 JUMP JUMPDEST POP POP POP JUMP JUMPDEST PUSH0 DUP1 PUSH1 0x2 PUSH0 DUP5 DUP2 MSTORE PUSH1 0x20 ADD SWAP1 DUP2 MSTORE PUSH1 0x20 ADD PUSH0 KECCAK256 PUSH0 SWAP1 SLOAD SWAP1 PUSH2 0x100 EXP SWAP1 DIV PUSH20 0xFFFFFFFFFFFFFFFFFFFFFFFFFFFFFFFFFFFFFFFF AND SWAP1 POP PUSH0 PUSH20 0xFFFFFFFFFFFFFFFFFFFFFFFFFFFFFFFFFFFFFFFF AND DUP2 PUSH20 0xFFFFFFFFFFFFFFFFFFFFFFFFFFFFFFFFFFFFFFFF AND SUB PUSH2 0xF86 JUMPI PUSH1 0x40 MLOAD PUSH32 0x8C379A000000000000000000000000000000000000000000000000000000000 DUP2 MSTORE PUSH1 0x4 ADD PUSH2 0xF7D SWAP1 PUSH2 0x3005 JUMP JUMPDEST PUSH1 0x40 MLOAD DUP1 SWAP2 SUB SWAP1 REVERT JUMPDEST DUP1 SWAP2 POP POP SWAP2 SWAP1 POP JUMP JUMPDEST PUSH0 DUP1 PUSH20 0xFFFFFFFFFFFFFFFFFFFFFFFFFFFFFFFFFFFFFFFF AND DUP3 PUSH20 0xFFFFFFFFFFFFFFFFFFFFFFFFFFFFFFFFFFFFFFFF AND SUB PUSH2 0xFFE JUMPI PUSH1 0x40 MLOAD PUSH32 0x8C379A000000000000000000000000000000000000000000000000000000000 DUP2 MSTORE PUSH1 0x4 ADD PUSH2 0xFF5 SWAP1 PUSH2 0x3093 JUMP JUMPDEST PUSH1 0x40 MLOAD DUP1 SWAP2 SUB SWAP1 REVERT JUMPDEST PUSH1 0x3 PUSH0 DUP4 PUSH20 0xFFFFFFFFFFFFFFFFFFFFFFFFFFFFFFFFFFFFFFFF AND PUSH20 0xFFFFFFFFFFFFFFFFFFFFFFFFFFFFFFFFFFFFFFFF AND DUP2 MSTORE PUSH1 0x20 ADD SWAP1 DUP2 MSTORE PUSH1 0x20 ADD PUSH0 KECCAK256 SLOAD SWAP1 POP SWAP2 SWAP1 POP JUMP JUMPDEST PUSH2 0x104B PUSH2 0x15A8 JUMP JUMPDEST PUSH20 0xFFFFFFFFFFFFFFFFFFFFFFFFFFFFFFFFFFFFFFFF AND PUSH2 0x1069 PUSH2 0x10CA JUMP JUMPDEST PUSH20 0xFFFFFFFFFFFFFFFFFFFFFFFFFFFFFFFFFFFFFFFF AND EQ PUSH2 0x10BF JUMPI PUSH1 0x40 MLOAD PUSH32 0x8C379A000000000000000000000000000000000000000000000000000000000 DUP2 MSTORE PUSH1 0x4 ADD PUSH2 0x10B6 SWAP1 PUSH2 0x2F77 JUMP JUMPDEST PUSH1 0x40 MLOAD DUP1 SWAP2 SUB SWAP1 REVERT JUMPDEST PUSH2 0x10C8 PUSH0 PUSH2 0x1AF4 JUMP JUMPDEST JUMP JUMPDEST PUSH0 PUSH1 0x6 PUSH0 SWAP1 SLOAD SWAP1 PUSH2 0x100 EXP SWAP1 DIV PUSH20 0xFFFFFFFFFFFFFFFFFFFFFFFFFFFFFFFFFFFFFFFF AND SWAP1 POP SWAP1 JUMP JUMPDEST PUSH2 0x10FA PUSH2 0x15A8 JUMP JUMPDEST PUSH20 0xFFFFFFFFFFFFFFFFFFFFFFFFFFFFFFFFFFFFFFFF AND PUSH2 0x1118 PUSH2 0x10CA JUMP JUMPDEST PUSH20 0xFFFFFFFFFFFFFFFFFFFFFFFFFFFFFFFFFFFFFFFF AND EQ PUSH2 0x116E JUMPI PUSH1 0x40 MLOAD PUSH32 0x8C379A000000000000000000000000000000000000000000000000000000000 DUP2 MSTORE PUSH1 0x4 ADD PUSH2 0x1165 SWAP1 PUSH2 0x2F77 JUMP JUMPDEST PUSH1 0x40 MLOAD DUP1 SWAP2 SUB SWAP1 REVERT JUMPDEST DUP1 PUSH1 0x8 DUP2 SWAP1 SSTORE POP POP JUMP JUMPDEST PUSH1 0x60 PUSH1 0x1 DUP1 SLOAD PUSH2 0x1187 SWAP1 PUSH2 0x2BFC JUMP JUMPDEST DUP1 PUSH1 0x1F ADD PUSH1 0x20 DUP1 SWAP2 DIV MUL PUSH1 0x20 ADD PUSH1 0x40 MLOAD SWAP1 DUP2 ADD PUSH1 0x40 MSTORE DUP1 SWAP3 SWAP2 SWAP1 DUP2 DUP2 MSTORE PUSH1 0x20 ADD DUP3 DUP1 SLOAD PUSH2 0x11B3 SWAP1 PUSH2 0x2BFC JUMP JUMPDEST DUP1 ISZERO PUSH2 0x11FE JUMPI DUP1 PUSH1 0x1F LT PUSH2 0x11D5 JUMPI PUSH2 0x100 DUP1 DUP4 SLOAD DIV MUL DUP4 MSTORE SWAP2 PUSH1 0x20 ADD SWAP2 PUSH2 0x11FE JUMP JUMPDEST DUP3 ADD SWAP2 SWAP1 PUSH0 MSTORE PUSH1 0x20 PUSH0 KECCAK256 SWAP1 JUMPDEST DUP2 SLOAD DUP2 MSTORE SWAP1 PUSH1 0x1 ADD SWAP1 PUSH1 0x20 ADD DUP1 DUP4 GT PUSH2 0x11E1 JUMPI DUP3 SWAP1 SUB PUSH1 0x1F AND DUP3 ADD SWAP2 JUMPDEST POP POP POP POP POP SWAP1 POP SWAP1 JUMP JUMPDEST PUSH0 DUP1 PUSH0 ADDRESS SWAP1 POP PUSH0 PUSH8 0xDE0B6B3A7640000 SELFBALANCE PUSH2 0x1223 SWAP2 SWAP1 PUSH2 0x30DE JUMP JUMPDEST SWAP1 POP DUP2 DUP2 SWAP4 POP SWAP4 POP POP POP SWAP1 SWAP2 JUMP JUMPDEST PUSH2 0x1243 PUSH2 0x123C PUSH2 0x15A8 JUMP JUMPDEST DUP4 DUP4 PUSH2 0x1BB7 JUMP JUMPDEST POP POP JUMP JUMPDEST PUSH2 0x1258 PUSH2 0x1252 PUSH2 0x15A8 JUMP JUMPDEST DUP4 PUSH2 0x1665 JUMP JUMPDEST PUSH2 0x1297 JUMPI PUSH1 0x40 MLOAD PUSH32 0x8C379A000000000000000000000000000000000000000000000000000000000 DUP2 MSTORE PUSH1 0x4 ADD PUSH2 0x128E SWAP1 PUSH2 0x2F0F JUMP JUMPDEST PUSH1 0x40 MLOAD DUP1 SWAP2 SUB SWAP1 REVERT JUMPDEST PUSH2 0x12A3 DUP5 DUP5 DUP5 DUP5 PUSH2 0x1D1E JUMP JUMPDEST POP POP POP POP JUMP JUMPDEST PUSH1 0x60 PUSH2 0x12B4 DUP3 PUSH2 0x1540 JUMP JUMPDEST PUSH2 0x12F3 JUMPI PUSH1 0x40 MLOAD PUSH32 0x8C379A000000000000000000000000000000000000000000000000000000000 DUP2 MSTORE PUSH1 0x4 ADD PUSH2 0x12EA SWAP1 PUSH2 0x317E JUMP JUMPDEST PUSH1 0x40 MLOAD DUP1 SWAP2 SUB SWAP1 REVERT JUMPDEST PUSH0 PUSH2 0x12FC PUSH2 0x1D7A JUMP JUMPDEST SWAP1 POP PUSH0 DUP2 MLOAD GT PUSH2 0x131A JUMPI PUSH1 0x40 MLOAD DUP1 PUSH1 0x20 ADD PUSH1 0x40 MSTORE DUP1 PUSH0 DUP2 MSTORE POP PUSH2 0x1345 JUMP JUMPDEST DUP1 PUSH2 0x1324 DUP5 PUSH2 0x1D90 JUMP JUMPDEST PUSH1 0x40 MLOAD PUSH1 0x20 ADD PUSH2 0x1335 SWAP3 SWAP2 SWAP1 PUSH2 0x31D6 JUMP JUMPDEST PUSH1 0x40 MLOAD PUSH1 0x20 DUP2 DUP4 SUB SUB DUP2 MSTORE SWAP1 PUSH1 0x40 MSTORE JUMPDEST SWAP2 POP POP SWAP2 SWAP1 POP JUMP JUMPDEST PUSH1 0x8 SLOAD DUP2 JUMP JUMPDEST PUSH0 PUSH1 0x5 PUSH0 DUP5 PUSH20 0xFFFFFFFFFFFFFFFFFFFFFFFFFFFFFFFFFFFFFFFF AND PUSH20 0xFFFFFFFFFFFFFFFFFFFFFFFFFFFFFFFFFFFFFFFF AND DUP2 MSTORE PUSH1 0x20 ADD SWAP1 DUP2 MSTORE PUSH1 0x20 ADD PUSH0 KECCAK256 PUSH0 DUP4 PUSH20 0xFFFFFFFFFFFFFFFFFFFFFFFFFFFFFFFFFFFFFFFF AND PUSH20 0xFFFFFFFFFFFFFFFFFFFFFFFFFFFFFFFFFFFFFFFF AND DUP2 MSTORE PUSH1 0x20 ADD SWAP1 DUP2 MSTORE PUSH1 0x20 ADD PUSH0 KECCAK256 PUSH0 SWAP1 SLOAD SWAP1 PUSH2 0x100 EXP SWAP1 DIV PUSH1 0xFF AND SWAP1 POP SWAP3 SWAP2 POP POP JUMP JUMPDEST PUSH2 0x13E9 PUSH2 0x15A8 JUMP JUMPDEST PUSH20 0xFFFFFFFFFFFFFFFFFFFFFFFFFFFFFFFFFFFFFFFF AND PUSH2 0x1407 PUSH2 0x10CA JUMP JUMPDEST PUSH20 0xFFFFFFFFFFFFFFFFFFFFFFFFFFFFFFFFFFFFFFFF AND EQ PUSH2 0x145D JUMPI PUSH1 0x40 MLOAD PUSH32 0x8C379A000000000000000000000000000000000000000000000000000000000 DUP2 MSTORE PUSH1 0x4 ADD PUSH2 0x1454 SWAP1 PUSH2 0x2F77 JUMP JUMPDEST PUSH1 0x40 MLOAD DUP1 SWAP2 SUB SWAP1 REVERT JUMPDEST PUSH0 PUSH20 0xFFFFFFFFFFFFFFFFFFFFFFFFFFFFFFFFFFFFFFFF AND DUP2 PUSH20 0xFFFFFFFFFFFFFFFFFFFFFFFFFFFFFFFFFFFFFFFF AND SUB PUSH2 0x14CB JUMPI PUSH1 0x40 MLOAD PUSH32 0x8C379A000000000000000000000000000000000000000000000000000000000 DUP2 MSTORE PUSH1 0x4 ADD PUSH2 0x14C2 SWAP1 PUSH2 0x3269 JUMP JUMPDEST PUSH1 0x40 MLOAD DUP1 SWAP2 SUB SWAP1 REVERT JUMPDEST PUSH2 0x14D4 DUP2 PUSH2 0x1AF4 JUMP JUMPDEST POP JUMP JUMPDEST PUSH0 PUSH32 0x1FFC9A700000000000000000000000000000000000000000000000000000000 PUSH28 0xFFFFFFFFFFFFFFFFFFFFFFFFFFFFFFFFFFFFFFFFFFFFFFFFFFFFFFFF NOT AND DUP3 PUSH28 0xFFFFFFFFFFFFFFFFFFFFFFFFFFFFFFFFFFFFFFFFFFFFFFFFFFFFFFFF NOT AND EQ SWAP1 POP SWAP2 SWAP1 POP JUMP JUMPDEST PUSH0 DUP1 PUSH20 0xFFFFFFFFFFFFFFFFFFFFFFFFFFFFFFFFFFFFFFFF AND PUSH1 0x2 PUSH0 DUP5 DUP2 MSTORE PUSH1 0x20 ADD SWAP1 DUP2 MSTORE PUSH1 0x20 ADD PUSH0 KECCAK256 PUSH0 SWAP1 SLOAD SWAP1 PUSH2 0x100 EXP SWAP1 DIV PUSH20 0xFFFFFFFFFFFFFFFFFFFFFFFFFFFFFFFFFFFFFFFF AND PUSH20 0xFFFFFFFFFFFFFFFFFFFFFFFFFFFFFFFFFFFFFFFF AND EQ ISZERO SWAP1 POP SWAP2 SWAP1 POP JUMP JUMPDEST PUSH0 CALLER SWAP1 POP SWAP1 JUMP JUMPDEST DUP2 PUSH1 0x4 PUSH0 DUP4 DUP2 MSTORE PUSH1 0x20 ADD SWAP1 DUP2 MSTORE PUSH1 0x20 ADD PUSH0 KECCAK256 PUSH0 PUSH2 0x100 EXP DUP2 SLOAD DUP2 PUSH20 0xFFFFFFFFFFFFFFFFFFFFFFFFFFFFFFFFFFFFFFFF MUL NOT AND SWAP1 DUP4 PUSH20 0xFFFFFFFFFFFFFFFFFFFFFFFFFFFFFFFFFFFFFFFF AND MUL OR SWAP1 SSTORE POP DUP1 DUP3 PUSH20 0xFFFFFFFFFFFFFFFFFFFFFFFFFFFFFFFFFFFFFFFF AND PUSH2 0x161F DUP4 PUSH2 0xEE3 JUMP JUMPDEST PUSH20 0xFFFFFFFFFFFFFFFFFFFFFFFFFFFFFFFFFFFFFFFF AND PUSH32 0x8C5BE1E5EBEC7D5BD14F71427D1E84F3DD0314C0F7B2291E5B200AC8C7C3B925 PUSH1 0x40 MLOAD PUSH1 0x40 MLOAD DUP1 SWAP2 SUB SWAP1 LOG4 POP POP JUMP JUMPDEST PUSH0 PUSH2 0x166F DUP3 PUSH2 0x1540 JUMP JUMPDEST PUSH2 0x16AE JUMPI PUSH1 0x40 MLOAD PUSH32 0x8C379A000000000000000000000000000000000000000000000000000000000 DUP2 MSTORE PUSH1 0x4 ADD PUSH2 0x16A5 SWAP1 PUSH2 0x32F7 JUMP JUMPDEST PUSH1 0x40 MLOAD DUP1 SWAP2 SUB SWAP1 REVERT JUMPDEST PUSH0 PUSH2 0x16B8 DUP4 PUSH2 0xEE3 JUMP JUMPDEST SWAP1 POP DUP1 PUSH20 0xFFFFFFFFFFFFFFFFFFFFFFFFFFFFFFFFFFFFFFFF AND DUP5 PUSH20 0xFFFFFFFFFFFFFFFFFFFFFFFFFFFFFFFFFFFFFFFF AND EQ DUP1 PUSH2 0x1727 JUMPI POP DUP4 PUSH20 0xFFFFFFFFFFFFFFFFFFFFFFFFFFFFFFFFFFFFFFFF AND PUSH2 0x170F DUP5 PUSH2 0x816 JUMP JUMPDEST PUSH20 0xFFFFFFFFFFFFFFFFFFFFFFFFFFFFFFFFFFFFFFFF AND EQ JUMPDEST DUP1 PUSH2 0x1738 JUMPI POP PUSH2 0x1737 DUP2 DUP6 PUSH2 0x1353 JUMP JUMPDEST JUMPDEST SWAP2 POP POP SWAP3 SWAP2 POP POP JUMP JUMPDEST DUP3 PUSH20 0xFFFFFFFFFFFFFFFFFFFFFFFFFFFFFFFFFFFFFFFF AND PUSH2 0x1761 DUP3 PUSH2 0xEE3 JUMP JUMPDEST PUSH20 0xFFFFFFFFFFFFFFFFFFFFFFFFFFFFFFFFFFFFFFFF AND EQ PUSH2 0x17B7 JUMPI PUSH1 0x40 MLOAD PUSH32 0x8C379A000000000000000000000000000000000000000000000000000000000 DUP2 MSTORE PUSH1 0x4 ADD PUSH2 0x17AE SWAP1 PUSH2 0x3385 JUMP JUMPDEST PUSH1 0x40 MLOAD DUP1 SWAP2 SUB SWAP1 REVERT JUMPDEST PUSH0 PUSH20 0xFFFFFFFFFFFFFFFFFFFFFFFFFFFFFFFFFFFFFFFF AND DUP3 PUSH20 0xFFFFFFFFFFFFFFFFFFFFFFFFFFFFFFFFFFFFFFFF AND SUB PUSH2 0x1825 JUMPI PUSH1 0x40 MLOAD PUSH32 0x8C379A000000000000000000000000000000000000000000000000000000000 DUP2 MSTORE PUSH1 0x4 ADD PUSH2 0x181C SWAP1 PUSH2 0x3413 JUMP JUMPDEST PUSH1 0x40 MLOAD DUP1 SWAP2 SUB SWAP1 REVERT JUMPDEST PUSH2 0x1830 DUP4 DUP4 DUP4 PUSH2 0x1EE9 JUMP JUMPDEST PUSH2 0x183A PUSH0 DUP3 PUSH2 0x15AF JUMP JUMPDEST PUSH1 0x1 PUSH1 0x3 PUSH0 DUP6 PUSH20 0xFFFFFFFFFFFFFFFFFFFFFFFFFFFFFFFFFFFFFFFF AND PUSH20 0xFFFFFFFFFFFFFFFFFFFFFFFFFFFFFFFFFFFFFFFF AND DUP2 MSTORE PUSH1 0x20 ADD SWAP1 DUP2 MSTORE PUSH1 0x20 ADD PUSH0 KECCAK256 PUSH0 DUP3 DUP3 SLOAD PUSH2 0x1887 SWAP2 SWAP1 PUSH2 0x3431 JUMP JUMPDEST SWAP3 POP POP DUP2 SWAP1 SSTORE POP PUSH1 0x1 PUSH1 0x3 PUSH0 DUP5 PUSH20 0xFFFFFFFFFFFFFFFFFFFFFFFFFFFFFFFFFFFFFFFF AND PUSH20 0xFFFFFFFFFFFFFFFFFFFFFFFFFFFFFFFFFFFFFFFF AND DUP2 MSTORE PUSH1 0x20 ADD SWAP1 DUP2 MSTORE PUSH1 0x20 ADD PUSH0 KECCAK256 PUSH0 DUP3 DUP3 SLOAD PUSH2 0x18DB SWAP2 SWAP1 PUSH2 0x3464 JUMP JUMPDEST SWAP3 POP POP DUP2 SWAP1 SSTORE POP DUP2 PUSH1 0x2 PUSH0 DUP4 DUP2 MSTORE PUSH1 0x20 ADD SWAP1 DUP2 MSTORE PUSH1 0x20 ADD PUSH0 KECCAK256 PUSH0 PUSH2 0x100 EXP DUP2 SLOAD DUP2 PUSH20 0xFFFFFFFFFFFFFFFFFFFFFFFFFFFFFFFFFFFFFFFF MUL NOT AND SWAP1 DUP4 PUSH20 0xFFFFFFFFFFFFFFFFFFFFFFFFFFFFFFFFFFFFFFFF AND MUL OR SWAP1 SSTORE POP DUP1 DUP3 PUSH20 0xFFFFFFFFFFFFFFFFFFFFFFFFFFFFFFFFFFFFFFFF AND DUP5 PUSH20 0xFFFFFFFFFFFFFFFFFFFFFFFFFFFFFFFFFFFFFFFF AND PUSH32 0xDDF252AD1BE2C89B69C2B068FC378DAA952BA7F163C4A11628F55A4DF523B3EF PUSH1 0x40 MLOAD PUSH1 0x40 MLOAD DUP1 SWAP2 SUB SWAP1 LOG4 POP POP POP JUMP JUMPDEST PUSH0 PUSH2 0x199D PUSH2 0x3E8 PUSH2 0x1EEE JUMP JUMPDEST SWAP1 POP PUSH0 PUSH2 0x19B0 PUSH7 0x2386F26FC10000 PUSH2 0x1EEE JUMP JUMPDEST SWAP1 POP PUSH0 PUSH1 0x40 MLOAD DUP1 PUSH1 0xA0 ADD PUSH1 0x40 MSTORE DUP1 DUP6 DUP2 MSTORE PUSH1 0x20 ADD PUSH1 0x7 SLOAD DUP2 MSTORE PUSH1 0x20 ADD DUP4 DUP2 MSTORE PUSH1 0x20 ADD PUSH1 0x1 PUSH1 0xFF AND DUP2 MSTORE PUSH1 0x20 ADD DUP5 PUSH1 0xFF AND DUP2 MSTORE POP SWAP1 POP PUSH1 0x9 DUP2 SWAP1 DUP1 PUSH1 0x1 DUP2 SLOAD ADD DUP1 DUP3 SSTORE DUP1 SWAP2 POP POP PUSH1 0x1 SWAP1 SUB SWAP1 PUSH0 MSTORE PUSH1 0x20 PUSH0 KECCAK256 SWAP1 PUSH1 0x4 MUL ADD PUSH0 SWAP1 SWAP2 SWAP1 SWAP2 SWAP1 SWAP2 POP PUSH0 DUP3 ADD MLOAD DUP2 PUSH0 ADD SWAP1 DUP2 PUSH2 0x1A21 SWAP2 SWAP1 PUSH2 0x3634 JUMP JUMPDEST POP PUSH1 0x20 DUP3 ADD MLOAD DUP2 PUSH1 0x1 ADD SSTORE PUSH1 0x40 DUP3 ADD MLOAD DUP2 PUSH1 0x2 ADD SSTORE PUSH1 0x60 DUP3 ADD MLOAD DUP2 PUSH1 0x3 ADD PUSH0 PUSH2 0x100 EXP DUP2 SLOAD DUP2 PUSH1 0xFF MUL NOT AND SWAP1 DUP4 PUSH1 0xFF AND MUL OR SWAP1 SSTORE POP PUSH1 0x80 DUP3 ADD MLOAD DUP2 PUSH1 0x3 ADD PUSH1 0x1 PUSH2 0x100 EXP DUP2 SLOAD DUP2 PUSH1 0xFF MUL NOT AND SWAP1 DUP4 PUSH1 0xFF AND MUL OR SWAP1 SSTORE POP POP POP PUSH2 0x1A85 CALLER PUSH1 0x7 SLOAD PUSH2 0x1F36 JUMP JUMPDEST CALLER PUSH20 0xFFFFFFFFFFFFFFFFFFFFFFFFFFFFFFFFFFFFFFFF AND PUSH32 0xE6C61928F551CEAB96529F7F8E907A65BAD987BE27D94F9F8B77238BD4335B06 PUSH1 0x7 SLOAD DUP5 PUSH1 0x40 MLOAD PUSH2 0x1ACF SWAP3 SWAP2 SWAP1 PUSH2 0x3703 JUMP JUMPDEST PUSH1 0x40 MLOAD DUP1 SWAP2 SUB SWAP1 LOG2 PUSH1 0x7 PUSH0 DUP2 SLOAD DUP1 SWAP3 SWAP2 SWAP1 PUSH2 0x1AE9 SWAP1 PUSH2 0x2E58 JUMP JUMPDEST SWAP2 SWAP1 POP SSTORE POP POP POP POP POP JUMP JUMPDEST PUSH0 PUSH1 0x6 PUSH0 SWAP1 SLOAD SWAP1 PUSH2 0x100 EXP SWAP1 DIV PUSH20 0xFFFFFFFFFFFFFFFFFFFFFFFFFFFFFFFFFFFFFFFF AND SWAP1 POP DUP2 PUSH1 0x6 PUSH0 PUSH2 0x100 EXP DUP2 SLOAD DUP2 PUSH20 0xFFFFFFFFFFFFFFFFFFFFFFFFFFFFFFFFFFFFFFFF MUL NOT AND SWAP1 DUP4 PUSH20 0xFFFFFFFFFFFFFFFFFFFFFFFFFFFFFFFFFFFFFFFF AND MUL OR SWAP1 SSTORE POP DUP2 PUSH20 0xFFFFFFFFFFFFFFFFFFFFFFFFFFFFFFFFFFFFFFFF AND DUP2 PUSH20 0xFFFFFFFFFFFFFFFFFFFFFFFFFFFFFFFFFFFFFFFF AND PUSH32 0x8BE0079C531659141344CD1FD0A4F28419497F9722A3DAAFE3B4186F6B6457E0 PUSH1 0x40 MLOAD PUSH1 0x40 MLOAD DUP1 SWAP2 SUB SWAP1 LOG3 POP POP JUMP JUMPDEST DUP2 PUSH20 0xFFFFFFFFFFFFFFFFFFFFFFFFFFFFFFFFFFFFFFFF AND DUP4 PUSH20 0xFFFFFFFFFFFFFFFFFFFFFFFFFFFFFFFFFFFFFFFF AND SUB PUSH2 0x1C25 JUMPI PUSH1 0x40 MLOAD PUSH32 0x8C379A000000000000000000000000000000000000000000000000000000000 DUP2 MSTORE PUSH1 0x4 ADD PUSH2 0x1C1C SWAP1 PUSH2 0x3774 JUMP JUMPDEST PUSH1 0x40 MLOAD DUP1 SWAP2 SUB SWAP1 REVERT JUMPDEST DUP1 PUSH1 0x5 PUSH0 DUP6 PUSH20 0xFFFFFFFFFFFFFFFFFFFFFFFFFFFFFFFFFFFFFFFF AND PUSH20 0xFFFFFFFFFFFFFFFFFFFFFFFFFFFFFFFFFFFFFFFF AND DUP2 MSTORE PUSH1 0x20 ADD SWAP1 DUP2 MSTORE PUSH1 0x20 ADD PUSH0 KECCAK256 PUSH0 DUP5 PUSH20 0xFFFFFFFFFFFFFFFFFFFFFFFFFFFFFFFFFFFFFFFF AND PUSH20 0xFFFFFFFFFFFFFFFFFFFFFFFFFFFFFFFFFFFFFFFF AND DUP2 MSTORE PUSH1 0x20 ADD SWAP1 DUP2 MSTORE PUSH1 0x20 ADD PUSH0 KECCAK256 PUSH0 PUSH2 0x100 EXP DUP2 SLOAD DUP2 PUSH1 0xFF MUL NOT AND SWAP1 DUP4 ISZERO ISZERO MUL OR SWAP1 SSTORE POP DUP2 PUSH20 0xFFFFFFFFFFFFFFFFFFFFFFFFFFFFFFFFFFFFFFFF AND DUP4 PUSH20 0xFFFFFFFFFFFFFFFFFFFFFFFFFFFFFFFFFFFFFFFF AND PUSH32 0x17307EAB39AB6107E8899845AD3D59BD9653F200F220920489CA2B5937696C31 DUP4 PUSH1 0x40 MLOAD PUSH2 0x1D11 SWAP2 SWAP1 PUSH2 0x23E0 JUMP JUMPDEST PUSH1 0x40 MLOAD DUP1 SWAP2 SUB SWAP1 LOG3 POP POP POP JUMP JUMPDEST PUSH2 0x1D29 DUP5 DUP5 DUP5 PUSH2 0x1741 JUMP JUMPDEST PUSH2 0x1D35 DUP5 DUP5 DUP5 DUP5 PUSH2 0x1F53 JUMP JUMPDEST PUSH2 0x1D74 JUMPI PUSH1 0x40 MLOAD PUSH32 0x8C379A000000000000000000000000000000000000000000000000000000000 DUP2 MSTORE PUSH1 0x4 ADD PUSH2 0x1D6B SWAP1 PUSH2 0x3802 JUMP JUMPDEST PUSH1 0x40 MLOAD DUP1 SWAP2 SUB SWAP1 REVERT JUMPDEST POP POP POP POP JUMP JUMPDEST PUSH1 0x60 PUSH1 0x40 MLOAD DUP1 PUSH1 0x20 ADD PUSH1 0x40 MSTORE DUP1 PUSH0 DUP2 MSTORE POP SWAP1 POP SWAP1 JUMP JUMPDEST PUSH1 0x60 PUSH0 DUP3 SUB PUSH2 0x1DD6 JUMPI PUSH1 0x40 MLOAD DUP1 PUSH1 0x40 ADD PUSH1 0x40 MSTORE DUP1 PUSH1 0x1 DUP2 MSTORE PUSH1 0x20 ADD PUSH32 0x3000000000000000000000000000000000000000000000000000000000000000 DUP2 MSTORE POP SWAP1 POP PUSH2 0x1EE4 JUMP JUMPDEST PUSH0 DUP3 SWAP1 POP PUSH0 JUMPDEST PUSH0 DUP3 EQ PUSH2 0x1E05 JUMPI DUP1 DUP1 PUSH2 0x1DEE SWAP1 PUSH2 0x2E58 JUMP JUMPDEST SWAP2 POP POP PUSH1 0xA DUP3 PUSH2 0x1DFE SWAP2 SWAP1 PUSH2 0x30DE JUMP JUMPDEST SWAP2 POP PUSH2 0x1DDC JUMP JUMPDEST PUSH0 DUP2 PUSH8 0xFFFFFFFFFFFFFFFF DUP2 GT ISZERO PUSH2 0x1E20 JUMPI PUSH2 0x1E1F PUSH2 0x2860 JUMP JUMPDEST JUMPDEST PUSH1 0x40 MLOAD SWAP1 DUP1 DUP3 MSTORE DUP1 PUSH1 0x1F ADD PUSH1 0x1F NOT AND PUSH1 0x20 ADD DUP3 ADD PUSH1 0x40 MSTORE DUP1 ISZERO PUSH2 0x1E52 JUMPI DUP2 PUSH1 0x20 ADD PUSH1 0x1 DUP3 MUL DUP1 CALLDATASIZE DUP4 CALLDATACOPY DUP1 DUP3 ADD SWAP2 POP POP SWAP1 POP JUMPDEST POP SWAP1 POP JUMPDEST PUSH0 DUP6 EQ PUSH2 0x1EDD JUMPI PUSH1 0x1 DUP3 PUSH2 0x1E6A SWAP2 SWAP1 PUSH2 0x3431 JUMP JUMPDEST SWAP2 POP PUSH1 0xA DUP6 PUSH2 0x1E79 SWAP2 SWAP1 PUSH2 0x3820 JUMP JUMPDEST PUSH1 0x30 PUSH2 0x1E85 SWAP2 SWAP1 PUSH2 0x3464 JUMP JUMPDEST PUSH1 0xF8 SHL DUP2 DUP4 DUP2 MLOAD DUP2 LT PUSH2 0x1E9B JUMPI PUSH2 0x1E9A PUSH2 0x2DD6 JUMP JUMPDEST JUMPDEST PUSH1 0x20 ADD ADD SWAP1 PUSH31 0xFFFFFFFFFFFFFFFFFFFFFFFFFFFFFFFFFFFFFFFFFFFFFFFFFFFFFFFFFFFFFF NOT AND SWAP1 DUP2 PUSH0 BYTE SWAP1 MSTORE8 POP PUSH1 0xA DUP6 PUSH2 0x1ED6 SWAP2 SWAP1 PUSH2 0x30DE JUMP JUMPDEST SWAP5 POP PUSH2 0x1E56 JUMP JUMPDEST DUP1 SWAP4 POP POP POP POP JUMPDEST SWAP2 SWAP1 POP JUMP JUMPDEST POP POP POP JUMP JUMPDEST PUSH0 DUP1 TIMESTAMP CALLER PUSH1 0x40 MLOAD PUSH1 0x20 ADD PUSH2 0x1F03 SWAP3 SWAP2 SWAP1 PUSH2 0x38B5 JUMP JUMPDEST PUSH1 0x40 MLOAD PUSH1 0x20 DUP2 DUP4 SUB SUB DUP2 MSTORE SWAP1 PUSH1 0x40 MSTORE DUP1 MLOAD SWAP1 PUSH1 0x20 ADD KECCAK256 SWAP1 POP PUSH0 DUP2 PUSH0 SHR SWAP1 POP DUP4 DUP2 PUSH2 0x1F2D SWAP2 SWAP1 PUSH2 0x3820 JUMP JUMPDEST SWAP3 POP POP POP SWAP2 SWAP1 POP JUMP JUMPDEST PUSH2 0x1F4F DUP3 DUP3 PUSH1 0x40 MLOAD DUP1 PUSH1 0x20 ADD PUSH1 0x40 MSTORE DUP1 PUSH0 DUP2 MSTORE POP PUSH2 0x20D5 JUMP JUMPDEST POP POP JUMP JUMPDEST PUSH0 PUSH2 0x1F73 DUP5 PUSH20 0xFFFFFFFFFFFFFFFFFFFFFFFFFFFFFFFFFFFFFFFF AND PUSH2 0x212F JUMP JUMPDEST ISZERO PUSH2 0x20C8 JUMPI DUP4 PUSH20 0xFFFFFFFFFFFFFFFFFFFFFFFFFFFFFFFFFFFFFFFF AND PUSH4 0x150B7A02 PUSH2 0x1F9C PUSH2 0x15A8 JUMP JUMPDEST DUP8 DUP7 DUP7 PUSH1 0x40 MLOAD DUP6 PUSH4 0xFFFFFFFF AND PUSH1 0xE0 SHL DUP2 MSTORE PUSH1 0x4 ADD PUSH2 0x1FBE SWAP5 SWAP4 SWAP3 SWAP2 SWAP1 PUSH2 0x3932 JUMP JUMPDEST PUSH1 0x20 PUSH1 0x40 MLOAD DUP1 DUP4 SUB DUP2 PUSH0 DUP8 GAS CALL SWAP3 POP POP POP DUP1 ISZERO PUSH2 0x1FF9 JUMPI POP PUSH1 0x40 MLOAD RETURNDATASIZE PUSH1 0x1F NOT PUSH1 0x1F DUP3 ADD AND DUP3 ADD DUP1 PUSH1 0x40 MSTORE POP DUP2 ADD SWAP1 PUSH2 0x1FF6 SWAP2 SWAP1 PUSH2 0x3990 JUMP JUMPDEST PUSH1 0x1 JUMPDEST PUSH2 0x2078 JUMPI RETURNDATASIZE DUP1 PUSH0 DUP2 EQ PUSH2 0x2027 JUMPI PUSH1 0x40 MLOAD SWAP2 POP PUSH1 0x1F NOT PUSH1 0x3F RETURNDATASIZE ADD AND DUP3 ADD PUSH1 0x40 MSTORE RETURNDATASIZE DUP3 MSTORE RETURNDATASIZE PUSH0 PUSH1 0x20 DUP5 ADD RETURNDATACOPY PUSH2 0x202C JUMP JUMPDEST PUSH1 0x60 SWAP2 POP JUMPDEST POP PUSH0 DUP2 MLOAD SUB PUSH2 0x2070 JUMPI PUSH1 0x40 MLOAD PUSH32 0x8C379A000000000000000000000000000000000000000000000000000000000 DUP2 MSTORE PUSH1 0x4 ADD PUSH2 0x2067 SWAP1 PUSH2 0x3802 JUMP JUMPDEST PUSH1 0x40 MLOAD DUP1 SWAP2 SUB SWAP1 REVERT JUMPDEST DUP1 MLOAD DUP2 PUSH1 0x20 ADD REVERT JUMPDEST PUSH4 0x150B7A02 PUSH1 0xE0 SHL PUSH28 0xFFFFFFFFFFFFFFFFFFFFFFFFFFFFFFFFFFFFFFFFFFFFFFFFFFFFFFFF NOT AND DUP2 PUSH28 0xFFFFFFFFFFFFFFFFFFFFFFFFFFFFFFFFFFFFFFFFFFFFFFFFFFFFFFFF NOT AND EQ SWAP2 POP POP PUSH2 0x20CD JUMP JUMPDEST PUSH1 0x1 SWAP1 POP JUMPDEST SWAP5 SWAP4 POP POP POP POP JUMP JUMPDEST PUSH2 0x20DF DUP4 DUP4 PUSH2 0x2140 JUMP JUMPDEST PUSH2 0x20EB PUSH0 DUP5 DUP5 DUP5 PUSH2 0x1F53 JUMP JUMPDEST PUSH2 0x212A JUMPI PUSH1 0x40 MLOAD PUSH32 0x8C379A000000000000000000000000000000000000000000000000000000000 DUP2 MSTORE PUSH1 0x4 ADD PUSH2 0x2121 SWAP1 PUSH2 0x3802 JUMP JUMPDEST PUSH1 0x40 MLOAD DUP1 SWAP2 SUB SWAP1 REVERT JUMPDEST POP POP POP JUMP JUMPDEST PUSH0 DUP1 DUP3 EXTCODESIZE SWAP1 POP PUSH0 DUP2 GT SWAP2 POP POP SWAP2 SWAP1 POP JUMP JUMPDEST PUSH0 PUSH20 0xFFFFFFFFFFFFFFFFFFFFFFFFFFFFFFFFFFFFFFFF AND DUP3 PUSH20 0xFFFFFFFFFFFFFFFFFFFFFFFFFFFFFFFFFFFFFFFF AND SUB PUSH2 0x21AE JUMPI PUSH1 0x40 MLOAD PUSH32 0x8C379A000000000000000000000000000000000000000000000000000000000 DUP2 MSTORE PUSH1 0x4 ADD PUSH2 0x21A5 SWAP1 PUSH2 0x3A05 JUMP JUMPDEST PUSH1 0x40 MLOAD DUP1 SWAP2 SUB SWAP1 REVERT JUMPDEST PUSH2 0x21B7 DUP2 PUSH2 0x1540 JUMP JUMPDEST ISZERO PUSH2 0x21F7 JUMPI PUSH1 0x40 MLOAD PUSH32 0x8C379A000000000000000000000000000000000000000000000000000000000 DUP2 MSTORE PUSH1 0x4 ADD PUSH2 0x21EE SWAP1 PUSH2 0x3A6D JUMP JUMPDEST PUSH1 0x40 MLOAD DUP1 SWAP2 SUB SWAP1 REVERT JUMPDEST PUSH2 0x2202 PUSH0 DUP4 DUP4 PUSH2 0x1EE9 JUMP JUMPDEST PUSH1 0x1 PUSH1 0x3 PUSH0 DUP5 PUSH20 0xFFFFFFFFFFFFFFFFFFFFFFFFFFFFFFFFFFFFFFFF AND PUSH20 0xFFFFFFFFFFFFFFFFFFFFFFFFFFFFFFFFFFFFFFFF AND DUP2 MSTORE PUSH1 0x20 ADD SWAP1 DUP2 MSTORE PUSH1 0x20 ADD PUSH0 KECCAK256 PUSH0 DUP3 DUP3 SLOAD PUSH2 0x224F SWAP2 SWAP1 PUSH2 0x3464 JUMP JUMPDEST SWAP3 POP POP DUP2 SWAP1 SSTORE POP DUP2 PUSH1 0x2 PUSH0 DUP4 DUP2 MSTORE PUSH1 0x20 ADD SWAP1 DUP2 MSTORE PUSH1 0x20 ADD PUSH0 KECCAK256 PUSH0 PUSH2 0x100 EXP DUP2 SLOAD DUP2 PUSH20 0xFFFFFFFFFFFFFFFFFFFFFFFFFFFFFFFFFFFFFFFF MUL NOT AND SWAP1 DUP4 PUSH20 0xFFFFFFFFFFFFFFFFFFFFFFFFFFFFFFFFFFFFFFFF AND MUL OR SWAP1 SSTORE POP DUP1 DUP3 PUSH20 0xFFFFFFFFFFFFFFFFFFFFFFFFFFFFFFFFFFFFFFFF AND PUSH0 PUSH20 0xFFFFFFFFFFFFFFFFFFFFFFFFFFFFFFFFFFFFFFFF AND PUSH32 0xDDF252AD1BE2C89B69C2B068FC378DAA952BA7F163C4A11628F55A4DF523B3EF PUSH1 0x40 MLOAD PUSH1 0x40 MLOAD DUP1 SWAP2 SUB SWAP1 LOG4 POP POP JUMP JUMPDEST PUSH1 0x40 MLOAD DUP1 PUSH1 0xA0 ADD PUSH1 0x40 MSTORE DUP1 PUSH1 0x60 DUP2 MSTORE PUSH1 0x20 ADD PUSH0 DUP2 MSTORE PUSH1 0x20 ADD PUSH0 DUP2 MSTORE PUSH1 0x20 ADD PUSH0 PUSH1 0xFF AND DUP2 MSTORE PUSH1 0x20 ADD PUSH0 PUSH1 0xFF AND DUP2 MSTORE POP SWAP1 JUMP JUMPDEST PUSH0 PUSH1 0x40 MLOAD SWAP1 POP SWAP1 JUMP JUMPDEST PUSH0 DUP1 REVERT JUMPDEST PUSH0 DUP1 REVERT JUMPDEST PUSH0 PUSH32 0xFFFFFFFF00000000000000000000000000000000000000000000000000000000 DUP3 AND SWAP1 POP SWAP2 SWAP1 POP JUMP JUMPDEST PUSH2 0x237A DUP2 PUSH2 0x2346 JUMP JUMPDEST DUP2 EQ PUSH2 0x2384 JUMPI PUSH0 DUP1 REVERT JUMPDEST POP JUMP JUMPDEST PUSH0 DUP2 CALLDATALOAD SWAP1 POP PUSH2 0x2395 DUP2 PUSH2 0x2371 JUMP JUMPDEST SWAP3 SWAP2 POP POP JUMP JUMPDEST PUSH0 PUSH1 0x20 DUP3 DUP5 SUB SLT ISZERO PUSH2 0x23B0 JUMPI PUSH2 0x23AF PUSH2 0x233E JUMP JUMPDEST JUMPDEST PUSH0 PUSH2 0x23BD DUP5 DUP3 DUP6 ADD PUSH2 0x2387 JUMP JUMPDEST SWAP2 POP POP SWAP3 SWAP2 POP POP JUMP JUMPDEST PUSH0 DUP2 ISZERO ISZERO SWAP1 POP SWAP2 SWAP1 POP JUMP JUMPDEST PUSH2 0x23DA DUP2 PUSH2 0x23C6 JUMP JUMPDEST DUP3 MSTORE POP POP JUMP JUMPDEST PUSH0 PUSH1 0x20 DUP3 ADD SWAP1 POP PUSH2 0x23F3 PUSH0 DUP4 ADD DUP5 PUSH2 0x23D1 JUMP JUMPDEST SWAP3 SWAP2 POP POP JUMP JUMPDEST PUSH0 DUP2 SWAP1 POP SWAP2 SWAP1 POP JUMP JUMPDEST PUSH2 0x240B DUP2 PUSH2 0x23F9 JUMP JUMPDEST DUP2 EQ PUSH2 0x2415 JUMPI PUSH0 DUP1 REVERT JUMPDEST POP JUMP JUMPDEST PUSH0 DUP2 CALLDATALOAD SWAP1 POP PUSH2 0x2426 DUP2 PUSH2 0x2402 JUMP JUMPDEST SWAP3 SWAP2 POP POP JUMP JUMPDEST PUSH0 PUSH1 0x20 DUP3 DUP5 SUB SLT ISZERO PUSH2 0x2441 JUMPI PUSH2 0x2440 PUSH2 0x233E JUMP JUMPDEST JUMPDEST PUSH0 PUSH2 0x244E DUP5 DUP3 DUP6 ADD PUSH2 0x2418 JUMP JUMPDEST SWAP2 POP POP SWAP3 SWAP2 POP POP JUMP JUMPDEST PUSH0 DUP2 MLOAD SWAP1 POP SWAP2 SWAP1 POP JUMP JUMPDEST PUSH0 DUP3 DUP3 MSTORE PUSH1 0x20 DUP3 ADD SWAP1 POP SWAP3 SWAP2 POP POP JUMP JUMPDEST DUP3 DUP2 DUP4 MCOPY PUSH0 DUP4 DUP4 ADD MSTORE POP POP POP JUMP JUMPDEST PUSH0 PUSH1 0x1F NOT PUSH1 0x1F DUP4 ADD AND SWAP1 POP SWAP2 SWAP1 POP JUMP JUMPDEST PUSH0 PUSH2 0x2499 DUP3 PUSH2 0x2457 JUMP JUMPDEST PUSH2 0x24A3 DUP2 DUP6 PUSH2 0x2461 JUMP JUMPDEST SWAP4 POP PUSH2 0x24B3 DUP2 DUP6 PUSH1 0x20 DUP7 ADD PUSH2 0x2471 JUMP JUMPDEST PUSH2 0x24BC DUP2 PUSH2 0x247F JUMP JUMPDEST DUP5 ADD SWAP2 POP POP SWAP3 SWAP2 POP POP JUMP JUMPDEST PUSH2 0x24D0 DUP2 PUSH2 0x23F9 JUMP JUMPDEST DUP3 MSTORE POP POP JUMP JUMPDEST PUSH0 PUSH1 0xFF DUP3 AND SWAP1 POP SWAP2 SWAP1 POP JUMP JUMPDEST PUSH2 0x24EB DUP2 PUSH2 0x24D6 JUMP JUMPDEST DUP3 MSTORE POP POP JUMP JUMPDEST PUSH0 PUSH1 0xA0 DUP3 ADD SWAP1 POP DUP2 DUP2 SUB PUSH0 DUP4 ADD MSTORE PUSH2 0x2509 DUP2 DUP9 PUSH2 0x248F JUMP JUMPDEST SWAP1 POP PUSH2 0x2518 PUSH1 0x20 DUP4 ADD DUP8 PUSH2 0x24C7 JUMP JUMPDEST PUSH2 0x2525 PUSH1 0x40 DUP4 ADD DUP7 PUSH2 0x24C7 JUMP JUMPDEST PUSH2 0x2532 PUSH1 0x60 DUP4 ADD DUP6 PUSH2 0x24E2 JUMP JUMPDEST PUSH2 0x253F PUSH1 0x80 DUP4 ADD DUP5 PUSH2 0x24E2 JUMP JUMPDEST SWAP7 SWAP6 POP POP POP POP POP POP JUMP JUMPDEST PUSH0 PUSH1 0x20 DUP3 ADD SWAP1 POP DUP2 DUP2 SUB PUSH0 DUP4 ADD MSTORE PUSH2 0x2561 DUP2 DUP5 PUSH2 0x248F JUMP JUMPDEST SWAP1 POP SWAP3 SWAP2 POP POP JUMP JUMPDEST PUSH0 PUSH20 0xFFFFFFFFFFFFFFFFFFFFFFFFFFFFFFFFFFFFFFFF DUP3 AND SWAP1 POP SWAP2 SWAP1 POP JUMP JUMPDEST PUSH0 PUSH2 0x2592 DUP3 PUSH2 0x2569 JUMP JUMPDEST SWAP1 POP SWAP2 SWAP1 POP JUMP JUMPDEST PUSH2 0x25A2 DUP2 PUSH2 0x2588 JUMP JUMPDEST DUP3 MSTORE POP POP JUMP JUMPDEST PUSH0 PUSH1 0x20 DUP3 ADD SWAP1 POP PUSH2 0x25BB PUSH0 DUP4 ADD DUP5 PUSH2 0x2599 JUMP JUMPDEST SWAP3 SWAP2 POP POP JUMP JUMPDEST PUSH2 0x25CA DUP2 PUSH2 0x2588 JUMP JUMPDEST DUP2 EQ PUSH2 0x25D4 JUMPI PUSH0 DUP1 REVERT JUMPDEST POP JUMP JUMPDEST PUSH0 DUP2 CALLDATALOAD SWAP1 POP PUSH2 0x25E5 DUP2 PUSH2 0x25C1 JUMP JUMPDEST SWAP3 SWAP2 POP POP JUMP JUMPDEST PUSH0 DUP1 PUSH1 0x40 DUP4 DUP6 SUB SLT ISZERO PUSH2 0x2601 JUMPI PUSH2 0x2600 PUSH2 0x233E JUMP JUMPDEST JUMPDEST PUSH0 PUSH2 0x260E DUP6 DUP3 DUP7 ADD PUSH2 0x25D7 JUMP JUMPDEST SWAP3 POP POP PUSH1 0x20 PUSH2 0x261F DUP6 DUP3 DUP7 ADD PUSH2 0x2418 JUMP JUMPDEST SWAP2 POP POP SWAP3 POP SWAP3 SWAP1 POP JUMP JUMPDEST PUSH0 PUSH1 0x20 DUP3 DUP5 SUB SLT ISZERO PUSH2 0x263E JUMPI PUSH2 0x263D PUSH2 0x233E JUMP JUMPDEST JUMPDEST PUSH0 PUSH2 0x264B DUP5 DUP3 DUP6 ADD PUSH2 0x25D7 JUMP JUMPDEST SWAP2 POP POP SWAP3 SWAP2 POP POP JUMP JUMPDEST PUSH0 DUP2 MLOAD SWAP1 POP SWAP2 SWAP1 POP JUMP JUMPDEST PUSH0 DUP3 DUP3 MSTORE PUSH1 0x20 DUP3 ADD SWAP1 POP SWAP3 SWAP2 POP POP JUMP JUMPDEST PUSH0 DUP2 SWAP1 POP PUSH1 0x20 DUP3 ADD SWAP1 POP SWAP2 SWAP1 POP JUMP JUMPDEST PUSH0 DUP3 DUP3 MSTORE PUSH1 0x20 DUP3 ADD SWAP1 POP SWAP3 SWAP2 POP POP JUMP JUMPDEST PUSH0 PUSH2 0x2697 DUP3 PUSH2 0x2457 JUMP JUMPDEST PUSH2 0x26A1 DUP2 DUP6 PUSH2 0x267D JUMP JUMPDEST SWAP4 POP PUSH2 0x26B1 DUP2 DUP6 PUSH1 0x20 DUP7 ADD PUSH2 0x2471 JUMP JUMPDEST PUSH2 0x26BA DUP2 PUSH2 0x247F JUMP JUMPDEST DUP5 ADD SWAP2 POP POP SWAP3 SWAP2 POP POP JUMP JUMPDEST PUSH2 0x26CE DUP2 PUSH2 0x23F9 JUMP JUMPDEST DUP3 MSTORE POP POP JUMP JUMPDEST PUSH2 0x26DD DUP2 PUSH2 0x24D6 JUMP JUMPDEST DUP3 MSTORE POP POP JUMP JUMPDEST PUSH0 PUSH1 0xA0 DUP4 ADD PUSH0 DUP4 ADD MLOAD DUP5 DUP3 SUB PUSH0 DUP7 ADD MSTORE PUSH2 0x26FD DUP3 DUP3 PUSH2 0x268D JUMP JUMPDEST SWAP2 POP POP PUSH1 0x20 DUP4 ADD MLOAD PUSH2 0x2712 PUSH1 0x20 DUP7 ADD DUP3 PUSH2 0x26C5 JUMP JUMPDEST POP PUSH1 0x40 DUP4 ADD MLOAD PUSH2 0x2725 PUSH1 0x40 DUP7 ADD DUP3 PUSH2 0x26C5 JUMP JUMPDEST POP PUSH1 0x60 DUP4 ADD MLOAD PUSH2 0x2738 PUSH1 0x60 DUP7 ADD DUP3 PUSH2 0x26D4 JUMP JUMPDEST POP PUSH1 0x80 DUP4 ADD MLOAD PUSH2 0x274B PUSH1 0x80 DUP7 ADD DUP3 PUSH2 0x26D4 JUMP JUMPDEST POP DUP1 SWAP2 POP POP SWAP3 SWAP2 POP POP JUMP JUMPDEST PUSH0 PUSH2 0x2761 DUP4 DUP4 PUSH2 0x26E3 JUMP JUMPDEST SWAP1 POP SWAP3 SWAP2 POP POP JUMP JUMPDEST PUSH0 PUSH1 0x20 DUP3 ADD SWAP1 POP SWAP2 SWAP1 POP JUMP JUMPDEST PUSH0 PUSH2 0x277F DUP3 PUSH2 0x2654 JUMP JUMPDEST PUSH2 0x2789 DUP2 DUP6 PUSH2 0x265E JUMP JUMPDEST SWAP4 POP DUP4 PUSH1 0x20 DUP3 MUL DUP6 ADD PUSH2 0x279B DUP6 PUSH2 0x266E JUMP JUMPDEST DUP1 PUSH0 JUMPDEST DUP6 DUP2 LT ISZERO PUSH2 0x27D6 JUMPI DUP5 DUP5 SUB DUP10 MSTORE DUP2 MLOAD PUSH2 0x27B7 DUP6 DUP3 PUSH2 0x2756 JUMP JUMPDEST SWAP5 POP PUSH2 0x27C2 DUP4 PUSH2 0x2769 JUMP JUMPDEST SWAP3 POP PUSH1 0x20 DUP11 ADD SWAP10 POP POP PUSH1 0x1 DUP2 ADD SWAP1 POP PUSH2 0x279E JUMP JUMPDEST POP DUP3 SWAP8 POP DUP8 SWAP6 POP POP POP POP POP POP SWAP3 SWAP2 POP POP JUMP JUMPDEST PUSH0 PUSH1 0x20 DUP3 ADD SWAP1 POP DUP2 DUP2 SUB PUSH0 DUP4 ADD MSTORE PUSH2 0x2800 DUP2 DUP5 PUSH2 0x2775 JUMP JUMPDEST SWAP1 POP SWAP3 SWAP2 POP POP JUMP JUMPDEST PUSH0 DUP1 PUSH0 PUSH1 0x60 DUP5 DUP7 SUB SLT ISZERO PUSH2 0x281F JUMPI PUSH2 0x281E PUSH2 0x233E JUMP JUMPDEST JUMPDEST PUSH0 PUSH2 0x282C DUP7 DUP3 DUP8 ADD PUSH2 0x25D7 JUMP JUMPDEST SWAP4 POP POP PUSH1 0x20 PUSH2 0x283D DUP7 DUP3 DUP8 ADD PUSH2 0x25D7 JUMP JUMPDEST SWAP3 POP POP PUSH1 0x40 PUSH2 0x284E DUP7 DUP3 DUP8 ADD PUSH2 0x2418 JUMP JUMPDEST SWAP2 POP POP SWAP3 POP SWAP3 POP SWAP3 JUMP JUMPDEST PUSH0 DUP1 REVERT JUMPDEST PUSH0 DUP1 REVERT JUMPDEST PUSH32 0x4E487B7100000000000000000000000000000000000000000000000000000000 PUSH0 MSTORE PUSH1 0x41 PUSH1 0x4 MSTORE PUSH1 0x24 PUSH0 REVERT JUMPDEST PUSH2 0x2896 DUP3 PUSH2 0x247F JUMP JUMPDEST DUP2 ADD DUP2 DUP2 LT PUSH8 0xFFFFFFFFFFFFFFFF DUP3 GT OR ISZERO PUSH2 0x28B5 JUMPI PUSH2 0x28B4 PUSH2 0x2860 JUMP JUMPDEST JUMPDEST DUP1 PUSH1 0x40 MSTORE POP POP POP JUMP JUMPDEST PUSH0 PUSH2 0x28C7 PUSH2 0x2335 JUMP JUMPDEST SWAP1 POP PUSH2 0x28D3 DUP3 DUP3 PUSH2 0x288D JUMP JUMPDEST SWAP2 SWAP1 POP JUMP JUMPDEST PUSH0 PUSH8 0xFFFFFFFFFFFFFFFF DUP3 GT ISZERO PUSH2 0x28F2 JUMPI PUSH2 0x28F1 PUSH2 0x2860 JUMP JUMPDEST JUMPDEST PUSH2 0x28FB DUP3 PUSH2 0x247F JUMP JUMPDEST SWAP1 POP PUSH1 0x20 DUP2 ADD SWAP1 POP SWAP2 SWAP1 POP JUMP JUMPDEST DUP3 DUP2 DUP4 CALLDATACOPY PUSH0 DUP4 DUP4 ADD MSTORE POP POP POP JUMP JUMPDEST PUSH0 PUSH2 0x2928 PUSH2 0x2923 DUP5 PUSH2 0x28D8 JUMP JUMPDEST PUSH2 0x28BE JUMP JUMPDEST SWAP1 POP DUP3 DUP2 MSTORE PUSH1 0x20 DUP2 ADD DUP5 DUP5 DUP5 ADD GT ISZERO PUSH2 0x2944 JUMPI PUSH2 0x2943 PUSH2 0x285C JUMP JUMPDEST JUMPDEST PUSH2 0x294F DUP5 DUP3 DUP6 PUSH2 0x2908 JUMP JUMPDEST POP SWAP4 SWAP3 POP POP POP JUMP JUMPDEST PUSH0 DUP3 PUSH1 0x1F DUP4 ADD SLT PUSH2 0x296B JUMPI PUSH2 0x296A PUSH2 0x2858 JUMP JUMPDEST JUMPDEST DUP2 CALLDATALOAD PUSH2 0x297B DUP5 DUP3 PUSH1 0x20 DUP7 ADD PUSH2 0x2916 JUMP JUMPDEST SWAP2 POP POP SWAP3 SWAP2 POP POP JUMP JUMPDEST PUSH0 PUSH1 0x20 DUP3 DUP5 SUB SLT ISZERO PUSH2 0x2999 JUMPI PUSH2 0x2998 PUSH2 0x233E JUMP JUMPDEST JUMPDEST PUSH0 DUP3 ADD CALLDATALOAD PUSH8 0xFFFFFFFFFFFFFFFF DUP2 GT ISZERO PUSH2 0x29B6 JUMPI PUSH2 0x29B5 PUSH2 0x2342 JUMP JUMPDEST JUMPDEST PUSH2 0x29C2 DUP5 DUP3 DUP6 ADD PUSH2 0x2957 JUMP JUMPDEST SWAP2 POP POP SWAP3 SWAP2 POP POP JUMP JUMPDEST PUSH0 PUSH1 0x20 DUP3 ADD SWAP1 POP PUSH2 0x29DE PUSH0 DUP4 ADD DUP5 PUSH2 0x24C7 JUMP JUMPDEST SWAP3 SWAP2 POP POP JUMP JUMPDEST PUSH0 PUSH1 0x40 DUP3 ADD SWAP1 POP PUSH2 0x29F7 PUSH0 DUP4 ADD DUP6 PUSH2 0x2599 JUMP JUMPDEST PUSH2 0x2A04 PUSH1 0x20 DUP4 ADD DUP5 PUSH2 0x24C7 JUMP JUMPDEST SWAP4 SWAP3 POP POP POP JUMP JUMPDEST PUSH2 0x2A14 DUP2 PUSH2 0x23C6 JUMP JUMPDEST DUP2 EQ PUSH2 0x2A1E JUMPI PUSH0 DUP1 REVERT JUMPDEST POP JUMP JUMPDEST PUSH0 DUP2 CALLDATALOAD SWAP1 POP PUSH2 0x2A2F DUP2 PUSH2 0x2A0B JUMP JUMPDEST SWAP3 SWAP2 POP POP JUMP JUMPDEST PUSH0 DUP1 PUSH1 0x40 DUP4 DUP6 SUB SLT ISZERO PUSH2 0x2A4B JUMPI PUSH2 0x2A4A PUSH2 0x233E JUMP JUMPDEST JUMPDEST PUSH0 PUSH2 0x2A58 DUP6 DUP3 DUP7 ADD PUSH2 0x25D7 JUMP JUMPDEST SWAP3 POP POP PUSH1 0x20 PUSH2 0x2A69 DUP6 DUP3 DUP7 ADD PUSH2 0x2A21 JUMP JUMPDEST SWAP2 POP POP SWAP3 POP SWAP3 SWAP1 POP JUMP JUMPDEST PUSH0 PUSH8 0xFFFFFFFFFFFFFFFF DUP3 GT ISZERO PUSH2 0x2A8D JUMPI PUSH2 0x2A8C PUSH2 0x2860 JUMP JUMPDEST JUMPDEST PUSH2 0x2A96 DUP3 PUSH2 0x247F JUMP JUMPDEST SWAP1 POP PUSH1 0x20 DUP2 ADD SWAP1 POP SWAP2 SWAP1 POP JUMP JUMPDEST PUSH0 PUSH2 0x2AB5 PUSH2 0x2AB0 DUP5 PUSH2 0x2A73 JUMP JUMPDEST PUSH2 0x28BE JUMP JUMPDEST SWAP1 POP DUP3 DUP2 MSTORE PUSH1 0x20 DUP2 ADD DUP5 DUP5 DUP5 ADD GT ISZERO PUSH2 0x2AD1 JUMPI PUSH2 0x2AD0 PUSH2 0x285C JUMP JUMPDEST JUMPDEST PUSH2 0x2ADC DUP5 DUP3 DUP6 PUSH2 0x2908 JUMP JUMPDEST POP SWAP4 SWAP3 POP POP POP JUMP JUMPDEST PUSH0 DUP3 PUSH1 0x1F DUP4 ADD SLT PUSH2 0x2AF8 JUMPI PUSH2 0x2AF7 PUSH2 0x2858 JUMP JUMPDEST JUMPDEST DUP2 CALLDATALOAD PUSH2 0x2B08 DUP5 DUP3 PUSH1 0x20 DUP7 ADD PUSH2 0x2AA3 JUMP JUMPDEST SWAP2 POP POP SWAP3 SWAP2 POP POP JUMP JUMPDEST PUSH0 DUP1 PUSH0 DUP1 PUSH1 0x80 DUP6 DUP8 SUB SLT ISZERO PUSH2 0x2B29 JUMPI PUSH2 0x2B28 PUSH2 0x233E JUMP JUMPDEST JUMPDEST PUSH0 PUSH2 0x2B36 DUP8 DUP3 DUP9 ADD PUSH2 0x25D7 JUMP JUMPDEST SWAP5 POP POP PUSH1 0x20 PUSH2 0x2B47 DUP8 DUP3 DUP9 ADD PUSH2 0x25D7 JUMP JUMPDEST SWAP4 POP POP PUSH1 0x40 PUSH2 0x2B58 DUP8 DUP3 DUP9 ADD PUSH2 0x2418 JUMP JUMPDEST SWAP3 POP POP PUSH1 0x60 DUP6 ADD CALLDATALOAD PUSH8 0xFFFFFFFFFFFFFFFF DUP2 GT ISZERO PUSH2 0x2B79 JUMPI PUSH2 0x2B78 PUSH2 0x2342 JUMP JUMPDEST JUMPDEST PUSH2 0x2B85 DUP8 DUP3 DUP9 ADD PUSH2 0x2AE4 JUMP JUMPDEST SWAP2 POP POP SWAP3 SWAP6 SWAP2 SWAP5 POP SWAP3 POP JUMP JUMPDEST PUSH0 DUP1 PUSH1 0x40 DUP4 DUP6 SUB SLT ISZERO PUSH2 0x2BA7 JUMPI PUSH2 0x2BA6 PUSH2 0x233E JUMP JUMPDEST JUMPDEST PUSH0 PUSH2 0x2BB4 DUP6 DUP3 DUP7 ADD PUSH2 0x25D7 JUMP JUMPDEST SWAP3 POP POP PUSH1 0x20 PUSH2 0x2BC5 DUP6 DUP3 DUP7 ADD PUSH2 0x25D7 JUMP JUMPDEST SWAP2 POP POP SWAP3 POP SWAP3 SWAP1 POP JUMP JUMPDEST PUSH32 0x4E487B7100000000000000000000000000000000000000000000000000000000 PUSH0 MSTORE PUSH1 0x22 PUSH1 0x4 MSTORE PUSH1 0x24 PUSH0 REVERT JUMPDEST PUSH0 PUSH1 0x2 DUP3 DIV SWAP1 POP PUSH1 0x1 DUP3 AND DUP1 PUSH2 0x2C13 JUMPI PUSH1 0x7F DUP3 AND SWAP2 POP JUMPDEST PUSH1 0x20 DUP3 LT DUP2 SUB PUSH2 0x2C26 JUMPI PUSH2 0x2C25 PUSH2 0x2BCF JUMP JUMPDEST JUMPDEST POP SWAP2 SWAP1 POP JUMP JUMPDEST PUSH32 0x4552433732313A20617070726F76656420717565727920666F72206E6F6E6578 PUSH0 DUP3 ADD MSTORE PUSH32 0x697374656E7420746F6B656E0000000000000000000000000000000000000000 PUSH1 0x20 DUP3 ADD MSTORE POP JUMP JUMPDEST PUSH0 PUSH2 0x2C86 PUSH1 0x2C DUP4 PUSH2 0x2461 JUMP JUMPDEST SWAP2 POP PUSH2 0x2C91 DUP3 PUSH2 0x2C2C JUMP JUMPDEST PUSH1 0x40 DUP3 ADD SWAP1 POP SWAP2 SWAP1 POP JUMP JUMPDEST PUSH0 PUSH1 0x20 DUP3 ADD SWAP1 POP DUP2 DUP2 SUB PUSH0 DUP4 ADD MSTORE PUSH2 0x2CB3 DUP2 PUSH2 0x2C7A JUMP JUMPDEST SWAP1 POP SWAP2 SWAP1 POP JUMP JUMPDEST PUSH32 0x4552433732313A20617070726F76616C20746F2063757272656E74206F776E65 PUSH0 DUP3 ADD MSTORE PUSH32 0x7200000000000000000000000000000000000000000000000000000000000000 PUSH1 0x20 DUP3 ADD MSTORE POP JUMP JUMPDEST PUSH0 PUSH2 0x2D14 PUSH1 0x21 DUP4 PUSH2 0x2461 JUMP JUMPDEST SWAP2 POP PUSH2 0x2D1F DUP3 PUSH2 0x2CBA JUMP JUMPDEST PUSH1 0x40 DUP3 ADD SWAP1 POP SWAP2 SWAP1 POP JUMP JUMPDEST PUSH0 PUSH1 0x20 DUP3 ADD SWAP1 POP DUP2 DUP2 SUB PUSH0 DUP4 ADD MSTORE PUSH2 0x2D41 DUP2 PUSH2 0x2D08 JUMP JUMPDEST SWAP1 POP SWAP2 SWAP1 POP JUMP JUMPDEST PUSH32 0x4552433732313A20617070726F76652063616C6C6572206973206E6F74206F77 PUSH0 DUP3 ADD MSTORE PUSH32 0x6E6572206E6F7220617070726F76656420666F7220616C6C0000000000000000 PUSH1 0x20 DUP3 ADD MSTORE POP JUMP JUMPDEST PUSH0 PUSH2 0x2DA2 PUSH1 0x38 DUP4 PUSH2 0x2461 JUMP JUMPDEST SWAP2 POP PUSH2 0x2DAD DUP3 PUSH2 0x2D48 JUMP JUMPDEST PUSH1 0x40 DUP3 ADD SWAP1 POP SWAP2 SWAP1 POP JUMP JUMPDEST PUSH0 PUSH1 0x20 DUP3 ADD SWAP1 POP DUP2 DUP2 SUB PUSH0 DUP4 ADD MSTORE PUSH2 0x2DCF DUP2 PUSH2 0x2D96 JUMP JUMPDEST SWAP1 POP SWAP2 SWAP1 POP JUMP JUMPDEST PUSH32 0x4E487B7100000000000000000000000000000000000000000000000000000000 PUSH0 MSTORE PUSH1 0x32 PUSH1 0x4 MSTORE PUSH1 0x24 PUSH0 REVERT JUMPDEST PUSH32 0x4E487B7100000000000000000000000000000000000000000000000000000000 PUSH0 MSTORE PUSH1 0x11 PUSH1 0x4 MSTORE PUSH1 0x24 PUSH0 REVERT JUMPDEST PUSH0 PUSH2 0x2E3A DUP3 PUSH2 0x24D6 JUMP JUMPDEST SWAP2 POP PUSH1 0xFF DUP3 SUB PUSH2 0x2E4D JUMPI PUSH2 0x2E4C PUSH2 0x2E03 JUMP JUMPDEST JUMPDEST PUSH1 0x1 DUP3 ADD SWAP1 POP SWAP2 SWAP1 POP JUMP JUMPDEST PUSH0 PUSH2 0x2E62 DUP3 PUSH2 0x23F9 JUMP JUMPDEST SWAP2 POP PUSH32 0xFFFFFFFFFFFFFFFFFFFFFFFFFFFFFFFFFFFFFFFFFFFFFFFFFFFFFFFFFFFFFFFF DUP3 SUB PUSH2 0x2E94 JUMPI PUSH2 0x2E93 PUSH2 0x2E03 JUMP JUMPDEST JUMPDEST PUSH1 0x1 DUP3 ADD SWAP1 POP SWAP2 SWAP1 POP JUMP JUMPDEST PUSH32 0x4552433732313A207472616E736665722063616C6C6572206973206E6F74206F PUSH0 DUP3 ADD MSTORE PUSH32 0x776E6572206E6F7220617070726F766564000000000000000000000000000000 PUSH1 0x20 DUP3 ADD MSTORE POP JUMP JUMPDEST PUSH0 PUSH2 0x2EF9 PUSH1 0x31 DUP4 PUSH2 0x2461 JUMP JUMPDEST SWAP2 POP PUSH2 0x2F04 DUP3 PUSH2 0x2E9F JUMP JUMPDEST PUSH1 0x40 DUP3 ADD SWAP1 POP SWAP2 SWAP1 POP JUMP JUMPDEST PUSH0 PUSH1 0x20 DUP3 ADD SWAP1 POP DUP2 DUP2 SUB PUSH0 DUP4 ADD MSTORE PUSH2 0x2F26 DUP2 PUSH2 0x2EED JUMP JUMPDEST SWAP1 POP SWAP2 SWAP1 POP JUMP JUMPDEST PUSH32 0x4F776E61626C653A2063616C6C6572206973206E6F7420746865206F776E6572 PUSH0 DUP3 ADD MSTORE POP JUMP JUMPDEST PUSH0 PUSH2 0x2F61 PUSH1 0x20 DUP4 PUSH2 0x2461 JUMP JUMPDEST SWAP2 POP PUSH2 0x2F6C DUP3 PUSH2 0x2F2D JUMP JUMPDEST PUSH1 0x20 DUP3 ADD SWAP1 POP SWAP2 SWAP1 POP JUMP JUMPDEST PUSH0 PUSH1 0x20 DUP3 ADD SWAP1 POP DUP2 DUP2 SUB PUSH0 DUP4 ADD MSTORE PUSH2 0x2F8E DUP2 PUSH2 0x2F55 JUMP JUMPDEST SWAP1 POP SWAP2 SWAP1 POP JUMP JUMPDEST PUSH32 0x4552433732313A206F776E657220717565727920666F72206E6F6E6578697374 PUSH0 DUP3 ADD MSTORE PUSH32 0x656E7420746F6B656E0000000000000000000000000000000000000000000000 PUSH1 0x20 DUP3 ADD MSTORE POP JUMP JUMPDEST PUSH0 PUSH2 0x2FEF PUSH1 0x29 DUP4 PUSH2 0x2461 JUMP JUMPDEST SWAP2 POP PUSH2 0x2FFA DUP3 PUSH2 0x2F95 JUMP JUMPDEST PUSH1 0x40 DUP3 ADD SWAP1 POP SWAP2 SWAP1 POP JUMP JUMPDEST PUSH0 PUSH1 0x20 DUP3 ADD SWAP1 POP DUP2 DUP2 SUB PUSH0 DUP4 ADD MSTORE PUSH2 0x301C DUP2 PUSH2 0x2FE3 JUMP JUMPDEST SWAP1 POP SWAP2 SWAP1 POP JUMP JUMPDEST PUSH32 0x4552433732313A2062616C616E636520717565727920666F7220746865207A65 PUSH0 DUP3 ADD MSTORE PUSH32 0x726F206164647265737300000000000000000000000000000000000000000000 PUSH1 0x20 DUP3 ADD MSTORE POP JUMP JUMPDEST PUSH0 PUSH2 0x307D PUSH1 0x2A DUP4 PUSH2 0x2461 JUMP JUMPDEST SWAP2 POP PUSH2 0x3088 DUP3 PUSH2 0x3023 JUMP JUMPDEST PUSH1 0x40 DUP3 ADD SWAP1 POP SWAP2 SWAP1 POP JUMP JUMPDEST PUSH0 PUSH1 0x20 DUP3 ADD SWAP1 POP DUP2 DUP2 SUB PUSH0 DUP4 ADD MSTORE PUSH2 0x30AA DUP2 PUSH2 0x3071 JUMP JUMPDEST SWAP1 POP SWAP2 SWAP1 POP JUMP JUMPDEST PUSH32 0x4E487B7100000000000000000000000000000000000000000000000000000000 PUSH0 MSTORE PUSH1 0x12 PUSH1 0x4 MSTORE PUSH1 0x24 PUSH0 REVERT JUMPDEST PUSH0 PUSH2 0x30E8 DUP3 PUSH2 0x23F9 JUMP JUMPDEST SWAP2 POP PUSH2 0x30F3 DUP4 PUSH2 0x23F9 JUMP JUMPDEST SWAP3 POP DUP3 PUSH2 0x3103 JUMPI PUSH2 0x3102 PUSH2 0x30B1 JUMP JUMPDEST JUMPDEST DUP3 DUP3 DIV SWAP1 POP SWAP3 SWAP2 POP POP JUMP JUMPDEST PUSH32 0x4552433732314D657461646174613A2055524920717565727920666F72206E6F PUSH0 DUP3 ADD MSTORE PUSH32 0x6E6578697374656E7420746F6B656E0000000000000000000000000000000000 PUSH1 0x20 DUP3 ADD MSTORE POP JUMP JUMPDEST PUSH0 PUSH2 0x3168 PUSH1 0x2F DUP4 PUSH2 0x2461 JUMP JUMPDEST SWAP2 POP PUSH2 0x3173 DUP3 PUSH2 0x310E JUMP JUMPDEST PUSH1 0x40 DUP3 ADD SWAP1 POP SWAP2 SWAP1 POP JUMP JUMPDEST PUSH0 PUSH1 0x20 DUP3 ADD SWAP1 POP DUP2 DUP2 SUB PUSH0 DUP4 ADD MSTORE PUSH2 0x3195 DUP2 PUSH2 0x315C JUMP JUMPDEST SWAP1 POP SWAP2 SWAP1 POP JUMP JUMPDEST PUSH0 DUP2 SWAP1 POP SWAP3 SWAP2 POP POP JUMP JUMPDEST PUSH0 PUSH2 0x31B0 DUP3 PUSH2 0x2457 JUMP JUMPDEST PUSH2 0x31BA DUP2 DUP6 PUSH2 0x319C JUMP JUMPDEST SWAP4 POP PUSH2 0x31CA DUP2 DUP6 PUSH1 0x20 DUP7 ADD PUSH2 0x2471 JUMP JUMPDEST DUP1 DUP5 ADD SWAP2 POP POP SWAP3 SWAP2 POP POP JUMP JUMPDEST PUSH0 PUSH2 0x31E1 DUP3 DUP6 PUSH2 0x31A6 JUMP JUMPDEST SWAP2 POP PUSH2 0x31ED DUP3 DUP5 PUSH2 0x31A6 JUMP JUMPDEST SWAP2 POP DUP2 SWAP1 POP SWAP4 SWAP3 POP POP POP JUMP JUMPDEST PUSH32 0x4F776E61626C653A206E6577206F776E657220697320746865207A65726F2061 PUSH0 DUP3 ADD MSTORE PUSH32 0x6464726573730000000000000000000000000000000000000000000000000000 PUSH1 0x20 DUP3 ADD MSTORE POP JUMP JUMPDEST PUSH0 PUSH2 0x3253 PUSH1 0x26 DUP4 PUSH2 0x2461 JUMP JUMPDEST SWAP2 POP PUSH2 0x325E DUP3 PUSH2 0x31F9 JUMP JUMPDEST PUSH1 0x40 DUP3 ADD SWAP1 POP SWAP2 SWAP1 POP JUMP JUMPDEST PUSH0 PUSH1 0x20 DUP3 ADD SWAP1 POP DUP2 DUP2 SUB PUSH0 DUP4 ADD MSTORE PUSH2 0x3280 DUP2 PUSH2 0x3247 JUMP JUMPDEST SWAP1 POP SWAP2 SWAP1 POP JUMP JUMPDEST PUSH32 0x4552433732313A206F70657261746F7220717565727920666F72206E6F6E6578 PUSH0 DUP3 ADD MSTORE PUSH32 0x697374656E7420746F6B656E0000000000000000000000000000000000000000 PUSH1 0x20 DUP3 ADD MSTORE POP JUMP JUMPDEST PUSH0 PUSH2 0x32E1 PUSH1 0x2C DUP4 PUSH2 0x2461 JUMP JUMPDEST SWAP2 POP PUSH2 0x32EC DUP3 PUSH2 0x3287 JUMP JUMPDEST PUSH1 0x40 DUP3 ADD SWAP1 POP SWAP2 SWAP1 POP JUMP JUMPDEST PUSH0 PUSH1 0x20 DUP3 ADD SWAP1 POP DUP2 DUP2 SUB PUSH0 DUP4 ADD MSTORE PUSH2 0x330E DUP2 PUSH2 0x32D5 JUMP JUMPDEST SWAP1 POP SWAP2 SWAP1 POP JUMP JUMPDEST PUSH32 0x4552433732313A207472616E73666572206F6620746F6B656E20746861742069 PUSH0 DUP3 ADD MSTORE PUSH32 0x73206E6F74206F776E0000000000000000000000000000000000000000000000 PUSH1 0x20 DUP3 ADD MSTORE POP JUMP JUMPDEST PUSH0 PUSH2 0x336F PUSH1 0x29 DUP4 PUSH2 0x2461 JUMP JUMPDEST SWAP2 POP PUSH2 0x337A DUP3 PUSH2 0x3315 JUMP JUMPDEST PUSH1 0x40 DUP3 ADD SWAP1 POP SWAP2 SWAP1 POP JUMP JUMPDEST PUSH0 PUSH1 0x20 DUP3 ADD SWAP1 POP DUP2 DUP2 SUB PUSH0 DUP4 ADD MSTORE PUSH2 0x339C DUP2 PUSH2 0x3363 JUMP JUMPDEST SWAP1 POP SWAP2 SWAP1 POP JUMP JUMPDEST PUSH32 0x4552433732313A207472616E7366657220746F20746865207A65726F20616464 PUSH0 DUP3 ADD MSTORE PUSH32 0x7265737300000000000000000000000000000000000000000000000000000000 PUSH1 0x20 DUP3 ADD MSTORE POP JUMP JUMPDEST PUSH0 PUSH2 0x33FD PUSH1 0x24 DUP4 PUSH2 0x2461 JUMP JUMPDEST SWAP2 POP PUSH2 0x3408 DUP3 PUSH2 0x33A3 JUMP JUMPDEST PUSH1 0x40 DUP3 ADD SWAP1 POP SWAP2 SWAP1 POP JUMP JUMPDEST PUSH0 PUSH1 0x20 DUP3 ADD SWAP1 POP DUP2 DUP2 SUB PUSH0 DUP4 ADD MSTORE PUSH2 0x342A DUP2 PUSH2 0x33F1 JUMP JUMPDEST SWAP1 POP SWAP2 SWAP1 POP JUMP JUMPDEST PUSH0 PUSH2 0x343B DUP3 PUSH2 0x23F9 JUMP JUMPDEST SWAP2 POP PUSH2 0x3446 DUP4 PUSH2 0x23F9 JUMP JUMPDEST SWAP3 POP DUP3 DUP3 SUB SWAP1 POP DUP2 DUP2 GT ISZERO PUSH2 0x345E JUMPI PUSH2 0x345D PUSH2 0x2E03 JUMP JUMPDEST JUMPDEST SWAP3 SWAP2 POP POP JUMP JUMPDEST PUSH0 PUSH2 0x346E DUP3 PUSH2 0x23F9 JUMP JUMPDEST SWAP2 POP PUSH2 0x3479 DUP4 PUSH2 0x23F9 JUMP JUMPDEST SWAP3 POP DUP3 DUP3 ADD SWAP1 POP DUP1 DUP3 GT ISZERO PUSH2 0x3491 JUMPI PUSH2 0x3490 PUSH2 0x2E03 JUMP JUMPDEST JUMPDEST SWAP3 SWAP2 POP POP JUMP JUMPDEST PUSH0 DUP2 SWAP1 POP DUP2 PUSH0 MSTORE PUSH1 0x20 PUSH0 KECCAK256 SWAP1 POP SWAP2 SWAP1 POP JUMP JUMPDEST PUSH0 PUSH1 0x20 PUSH1 0x1F DUP4 ADD DIV SWAP1 POP SWAP2 SWAP1 POP JUMP JUMPDEST PUSH0 DUP3 DUP3 SHL SWAP1 POP SWAP3 SWAP2 POP POP JUMP JUMPDEST PUSH0 PUSH1 0x8 DUP4 MUL PUSH2 0x34F3 PUSH32 0xFFFFFFFFFFFFFFFFFFFFFFFFFFFFFFFFFFFFFFFFFFFFFFFFFFFFFFFFFFFFFFFF DUP3 PUSH2 0x34B8 JUMP JUMPDEST PUSH2 0x34FD DUP7 DUP4 PUSH2 0x34B8 JUMP JUMPDEST SWAP6 POP DUP1 NOT DUP5 AND SWAP4 POP DUP1 DUP7 AND DUP5 OR SWAP3 POP POP POP SWAP4 SWAP3 POP POP POP JUMP JUMPDEST PUSH0 DUP2 SWAP1 POP SWAP2 SWAP1 POP JUMP JUMPDEST PUSH0 PUSH2 0x3538 PUSH2 0x3533 PUSH2 0x352E DUP5 PUSH2 0x23F9 JUMP JUMPDEST PUSH2 0x3515 JUMP JUMPDEST PUSH2 0x23F9 JUMP JUMPDEST SWAP1 POP SWAP2 SWAP1 POP JUMP JUMPDEST PUSH0 DUP2 SWAP1 POP SWAP2 SWAP1 POP JUMP JUMPDEST PUSH2 0x3551 DUP4 PUSH2 0x351E JUMP JUMPDEST PUSH2 0x3565 PUSH2 0x355D DUP3 PUSH2 0x353F JUMP JUMPDEST DUP5 DUP5 SLOAD PUSH2 0x34C4 JUMP JUMPDEST DUP3 SSTORE POP POP POP POP JUMP JUMPDEST PUSH0 SWAP1 JUMP JUMPDEST PUSH2 0x3579 PUSH2 0x356D JUMP JUMPDEST PUSH2 0x3584 DUP2 DUP5 DUP5 PUSH2 0x3548 JUMP JUMPDEST POP POP POP JUMP JUMPDEST JUMPDEST DUP2 DUP2 LT ISZERO PUSH2 0x35A7 JUMPI PUSH2 0x359C PUSH0 DUP3 PUSH2 0x3571 JUMP JUMPDEST PUSH1 0x1 DUP2 ADD SWAP1 POP PUSH2 0x358A JUMP JUMPDEST POP POP JUMP JUMPDEST PUSH1 0x1F DUP3 GT ISZERO PUSH2 0x35EC JUMPI PUSH2 0x35BD DUP2 PUSH2 0x3497 JUMP JUMPDEST PUSH2 0x35C6 DUP5 PUSH2 0x34A9 JUMP JUMPDEST DUP2 ADD PUSH1 0x20 DUP6 LT ISZERO PUSH2 0x35D5 JUMPI DUP2 SWAP1 POP JUMPDEST PUSH2 0x35E9 PUSH2 0x35E1 DUP6 PUSH2 0x34A9 JUMP JUMPDEST DUP4 ADD DUP3 PUSH2 0x3589 JUMP JUMPDEST POP POP JUMPDEST POP POP POP JUMP JUMPDEST PUSH0 DUP3 DUP3 SHR SWAP1 POP SWAP3 SWAP2 POP POP JUMP JUMPDEST PUSH0 PUSH2 0x360C PUSH0 NOT DUP5 PUSH1 0x8 MUL PUSH2 0x35F1 JUMP JUMPDEST NOT DUP1 DUP4 AND SWAP2 POP POP SWAP3 SWAP2 POP POP JUMP JUMPDEST PUSH0 PUSH2 0x3624 DUP4 DUP4 PUSH2 0x35FD JUMP JUMPDEST SWAP2 POP DUP3 PUSH1 0x2 MUL DUP3 OR SWAP1 POP SWAP3 SWAP2 POP POP JUMP JUMPDEST PUSH2 0x363D DUP3 PUSH2 0x2457 JUMP JUMPDEST PUSH8 0xFFFFFFFFFFFFFFFF DUP2 GT ISZERO PUSH2 0x3656 JUMPI PUSH2 0x3655 PUSH2 0x2860 JUMP JUMPDEST JUMPDEST PUSH2 0x3660 DUP3 SLOAD PUSH2 0x2BFC JUMP JUMPDEST PUSH2 0x366B DUP3 DUP3 DUP6 PUSH2 0x35AB JUMP JUMPDEST PUSH0 PUSH1 0x20 SWAP1 POP PUSH1 0x1F DUP4 GT PUSH1 0x1 DUP2 EQ PUSH2 0x369C JUMPI PUSH0 DUP5 ISZERO PUSH2 0x368A JUMPI DUP3 DUP8 ADD MLOAD SWAP1 POP JUMPDEST PUSH2 0x3694 DUP6 DUP3 PUSH2 0x3619 JUMP JUMPDEST DUP7 SSTORE POP PUSH2 0x36FB JUMP JUMPDEST PUSH1 0x1F NOT DUP5 AND PUSH2 0x36AA DUP7 PUSH2 0x3497 JUMP JUMPDEST PUSH0 JUMPDEST DUP3 DUP2 LT ISZERO PUSH2 0x36D1 JUMPI DUP5 DUP10 ADD MLOAD DUP3 SSTORE PUSH1 0x1 DUP3 ADD SWAP2 POP PUSH1 0x20 DUP6 ADD SWAP5 POP PUSH1 0x20 DUP2 ADD SWAP1 POP PUSH2 0x36AC JUMP JUMPDEST DUP7 DUP4 LT ISZERO PUSH2 0x36EE JUMPI DUP5 DUP10 ADD MLOAD PUSH2 0x36EA PUSH1 0x1F DUP10 AND DUP3 PUSH2 0x35FD JUMP JUMPDEST DUP4 SSTORE POP JUMPDEST PUSH1 0x1 PUSH1 0x2 DUP9 MUL ADD DUP9 SSTORE POP POP POP JUMPDEST POP POP POP POP POP POP JUMP JUMPDEST PUSH0 PUSH1 0x40 DUP3 ADD SWAP1 POP PUSH2 0x3716 PUSH0 DUP4 ADD DUP6 PUSH2 0x24C7 JUMP JUMPDEST PUSH2 0x3723 PUSH1 0x20 DUP4 ADD DUP5 PUSH2 0x24C7 JUMP JUMPDEST SWAP4 SWAP3 POP POP POP JUMP JUMPDEST PUSH32 0x4552433732313A20617070726F766520746F2063616C6C657200000000000000 PUSH0 DUP3 ADD MSTORE POP JUMP JUMPDEST PUSH0 PUSH2 0x375E PUSH1 0x19 DUP4 PUSH2 0x2461 JUMP JUMPDEST SWAP2 POP PUSH2 0x3769 DUP3 PUSH2 0x372A JUMP JUMPDEST PUSH1 0x20 DUP3 ADD SWAP1 POP SWAP2 SWAP1 POP JUMP JUMPDEST PUSH0 PUSH1 0x20 DUP3 ADD SWAP1 POP DUP2 DUP2 SUB PUSH0 DUP4 ADD MSTORE PUSH2 0x378B DUP2 PUSH2 0x3752 JUMP JUMPDEST SWAP1 POP SWAP2 SWAP1 POP JUMP JUMPDEST PUSH32 0x4552433732313A207472616E7366657220746F206E6F6E204552433732315265 PUSH0 DUP3 ADD MSTORE PUSH32 0x63656976657220696D706C656D656E7465720000000000000000000000000000 PUSH1 0x20 DUP3 ADD MSTORE POP JUMP JUMPDEST PUSH0 PUSH2 0x37EC PUSH1 0x32 DUP4 PUSH2 0x2461 JUMP JUMPDEST SWAP2 POP PUSH2 0x37F7 DUP3 PUSH2 0x3792 JUMP JUMPDEST PUSH1 0x40 DUP3 ADD SWAP1 POP SWAP2 SWAP1 POP JUMP JUMPDEST PUSH0 PUSH1 0x20 DUP3 ADD SWAP1 POP DUP2 DUP2 SUB PUSH0 DUP4 ADD MSTORE PUSH2 0x3819 DUP2 PUSH2 0x37E0 JUMP JUMPDEST SWAP1 POP SWAP2 SWAP1 POP JUMP JUMPDEST PUSH0 PUSH2 0x382A DUP3 PUSH2 0x23F9 JUMP JUMPDEST SWAP2 POP PUSH2 0x3835 DUP4 PUSH2 0x23F9 JUMP JUMPDEST SWAP3 POP DUP3 PUSH2 0x3845 JUMPI PUSH2 0x3844 PUSH2 0x30B1 JUMP JUMPDEST JUMPDEST DUP3 DUP3 MOD SWAP1 POP SWAP3 SWAP2 POP POP JUMP JUMPDEST PUSH0 DUP2 SWAP1 POP SWAP2 SWAP1 POP JUMP JUMPDEST PUSH2 0x386A PUSH2 0x3865 DUP3 PUSH2 0x23F9 JUMP JUMPDEST PUSH2 0x3850 JUMP JUMPDEST DUP3 MSTORE POP POP JUMP JUMPDEST PUSH0 DUP2 PUSH1 0x60 SHL SWAP1 POP SWAP2 SWAP1 POP JUMP JUMPDEST PUSH0 PUSH2 0x3886 DUP3 PUSH2 0x3870 JUMP JUMPDEST SWAP1 POP SWAP2 SWAP1 POP JUMP JUMPDEST PUSH0 PUSH2 0x3897 DUP3 PUSH2 0x387C JUMP JUMPDEST SWAP1 POP SWAP2 SWAP1 POP JUMP JUMPDEST PUSH2 0x38AF PUSH2 0x38AA DUP3 PUSH2 0x2588 JUMP JUMPDEST PUSH2 0x388D JUMP JUMPDEST DUP3 MSTORE POP POP JUMP JUMPDEST PUSH0 PUSH2 0x38C0 DUP3 DUP6 PUSH2 0x3859 JUMP JUMPDEST PUSH1 0x20 DUP3 ADD SWAP2 POP PUSH2 0x38D0 DUP3 DUP5 PUSH2 0x389E JUMP JUMPDEST PUSH1 0x14 DUP3 ADD SWAP2 POP DUP2 SWAP1 POP SWAP4 SWAP3 POP POP POP JUMP JUMPDEST PUSH0 DUP2 MLOAD SWAP1 POP SWAP2 SWAP1 POP JUMP JUMPDEST PUSH0 DUP3 DUP3 MSTORE PUSH1 0x20 DUP3 ADD SWAP1 POP SWAP3 SWAP2 POP POP JUMP JUMPDEST PUSH0 PUSH2 0x3904 DUP3 PUSH2 0x38E0 JUMP JUMPDEST PUSH2 0x390E DUP2 DUP6 PUSH2 0x38EA JUMP JUMPDEST SWAP4 POP PUSH2 0x391E DUP2 DUP6 PUSH1 0x20 DUP7 ADD PUSH2 0x2471 JUMP JUMPDEST PUSH2 0x3927 DUP2 PUSH2 0x247F JUMP JUMPDEST DUP5 ADD SWAP2 POP POP SWAP3 SWAP2 POP POP JUMP JUMPDEST PUSH0 PUSH1 0x80 DUP3 ADD SWAP1 POP PUSH2 0x3945 PUSH0 DUP4 ADD DUP8 PUSH2 0x2599 JUMP JUMPDEST PUSH2 0x3952 PUSH1 0x20 DUP4 ADD DUP7 PUSH2 0x2599 JUMP JUMPDEST PUSH2 0x395F PUSH1 0x40 DUP4 ADD DUP6 PUSH2 0x24C7 JUMP JUMPDEST DUP2 DUP2 SUB PUSH1 0x60 DUP4 ADD MSTORE PUSH2 0x3971 DUP2 DUP5 PUSH2 0x38FA JUMP JUMPDEST SWAP1 POP SWAP6 SWAP5 POP POP POP POP POP JUMP JUMPDEST PUSH0 DUP2 MLOAD SWAP1 POP PUSH2 0x398A DUP2 PUSH2 0x2371 JUMP JUMPDEST SWAP3 SWAP2 POP POP JUMP JUMPDEST PUSH0 PUSH1 0x20 DUP3 DUP5 SUB SLT ISZERO PUSH2 0x39A5 JUMPI PUSH2 0x39A4 PUSH2 0x233E JUMP JUMPDEST JUMPDEST PUSH0 PUSH2 0x39B2 DUP5 DUP3 DUP6 ADD PUSH2 0x397C JUMP JUMPDEST SWAP2 POP POP SWAP3 SWAP2 POP POP JUMP JUMPDEST PUSH32 0x4552433732313A206D696E7420746F20746865207A65726F2061646472657373 PUSH0 DUP3 ADD MSTORE POP JUMP JUMPDEST PUSH0 PUSH2 0x39EF PUSH1 0x20 DUP4 PUSH2 0x2461 JUMP JUMPDEST SWAP2 POP PUSH2 0x39FA DUP3 PUSH2 0x39BB JUMP JUMPDEST PUSH1 0x20 DUP3 ADD SWAP1 POP SWAP2 SWAP1 POP JUMP JUMPDEST PUSH0 PUSH1 0x20 DUP3 ADD SWAP1 POP DUP2 DUP2 SUB PUSH0 DUP4 ADD MSTORE PUSH2 0x3A1C DUP2 PUSH2 0x39E3 JUMP JUMPDEST SWAP1 POP SWAP2 SWAP1 POP JUMP JUMPDEST PUSH32 0x4552433732313A20746F6B656E20616C7265616479206D696E74656400000000 PUSH0 DUP3 ADD MSTORE POP JUMP JUMPDEST PUSH0 PUSH2 0x3A57 PUSH1 0x1C DUP4 PUSH2 0x2461 JUMP JUMPDEST SWAP2 POP PUSH2 0x3A62 DUP3 PUSH2 0x3A23 JUMP JUMPDEST PUSH1 0x20 DUP3 ADD SWAP1 POP SWAP2 SWAP1 POP JUMP JUMPDEST PUSH0 PUSH1 0x20 DUP3 ADD SWAP1 POP DUP2 DUP2 SUB PUSH0 DUP4 ADD MSTORE PUSH2 0x3A84 DUP2 PUSH2 0x3A4B JUMP JUMPDEST SWAP1 POP SWAP2 SWAP1 POP JUMP INVALID LOG2 PUSH5 0x6970667358 0x22 SLT KECCAK256 0x4D 0xA6 LT 0xF8 0xE5 0xC1 CALL JUMPI MSTORE8 0xBE LOG0 MSIZE JUMPI PUSH32 0xFDF77CD7A42958CA79BAD09DA7D46DC02EE164736F6C63430008190033000000 "
		},
		"gasEstimates": {
			"creation": {
				"codeDepositCost": "3008200",
				"executionCost": "infinite",
				"totalCost": "infinite"
			},
			"external": {
				"approve(address,uint256)": "infinite",
				"art_works(uint256)": "infinite",
				"balanceOf(address)": "2909",
				"createRandomArtWork(string)": "infinite",
				"fee()": "2491",
				"getApproved(uint256)": "5233",
				"getArtWorks()": "infinite",
				"getOwnerArtWork(address)": "infinite",
				"infoSmartContract()": "infinite",
				"isApprovedForAll(address,address)": "infinite",
				"levelUp(uint256)": "31628",
				"name()": "infinite",
				"owner()": "2604",
				"ownerOf(uint256)": "2982",
				"renounceOwnership()": "30433",
				"safeTransferFrom(address,address,uint256)": "infinite",
				"safeTransferFrom(address,address,uint256,bytes)": "infinite",
				"setApprovalForAll(address,bool)": "infinite",
				"supportsInterface(bytes4)": "787",
				"symbol()": "infinite",
				"tokenURI(uint256)": "infinite",
				"transferFrom(address,address,uint256)": "infinite",
				"transferOwnership(address)": "30817",
				"updateFee(uint256)": "24863",
				"withdraw()": "infinite"
			},
			"internal": {
				"_createArtWork(string memory)": "infinite",
				"_createRandomNum(uint256)": "infinite"
			}
		},
		"methodIdentifiers": {
			"approve(address,uint256)": "095ea7b3",
			"art_works(uint256)": "0667fac3",
			"balanceOf(address)": "70a08231",
			"createRandomArtWork(string)": "2f2670c3",
			"fee()": "ddca3f43",
			"getApproved(uint256)": "081812fc",
			"getArtWorks()": "382d0412",
			"getOwnerArtWork(address)": "125c4b2b",
			"infoSmartContract()": "9b6c354e",
			"isApprovedForAll(address,address)": "e985e9c5",
			"levelUp(uint256)": "0ce90ec2",
			"name()": "06fdde03",
			"owner()": "8da5cb5b",
			"ownerOf(uint256)": "6352211e",
			"renounceOwnership()": "715018a6",
			"safeTransferFrom(address,address,uint256)": "42842e0e",
			"safeTransferFrom(address,address,uint256,bytes)": "b88d4fde",
			"setApprovalForAll(address,bool)": "a22cb465",
			"supportsInterface(bytes4)": "01ffc9a7",
			"symbol()": "95d89b41",
			"tokenURI(uint256)": "c87b56dd",
			"transferFrom(address,address,uint256)": "23b872dd",
			"transferOwnership(address)": "f2fde38b",
			"updateFee(uint256)": "9012c4a8",
			"withdraw()": "3ccfd60b"
		}
	},
	"abi": [
		{
			"inputs": [
				{
					"internalType": "string",
					"name": "_name",
					"type": "string"
				},
				{
					"internalType": "string",
					"name": "_symbol",
					"type": "string"
				}
			],
			"stateMutability": "nonpayable",
			"type": "constructor"
		},
		{
			"anonymous": false,
			"inputs": [
				{
					"indexed": true,
					"internalType": "address",
					"name": "owner",
					"type": "address"
				},
				{
					"indexed": true,
					"internalType": "address",
					"name": "approved",
					"type": "address"
				},
				{
					"indexed": true,
					"internalType": "uint256",
					"name": "tokenId",
					"type": "uint256"
				}
			],
			"name": "Approval",
			"type": "event"
		},
		{
			"anonymous": false,
			"inputs": [
				{
					"indexed": true,
					"internalType": "address",
					"name": "owner",
					"type": "address"
				},
				{
					"indexed": true,
					"internalType": "address",
					"name": "operator",
					"type": "address"
				},
				{
					"indexed": false,
					"internalType": "bool",
					"name": "approved",
					"type": "bool"
				}
			],
			"name": "ApprovalForAll",
			"type": "event"
		},
		{
			"anonymous": false,
			"inputs": [
				{
					"indexed": true,
					"internalType": "address",
					"name": "owner",
					"type": "address"
				},
				{
					"indexed": false,
					"internalType": "uint256",
					"name": "id",
					"type": "uint256"
				},
				{
					"indexed": false,
					"internalType": "uint256",
					"name": "dna",
					"type": "uint256"
				}
			],
			"name": "NewArtWork",
			"type": "event"
		},
		{
			"anonymous": false,
			"inputs": [
				{
					"indexed": true,
					"internalType": "address",
					"name": "previousOwner",
					"type": "address"
				},
				{
					"indexed": true,
					"internalType": "address",
					"name": "newOwner",
					"type": "address"
				}
			],
			"name": "OwnershipTransferred",
			"type": "event"
		},
		{
			"anonymous": false,
			"inputs": [
				{
					"indexed": true,
					"internalType": "address",
					"name": "from",
					"type": "address"
				},
				{
					"indexed": true,
					"internalType": "address",
					"name": "to",
					"type": "address"
				},
				{
					"indexed": true,
					"internalType": "uint256",
					"name": "tokenId",
					"type": "uint256"
				}
			],
			"name": "Transfer",
			"type": "event"
		},
		{
			"inputs": [
				{
					"internalType": "address",
					"name": "to",
					"type": "address"
				},
				{
					"internalType": "uint256",
					"name": "tokenId",
					"type": "uint256"
				}
			],
			"name": "approve",
			"outputs": [],
			"stateMutability": "nonpayable",
			"type": "function"
		},
		{
			"inputs": [
				{
					"internalType": "uint256",
					"name": "",
					"type": "uint256"
				}
			],
			"name": "art_works",
			"outputs": [
				{
					"internalType": "string",
					"name": "name",
					"type": "string"
				},
				{
					"internalType": "uint256",
					"name": "id",
					"type": "uint256"
				},
				{
					"internalType": "uint256",
					"name": "dna",
					"type": "uint256"
				},
				{
					"internalType": "uint8",
					"name": "level",
					"type": "uint8"
				},
				{
					"internalType": "uint8",
					"name": "rarity",
					"type": "uint8"
				}
			],
			"stateMutability": "view",
			"type": "function"
		},
		{
			"inputs": [
				{
					"internalType": "address",
					"name": "owner",
					"type": "address"
				}
			],
			"name": "balanceOf",
			"outputs": [
				{
					"internalType": "uint256",
					"name": "",
					"type": "uint256"
				}
			],
			"stateMutability": "view",
			"type": "function"
		},
		{
			"inputs": [
				{
					"internalType": "string",
					"name": "_name",
					"type": "string"
				}
			],
			"name": "createRandomArtWork",
			"outputs": [],
			"stateMutability": "payable",
			"type": "function"
		},
		{
			"inputs": [],
			"name": "fee",
			"outputs": [
				{
					"internalType": "uint256",
					"name": "",
					"type": "uint256"
				}
			],
			"stateMutability": "view",
			"type": "function"
		},
		{
			"inputs": [
				{
					"internalType": "uint256",
					"name": "tokenId",
					"type": "uint256"
				}
			],
			"name": "getApproved",
			"outputs": [
				{
					"internalType": "address",
					"name": "",
					"type": "address"
				}
			],
			"stateMutability": "view",
			"type": "function"
		},
		{
			"inputs": [],
			"name": "getArtWorks",
			"outputs": [
				{
					"components": [
						{
							"internalType": "string",
							"name": "name",
							"type": "string"
						},
						{
							"internalType": "uint256",
							"name": "id",
							"type": "uint256"
						},
						{
							"internalType": "uint256",
							"name": "dna",
							"type": "uint256"
						},
						{
							"internalType": "uint8",
							"name": "level",
							"type": "uint8"
						},
						{
							"internalType": "uint8",
							"name": "rarity",
							"type": "uint8"
						}
					],
					"internalType": "struct ArtToken.Art[]",
					"name": "",
					"type": "tuple[]"
				}
			],
			"stateMutability": "view",
			"type": "function"
		},
		{
			"inputs": [
				{
					"internalType": "address",
					"name": "_owner",
					"type": "address"
				}
			],
			"name": "getOwnerArtWork",
			"outputs": [
				{
					"components": [
						{
							"internalType": "string",
							"name": "name",
							"type": "string"
						},
						{
							"internalType": "uint256",
							"name": "id",
							"type": "uint256"
						},
						{
							"internalType": "uint256",
							"name": "dna",
							"type": "uint256"
						},
						{
							"internalType": "uint8",
							"name": "level",
							"type": "uint8"
						},
						{
							"internalType": "uint8",
							"name": "rarity",
							"type": "uint8"
						}
					],
					"internalType": "struct ArtToken.Art[]",
					"name": "",
					"type": "tuple[]"
				}
			],
			"stateMutability": "view",
			"type": "function"
		},
		{
			"inputs": [],
			"name": "infoSmartContract",
			"outputs": [
				{
					"internalType": "address",
					"name": "",
					"type": "address"
				},
				{
					"internalType": "uint256",
					"name": "",
					"type": "uint256"
				}
			],
			"stateMutability": "view",
			"type": "function"
		},
		{
			"inputs": [
				{
					"internalType": "address",
					"name": "owner",
					"type": "address"
				},
				{
					"internalType": "address",
					"name": "operator",
					"type": "address"
				}
			],
			"name": "isApprovedForAll",
			"outputs": [
				{
					"internalType": "bool",
					"name": "",
					"type": "bool"
				}
			],
			"stateMutability": "view",
			"type": "function"
		},
		{
			"inputs": [
				{
					"internalType": "uint256",
					"name": "_artId",
					"type": "uint256"
				}
			],
			"name": "levelUp",
			"outputs": [],
			"stateMutability": "nonpayable",
			"type": "function"
		},
		{
			"inputs": [],
			"name": "name",
			"outputs": [
				{
					"internalType": "string",
					"name": "",
					"type": "string"
				}
			],
			"stateMutability": "view",
			"type": "function"
		},
		{
			"inputs": [],
			"name": "owner",
			"outputs": [
				{
					"internalType": "address",
					"name": "",
					"type": "address"
				}
			],
			"stateMutability": "view",
			"type": "function"
		},
		{
			"inputs": [
				{
					"internalType": "uint256",
					"name": "tokenId",
					"type": "uint256"
				}
			],
			"name": "ownerOf",
			"outputs": [
				{
					"internalType": "address",
					"name": "",
					"type": "address"
				}
			],
			"stateMutability": "view",
			"type": "function"
		},
		{
			"inputs": [],
			"name": "renounceOwnership",
			"outputs": [],
			"stateMutability": "nonpayable",
			"type": "function"
		},
		{
			"inputs": [
				{
					"internalType": "address",
					"name": "from",
					"type": "address"
				},
				{
					"internalType": "address",
					"name": "to",
					"type": "address"
				},
				{
					"internalType": "uint256",
					"name": "tokenId",
					"type": "uint256"
				}
			],
			"name": "safeTransferFrom",
			"outputs": [],
			"stateMutability": "nonpayable",
			"type": "function"
		},
		{
			"inputs": [
				{
					"internalType": "address",
					"name": "from",
					"type": "address"
				},
				{
					"internalType": "address",
					"name": "to",
					"type": "address"
				},
				{
					"internalType": "uint256",
					"name": "tokenId",
					"type": "uint256"
				},
				{
					"internalType": "bytes",
					"name": "_data",
					"type": "bytes"
				}
			],
			"name": "safeTransferFrom",
			"outputs": [],
			"stateMutability": "nonpayable",
			"type": "function"
		},
		{
			"inputs": [
				{
					"internalType": "address",
					"name": "operator",
					"type": "address"
				},
				{
					"internalType": "bool",
					"name": "approved",
					"type": "bool"
				}
			],
			"name": "setApprovalForAll",
			"outputs": [],
			"stateMutability": "nonpayable",
			"type": "function"
		},
		{
			"inputs": [
				{
					"internalType": "bytes4",
					"name": "interfaceId",
					"type": "bytes4"
				}
			],
			"name": "supportsInterface",
			"outputs": [
				{
					"internalType": "bool",
					"name": "",
					"type": "bool"
				}
			],
			"stateMutability": "view",
			"type": "function"
		},
		{
			"inputs": [],
			"name": "symbol",
			"outputs": [
				{
					"internalType": "string",
					"name": "",
					"type": "string"
				}
			],
			"stateMutability": "view",
			"type": "function"
		},
		{
			"inputs": [
				{
					"internalType": "uint256",
					"name": "tokenId",
					"type": "uint256"
				}
			],
			"name": "tokenURI",
			"outputs": [
				{
					"internalType": "string",
					"name": "",
					"type": "string"
				}
			],
			"stateMutability": "view",
			"type": "function"
		},
		{
			"inputs": [
				{
					"internalType": "address",
					"name": "from",
					"type": "address"
				},
				{
					"internalType": "address",
					"name": "to",
					"type": "address"
				},
				{
					"internalType": "uint256",
					"name": "tokenId",
					"type": "uint256"
				}
			],
			"name": "transferFrom",
			"outputs": [],
			"stateMutability": "nonpayable",
			"type": "function"
		},
		{
			"inputs": [
				{
					"internalType": "address",
					"name": "newOwner",
					"type": "address"
				}
			],
			"name": "transferOwnership",
			"outputs": [],
			"stateMutability": "nonpayable",
			"type": "function"
		},
		{
			"inputs": [
				{
					"internalType": "uint256",
					"name": "_fee",
					"type": "uint256"
				}
			],
			"name": "updateFee",
			"outputs": [],
			"stateMutability": "nonpayable",
			"type": "function"
		},
		{
			"inputs": [],
			"name": "withdraw",
			"outputs": [],
			"stateMutability": "payable",
			"type": "function"
		}
	]
}