{
	"data": {
		"bytecode": {
			"linkReferences": {},
			"object": "608060405234801561001057600080fd5b50610910806100206000396000f3fe608060405234801561001057600080fd5b50600436106100415760003560e01c8063188b85b414610046578063afee991114610076578063c12363a2146100a6575b600080fd5b610060600480360381019061005b919061038e565b6100c4565b60405161006d91906104ee565b60405180910390f35b610090600480360381019061008b9190610327565b610110565b60405161009d91906104ee565b60405180910390f35b6100ae610249565b6040516100bb91906104ee565b60405180910390f35b6000806000905060008390505b83600a6100de9190610575565b8110156101065780826100f19190610575565b915080806100fe90610707565b9150506100d1565b5080915050919050565b600080846040516020016101249190610483565b60405160208183030381529060405280519060200120905060405160200161014b906104c4565b6040516020818303038152906040528051906020012081141561017c5782846101749190610575565b915050610242565b60405160200161018b906104af565b604051602081830303815290604052805190602001208114156101bc5782846101b49190610656565b915050610242565b6040516020016101cb9061049a565b604051602081830303815290604052805190602001208114156101fc5782846101f491906105fc565b915050610242565b60405160200161020b906104d9565b6040516020818303038152906040528051906020012081141561023c57828461023491906105cb565b915050610242565b60009150505b9392505050565b600080600090506000805b600a8110156102a157600060028361026c9190610750565b1461028e57818361027d9190610575565b9250808061028a90610707565b9150505b818061029990610707565b925050610254565b82935050505090565b60006102bd6102b88461052e565b610509565b9050828152602081018484840111156102d557600080fd5b6102e0848285610694565b509392505050565b600082601f8301126102f957600080fd5b81356103098482602086016102aa565b91505092915050565b600081359050610321816108c3565b92915050565b60008060006060848603121561033c57600080fd5b600084013567ffffffffffffffff81111561035657600080fd5b610362868287016102e8565b935050602061037386828701610312565b925050604061038486828701610312565b9150509250925092565b6000602082840312156103a057600080fd5b60006103ae84828501610312565b91505092915050565b60006103c28261055f565b6103cc818561056a565b93506103dc8185602086016106a3565b80840191505092915050565b60006103f5600e8361056a565b91506104008261081f565b600e82019050919050565b600061041860058361056a565b915061042382610848565b600582019050919050565b600061043b60048361056a565b915061044682610871565b600482019050919050565b600061045e60088361056a565b91506104698261089a565b600882019050919050565b61047d8161068a565b82525050565b600061048f82846103b7565b915081905092915050565b60006104a5826103e8565b9150819050919050565b60006104ba8261040b565b9150819050919050565b60006104cf8261042e565b9150819050919050565b60006104e482610451565b9150819050919050565b60006020820190506105036000830184610474565b92915050565b6000610513610524565b905061051f82826106d6565b919050565b6000604051905090565b600067ffffffffffffffff821115610549576105486107df565b5b6105528261080e565b9050602081019050919050565b600081519050919050565b600081905092915050565b60006105808261068a565b915061058b8361068a565b9250827fffffffffffffffffffffffffffffffffffffffffffffffffffffffffffffffff038211156105c0576105bf610781565b5b828201905092915050565b60006105d68261068a565b91506105e18361068a565b9250826105f1576105f06107b0565b5b828204905092915050565b60006106078261068a565b91506106128361068a565b9250817fffffffffffffffffffffffffffffffffffffffffffffffffffffffffffffffff048311821515161561064b5761064a610781565b5b828202905092915050565b60006106618261068a565b915061066c8361068a565b92508282101561067f5761067e610781565b5b828203905092915050565b6000819050919050565b82818337600083830152505050565b60005b838110156106c15780820151818401526020810190506106a6565b838111156106d0576000848401525b50505050565b6106df8261080e565b810181811067ffffffffffffffff821117156106fe576106fd6107df565b5b80604052505050565b60006107128261068a565b91507fffffffffffffffffffffffffffffffffffffffffffffffffffffffffffffffff82141561074557610744610781565b5b600182019050919050565b600061075b8261068a565b91506107668361068a565b925082610776576107756107b0565b5b828206905092915050565b7f4e487b7100000000000000000000000000000000000000000000000000000000600052601160045260246000fd5b7f4e487b7100000000000000000000000000000000000000000000000000000000600052601260045260246000fd5b7f4e487b7100000000000000000000000000000000000000000000000000000000600052604160045260246000fd5b6000601f19601f8301169050919050565b7f6d756c7469706c69636163696f6e000000000000000000000000000000000000600082015250565b7f7265737461000000000000000000000000000000000000000000000000000000600082015250565b7f73756d6100000000000000000000000000000000000000000000000000000000600082015250565b7f6469766973696f6e000000000000000000000000000000000000000000000000600082015250565b6108cc8161068a565b81146108d757600080fd5b5056fea2646970667358221220cf4bfd346be92fe21a822d053b1d1a7aadea9dc15d26455da9e18c63c01db4ff64736f6c63430008040033",
			"opcodes": "PUSH1 0x80 PUSH1 0x40 MSTORE CALLVALUE DUP1 ISZERO PUSH2 0x10 JUMPI PUSH1 0x0 DUP1 REVERT JUMPDEST POP PUSH2 0x910 DUP1 PUSH2 0x20 PUSH1 0x0 CODECOPY PUSH1 0x0 RETURN INVALID PUSH1 0x80 PUSH1 0x40 MSTORE CALLVALUE DUP1 ISZERO PUSH2 0x10 JUMPI PUSH1 0x0 DUP1 REVERT JUMPDEST POP PUSH1 0x4 CALLDATASIZE LT PUSH2 0x41 JUMPI PUSH1 0x0 CALLDATALOAD PUSH1 0xE0 SHR DUP1 PUSH4 0x188B85B4 EQ PUSH2 0x46 JUMPI DUP1 PUSH4 0xAFEE9911 EQ PUSH2 0x76 JUMPI DUP1 PUSH4 0xC12363A2 EQ PUSH2 0xA6 JUMPI JUMPDEST PUSH1 0x0 DUP1 REVERT JUMPDEST PUSH2 0x60 PUSH1 0x4 DUP1 CALLDATASIZE SUB DUP2 ADD SWAP1 PUSH2 0x5B SWAP2 SWAP1 PUSH2 0x38E JUMP JUMPDEST PUSH2 0xC4 JUMP JUMPDEST PUSH1 0x40 MLOAD PUSH2 0x6D SWAP2 SWAP1 PUSH2 0x4EE JUMP JUMPDEST PUSH1 0x40 MLOAD DUP1 SWAP2 SUB SWAP1 RETURN JUMPDEST PUSH2 0x90 PUSH1 0x4 DUP1 CALLDATASIZE SUB DUP2 ADD SWAP1 PUSH2 0x8B SWAP2 SWAP1 PUSH2 0x327 JUMP JUMPDEST PUSH2 0x110 JUMP JUMPDEST PUSH1 0x40 MLOAD PUSH2 0x9D SWAP2 SWAP1 PUSH2 0x4EE JUMP JUMPDEST PUSH1 0x40 MLOAD DUP1 SWAP2 SUB SWAP1 RETURN JUMPDEST PUSH2 0xAE PUSH2 0x249 JUMP JUMPDEST PUSH1 0x40 MLOAD PUSH2 0xBB SWAP2 SWAP1 PUSH2 0x4EE JUMP JUMPDEST PUSH1 0x40 MLOAD DUP1 SWAP2 SUB SWAP1 RETURN JUMPDEST PUSH1 0x0 DUP1 PUSH1 0x0 SWAP1 POP PUSH1 0x0 DUP4 SWAP1 POP JUMPDEST DUP4 PUSH1 0xA PUSH2 0xDE SWAP2 SWAP1 PUSH2 0x575 JUMP JUMPDEST DUP2 LT ISZERO PUSH2 0x106 JUMPI DUP1 DUP3 PUSH2 0xF1 SWAP2 SWAP1 PUSH2 0x575 JUMP JUMPDEST SWAP2 POP DUP1 DUP1 PUSH2 0xFE SWAP1 PUSH2 0x707 JUMP JUMPDEST SWAP2 POP POP PUSH2 0xD1 JUMP JUMPDEST POP DUP1 SWAP2 POP POP SWAP2 SWAP1 POP JUMP JUMPDEST PUSH1 0x0 DUP1 DUP5 PUSH1 0x40 MLOAD PUSH1 0x20 ADD PUSH2 0x124 SWAP2 SWAP1 PUSH2 0x483 JUMP JUMPDEST PUSH1 0x40 MLOAD PUSH1 0x20 DUP2 DUP4 SUB SUB DUP2 MSTORE SWAP1 PUSH1 0x40 MSTORE DUP1 MLOAD SWAP1 PUSH1 0x20 ADD KECCAK256 SWAP1 POP PUSH1 0x40 MLOAD PUSH1 0x20 ADD PUSH2 0x14B SWAP1 PUSH2 0x4C4 JUMP JUMPDEST PUSH1 0x40 MLOAD PUSH1 0x20 DUP2 DUP4 SUB SUB DUP2 MSTORE SWAP1 PUSH1 0x40 MSTORE DUP1 MLOAD SWAP1 PUSH1 0x20 ADD KECCAK256 DUP2 EQ ISZERO PUSH2 0x17C JUMPI DUP3 DUP5 PUSH2 0x174 SWAP2 SWAP1 PUSH2 0x575 JUMP JUMPDEST SWAP2 POP POP PUSH2 0x242 JUMP JUMPDEST PUSH1 0x40 MLOAD PUSH1 0x20 ADD PUSH2 0x18B SWAP1 PUSH2 0x4AF JUMP JUMPDEST PUSH1 0x40 MLOAD PUSH1 0x20 DUP2 DUP4 SUB SUB DUP2 MSTORE SWAP1 PUSH1 0x40 MSTORE DUP1 MLOAD SWAP1 PUSH1 0x20 ADD KECCAK256 DUP2 EQ ISZERO PUSH2 0x1BC JUMPI DUP3 DUP5 PUSH2 0x1B4 SWAP2 SWAP1 PUSH2 0x656 JUMP JUMPDEST SWAP2 POP POP PUSH2 0x242 JUMP JUMPDEST PUSH1 0x40 MLOAD PUSH1 0x20 ADD PUSH2 0x1CB SWAP1 PUSH2 0x49A JUMP JUMPDEST PUSH1 0x40 MLOAD PUSH1 0x20 DUP2 DUP4 SUB SUB DUP2 MSTORE SWAP1 PUSH1 0x40 MSTORE DUP1 MLOAD SWAP1 PUSH1 0x20 ADD KECCAK256 DUP2 EQ ISZERO PUSH2 0x1FC JUMPI DUP3 DUP5 PUSH2 0x1F4 SWAP2 SWAP1 PUSH2 0x5FC JUMP JUMPDEST SWAP2 POP POP PUSH2 0x242 JUMP JUMPDEST PUSH1 0x40 MLOAD PUSH1 0x20 ADD PUSH2 0x20B SWAP1 PUSH2 0x4D9 JUMP JUMPDEST PUSH1 0x40 MLOAD PUSH1 0x20 DUP2 DUP4 SUB SUB DUP2 MSTORE SWAP1 PUSH1 0x40 MSTORE DUP1 MLOAD SWAP1 PUSH1 0x20 ADD KECCAK256 DUP2 EQ ISZERO PUSH2 0x23C JUMPI DUP3 DUP5 PUSH2 0x234 SWAP2 SWAP1 PUSH2 0x5CB JUMP JUMPDEST SWAP2 POP POP PUSH2 0x242 JUMP JUMPDEST PUSH1 0x0 SWAP2 POP POP JUMPDEST SWAP4 SWAP3 POP POP POP JUMP JUMPDEST PUSH1 0x0 DUP1 PUSH1 0x0 SWAP1 POP PUSH1 0x0 DUP1 JUMPDEST PUSH1 0xA DUP2 LT ISZERO PUSH2 0x2A1 JUMPI PUSH1 0x0 PUSH1 0x2 DUP4 PUSH2 0x26C SWAP2 SWAP1 PUSH2 0x750 JUMP JUMPDEST EQ PUSH2 0x28E JUMPI DUP2 DUP4 PUSH2 0x27D SWAP2 SWAP1 PUSH2 0x575 JUMP JUMPDEST SWAP3 POP DUP1 DUP1 PUSH2 0x28A SWAP1 PUSH2 0x707 JUMP JUMPDEST SWAP2 POP POP JUMPDEST DUP2 DUP1 PUSH2 0x299 SWAP1 PUSH2 0x707 JUMP JUMPDEST SWAP3 POP POP PUSH2 0x254 JUMP JUMPDEST DUP3 SWAP4 POP POP POP POP SWAP1 JUMP JUMPDEST PUSH1 0x0 PUSH2 0x2BD PUSH2 0x2B8 DUP5 PUSH2 0x52E JUMP JUMPDEST PUSH2 0x509 JUMP JUMPDEST SWAP1 POP DUP3 DUP2 MSTORE PUSH1 0x20 DUP2 ADD DUP5 DUP5 DUP5 ADD GT ISZERO PUSH2 0x2D5 JUMPI PUSH1 0x0 DUP1 REVERT JUMPDEST PUSH2 0x2E0 DUP5 DUP3 DUP6 PUSH2 0x694 JUMP JUMPDEST POP SWAP4 SWAP3 POP POP POP JUMP JUMPDEST PUSH1 0x0 DUP3 PUSH1 0x1F DUP4 ADD SLT PUSH2 0x2F9 JUMPI PUSH1 0x0 DUP1 REVERT JUMPDEST DUP2 CALLDATALOAD PUSH2 0x309 DUP5 DUP3 PUSH1 0x20 DUP7 ADD PUSH2 0x2AA JUMP JUMPDEST SWAP2 POP POP SWAP3 SWAP2 POP POP JUMP JUMPDEST PUSH1 0x0 DUP2 CALLDATALOAD SWAP1 POP PUSH2 0x321 DUP2 PUSH2 0x8C3 JUMP JUMPDEST SWAP3 SWAP2 POP POP JUMP JUMPDEST PUSH1 0x0 DUP1 PUSH1 0x0 PUSH1 0x60 DUP5 DUP7 SUB SLT ISZERO PUSH2 0x33C JUMPI PUSH1 0x0 DUP1 REVERT JUMPDEST PUSH1 0x0 DUP5 ADD CALLDATALOAD PUSH8 0xFFFFFFFFFFFFFFFF DUP2 GT ISZERO PUSH2 0x356 JUMPI PUSH1 0x0 DUP1 REVERT JUMPDEST PUSH2 0x362 DUP7 DUP3 DUP8 ADD PUSH2 0x2E8 JUMP JUMPDEST SWAP4 POP POP PUSH1 0x20 PUSH2 0x373 DUP7 DUP3 DUP8 ADD PUSH2 0x312 JUMP JUMPDEST SWAP3 POP POP PUSH1 0x40 PUSH2 0x384 DUP7 DUP3 DUP8 ADD PUSH2 0x312 JUMP JUMPDEST SWAP2 POP POP SWAP3 POP SWAP3 POP SWAP3 JUMP JUMPDEST PUSH1 0x0 PUSH1 0x20 DUP3 DUP5 SUB SLT ISZERO PUSH2 0x3A0 JUMPI PUSH1 0x0 DUP1 REVERT JUMPDEST PUSH1 0x0 PUSH2 0x3AE DUP5 DUP3 DUP6 ADD PUSH2 0x312 JUMP JUMPDEST SWAP2 POP POP SWAP3 SWAP2 POP POP JUMP JUMPDEST PUSH1 0x0 PUSH2 0x3C2 DUP3 PUSH2 0x55F JUMP JUMPDEST PUSH2 0x3CC DUP2 DUP6 PUSH2 0x56A JUMP JUMPDEST SWAP4 POP PUSH2 0x3DC DUP2 DUP6 PUSH1 0x20 DUP7 ADD PUSH2 0x6A3 JUMP JUMPDEST DUP1 DUP5 ADD SWAP2 POP POP SWAP3 SWAP2 POP POP JUMP JUMPDEST PUSH1 0x0 PUSH2 0x3F5 PUSH1 0xE DUP4 PUSH2 0x56A JUMP JUMPDEST SWAP2 POP PUSH2 0x400 DUP3 PUSH2 0x81F JUMP JUMPDEST PUSH1 0xE DUP3 ADD SWAP1 POP SWAP2 SWAP1 POP JUMP JUMPDEST PUSH1 0x0 PUSH2 0x418 PUSH1 0x5 DUP4 PUSH2 0x56A JUMP JUMPDEST SWAP2 POP PUSH2 0x423 DUP3 PUSH2 0x848 JUMP JUMPDEST PUSH1 0x5 DUP3 ADD SWAP1 POP SWAP2 SWAP1 POP JUMP JUMPDEST PUSH1 0x0 PUSH2 0x43B PUSH1 0x4 DUP4 PUSH2 0x56A JUMP JUMPDEST SWAP2 POP PUSH2 0x446 DUP3 PUSH2 0x871 JUMP JUMPDEST PUSH1 0x4 DUP3 ADD SWAP1 POP SWAP2 SWAP1 POP JUMP JUMPDEST PUSH1 0x0 PUSH2 0x45E PUSH1 0x8 DUP4 PUSH2 0x56A JUMP JUMPDEST SWAP2 POP PUSH2 0x469 DUP3 PUSH2 0x89A JUMP JUMPDEST PUSH1 0x8 DUP3 ADD SWAP1 POP SWAP2 SWAP1 POP JUMP JUMPDEST PUSH2 0x47D DUP2 PUSH2 0x68A JUMP JUMPDEST DUP3 MSTORE POP POP JUMP JUMPDEST PUSH1 0x0 PUSH2 0x48F DUP3 DUP5 PUSH2 0x3B7 JUMP JUMPDEST SWAP2 POP DUP2 SWAP1 POP SWAP3 SWAP2 POP POP JUMP JUMPDEST PUSH1 0x0 PUSH2 0x4A5 DUP3 PUSH2 0x3E8 JUMP JUMPDEST SWAP2 POP DUP2 SWAP1 POP SWAP2 SWAP1 POP JUMP JUMPDEST PUSH1 0x0 PUSH2 0x4BA DUP3 PUSH2 0x40B JUMP JUMPDEST SWAP2 POP DUP2 SWAP1 POP SWAP2 SWAP1 POP JUMP JUMPDEST PUSH1 0x0 PUSH2 0x4CF DUP3 PUSH2 0x42E JUMP JUMPDEST SWAP2 POP DUP2 SWAP1 POP SWAP2 SWAP1 POP JUMP JUMPDEST PUSH1 0x0 PUSH2 0x4E4 DUP3 PUSH2 0x451 JUMP JUMPDEST SWAP2 POP DUP2 SWAP1 POP SWAP2 SWAP1 POP JUMP JUMPDEST PUSH1 0x0 PUSH1 0x20 DUP3 ADD SWAP1 POP PUSH2 0x503 PUSH1 0x0 DUP4 ADD DUP5 PUSH2 0x474 JUMP JUMPDEST SWAP3 SWAP2 POP POP JUMP JUMPDEST PUSH1 0x0 PUSH2 0x513 PUSH2 0x524 JUMP JUMPDEST SWAP1 POP PUSH2 0x51F DUP3 DUP3 PUSH2 0x6D6 JUMP JUMPDEST SWAP2 SWAP1 POP JUMP JUMPDEST PUSH1 0x0 PUSH1 0x40 MLOAD SWAP1 POP SWAP1 JUMP JUMPDEST PUSH1 0x0 PUSH8 0xFFFFFFFFFFFFFFFF DUP3 GT ISZERO PUSH2 0x549 JUMPI PUSH2 0x548 PUSH2 0x7DF JUMP JUMPDEST JUMPDEST PUSH2 0x552 DUP3 PUSH2 0x80E JUMP JUMPDEST SWAP1 POP PUSH1 0x20 DUP2 ADD SWAP1 POP SWAP2 SWAP1 POP JUMP JUMPDEST PUSH1 0x0 DUP2 MLOAD SWAP1 POP SWAP2 SWAP1 POP JUMP JUMPDEST PUSH1 0x0 DUP2 SWAP1 POP SWAP3 SWAP2 POP POP JUMP JUMPDEST PUSH1 0x0 PUSH2 0x580 DUP3 PUSH2 0x68A JUMP JUMPDEST SWAP2 POP PUSH2 0x58B DUP4 PUSH2 0x68A JUMP JUMPDEST SWAP3 POP DUP3 PUSH32 0xFFFFFFFFFFFFFFFFFFFFFFFFFFFFFFFFFFFFFFFFFFFFFFFFFFFFFFFFFFFFFFFF SUB DUP3 GT ISZERO PUSH2 0x5C0 JUMPI PUSH2 0x5BF PUSH2 0x781 JUMP JUMPDEST JUMPDEST DUP3 DUP3 ADD SWAP1 POP SWAP3 SWAP2 POP POP JUMP JUMPDEST PUSH1 0x0 PUSH2 0x5D6 DUP3 PUSH2 0x68A JUMP JUMPDEST SWAP2 POP PUSH2 0x5E1 DUP4 PUSH2 0x68A JUMP JUMPDEST SWAP3 POP DUP3 PUSH2 0x5F1 JUMPI PUSH2 0x5F0 PUSH2 0x7B0 JUMP JUMPDEST JUMPDEST DUP3 DUP3 DIV SWAP1 POP SWAP3 SWAP2 POP POP JUMP JUMPDEST PUSH1 0x0 PUSH2 0x607 DUP3 PUSH2 0x68A JUMP JUMPDEST SWAP2 POP PUSH2 0x612 DUP4 PUSH2 0x68A JUMP JUMPDEST SWAP3 POP DUP2 PUSH32 0xFFFFFFFFFFFFFFFFFFFFFFFFFFFFFFFFFFFFFFFFFFFFFFFFFFFFFFFFFFFFFFFF DIV DUP4 GT DUP3 ISZERO ISZERO AND ISZERO PUSH2 0x64B JUMPI PUSH2 0x64A PUSH2 0x781 JUMP JUMPDEST JUMPDEST DUP3 DUP3 MUL SWAP1 POP SWAP3 SWAP2 POP POP JUMP JUMPDEST PUSH1 0x0 PUSH2 0x661 DUP3 PUSH2 0x68A JUMP JUMPDEST SWAP2 POP PUSH2 0x66C DUP4 PUSH2 0x68A JUMP JUMPDEST SWAP3 POP DUP3 DUP3 LT ISZERO PUSH2 0x67F JUMPI PUSH2 0x67E PUSH2 0x781 JUMP JUMPDEST JUMPDEST DUP3 DUP3 SUB SWAP1 POP SWAP3 SWAP2 POP POP JUMP JUMPDEST PUSH1 0x0 DUP2 SWAP1 POP SWAP2 SWAP1 POP JUMP JUMPDEST DUP3 DUP2 DUP4 CALLDATACOPY PUSH1 0x0 DUP4 DUP4 ADD MSTORE POP POP POP JUMP JUMPDEST PUSH1 0x0 JUMPDEST DUP4 DUP2 LT ISZERO PUSH2 0x6C1 JUMPI DUP1 DUP3 ADD MLOAD DUP2 DUP5 ADD MSTORE PUSH1 0x20 DUP2 ADD SWAP1 POP PUSH2 0x6A6 JUMP JUMPDEST DUP4 DUP2 GT ISZERO PUSH2 0x6D0 JUMPI PUSH1 0x0 DUP5 DUP5 ADD MSTORE JUMPDEST POP POP POP POP JUMP JUMPDEST PUSH2 0x6DF DUP3 PUSH2 0x80E JUMP JUMPDEST DUP2 ADD DUP2 DUP2 LT PUSH8 0xFFFFFFFFFFFFFFFF DUP3 GT OR ISZERO PUSH2 0x6FE JUMPI PUSH2 0x6FD PUSH2 0x7DF JUMP JUMPDEST JUMPDEST DUP1 PUSH1 0x40 MSTORE POP POP POP JUMP JUMPDEST PUSH1 0x0 PUSH2 0x712 DUP3 PUSH2 0x68A JUMP JUMPDEST SWAP2 POP PUSH32 0xFFFFFFFFFFFFFFFFFFFFFFFFFFFFFFFFFFFFFFFFFFFFFFFFFFFFFFFFFFFFFFFF DUP3 EQ ISZERO PUSH2 0x745 JUMPI PUSH2 0x744 PUSH2 0x781 JUMP JUMPDEST JUMPDEST PUSH1 0x1 DUP3 ADD SWAP1 POP SWAP2 SWAP1 POP JUMP JUMPDEST PUSH1 0x0 PUSH2 0x75B DUP3 PUSH2 0x68A JUMP JUMPDEST SWAP2 POP PUSH2 0x766 DUP4 PUSH2 0x68A JUMP JUMPDEST SWAP3 POP DUP3 PUSH2 0x776 JUMPI PUSH2 0x775 PUSH2 0x7B0 JUMP JUMPDEST JUMPDEST DUP3 DUP3 MOD SWAP1 POP SWAP3 SWAP2 POP POP JUMP JUMPDEST PUSH32 0x4E487B7100000000000000000000000000000000000000000000000000000000 PUSH1 0x0 MSTORE PUSH1 0x11 PUSH1 0x4 MSTORE PUSH1 0x24 PUSH1 0x0 REVERT JUMPDEST PUSH32 0x4E487B7100000000000000000000000000000000000000000000000000000000 PUSH1 0x0 MSTORE PUSH1 0x12 PUSH1 0x4 MSTORE PUSH1 0x24 PUSH1 0x0 REVERT JUMPDEST PUSH32 0x4E487B7100000000000000000000000000000000000000000000000000000000 PUSH1 0x0 MSTORE PUSH1 0x41 PUSH1 0x4 MSTORE PUSH1 0x24 PUSH1 0x0 REVERT JUMPDEST PUSH1 0x0 PUSH1 0x1F NOT PUSH1 0x1F DUP4 ADD AND SWAP1 POP SWAP2 SWAP1 POP JUMP JUMPDEST PUSH32 0x6D756C7469706C69636163696F6E000000000000000000000000000000000000 PUSH1 0x0 DUP3 ADD MSTORE POP JUMP JUMPDEST PUSH32 0x7265737461000000000000000000000000000000000000000000000000000000 PUSH1 0x0 DUP3 ADD MSTORE POP JUMP JUMPDEST PUSH32 0x73756D6100000000000000000000000000000000000000000000000000000000 PUSH1 0x0 DUP3 ADD MSTORE POP JUMP JUMPDEST PUSH32 0x6469766973696F6E000000000000000000000000000000000000000000000000 PUSH1 0x0 DUP3 ADD MSTORE POP JUMP JUMPDEST PUSH2 0x8CC DUP2 PUSH2 0x68A JUMP JUMPDEST DUP2 EQ PUSH2 0x8D7 JUMPI PUSH1 0x0 DUP1 REVERT JUMPDEST POP JUMP INVALID LOG2 PUSH5 0x6970667358 0x22 SLT KECCAK256 0xCF 0x4B REVERT CALLVALUE PUSH12 0xE92FE21A822D053B1D1A7AAD 0xEA SWAP14 0xC1 0x5D 0x26 GASLIMIT 0x5D 0xA9 0xE1 DUP13 PUSH4 0xC01DB4FF PUSH5 0x736F6C6343 STOP ADDMOD DIV STOP CALLER "
		},
		"gasEstimates": {
			"creation": {
				"codeDepositCost": "464000",
				"executionCost": "499",
				"totalCost": "464499"
			},
			"external": {
				"odd()": "infinite",
				"sum(uint256)": "infinite",
				"sum_rest(string,uint256,uint256)": "infinite"
			}
		},
		"methodIdentifiers": {
			"odd()": "c12363a2",
			"sum(uint256)": "188b85b4",
			"sum_rest(string,uint256,uint256)": "afee9911"
		}
	},
	"abi": [
		{
			"inputs": [],
			"name": "odd",
			"outputs": [
				{
					"internalType": "uint256",
					"name": "",
					"type": "uint256"
				}
			],
			"stateMutability": "pure",
			"type": "function"
		},
		{
			"inputs": [
				{
					"internalType": "uint256",
					"name": "_number",
					"type": "uint256"
				}
			],
			"name": "sum",
			"outputs": [
				{
					"internalType": "uint256",
					"name": "",
					"type": "uint256"
				}
			],
			"stateMutability": "pure",
			"type": "function"
		},
		{
			"inputs": [
				{
					"internalType": "string",
					"name": "operation",
					"type": "string"
				},
				{
					"internalType": "uint256",
					"name": "a",
					"type": "uint256"
				},
				{
					"internalType": "uint256",
					"name": "b",
					"type": "uint256"
				}
			],
			"name": "sum_rest",
			"outputs": [
				{
					"internalType": "uint256",
					"name": "",
					"type": "uint256"
				}
			],
			"stateMutability": "pure",
			"type": "function"
		}
	]
}