{
	"data": {
		"bytecode": {
			"linkReferences": {},
			"object": "608060405234801561001057600080fd5b506106dc806100206000396000f3fe608060405234801561001057600080fd5b506004361061007d5760003560e01c8063b1b45b1b1161005b578063b1b45b1b14610112578063dd125e3714610142578063e989d9cc14610172578063f43f523a146101a25761007d565b8063424bd6201461008257806352f294bc146100b2578063a391c15b146100e2575b600080fd5b61009c600480360381019061009791906102ae565b6101d2565b6040516100a99190610348565b60405180910390f35b6100cc60048036038101906100c791906102ae565b6101e8565b6040516100d99190610348565b60405180910390f35b6100fc60048036038101906100f791906102ae565b6101fe565b6040516101099190610348565b60405180910390f35b61012c600480360381019061012791906102ae565b610214565b6040516101399190610348565b60405180910390f35b61015c600480360381019061015791906102ea565b61022a565b6040516101699190610348565b60405180910390f35b61018c600480360381019061018791906102ae565b61026d565b6040516101999190610348565b60405180910390f35b6101bc60048036038101906101b791906102ae565b610283565b6040516101c99190610348565b60405180910390f35b600081836101e0919061055b565b905092915050565b600081836101f691906105b5565b905092915050565b6000818361020c91906103b9565b905092915050565b600081836102229190610363565b905092915050565b60008180610261577f4e487b7100000000000000000000000000000000000000000000000000000000600052601260045260246000fd5b83850890509392505050565b6000818361027b919061043d565b905092915050565b6000818361029191906105f3565b905092915050565b6000813590506102a88161068f565b92915050565b600080604083850312156102c157600080fd5b60006102cf85828601610299565b92505060206102e085828601610299565b9150509250929050565b6000806000606084860312156102ff57600080fd5b600061030d86828701610299565b935050602061031e86828701610299565b925050604061032f86828701610299565b9150509250925092565b610342816105e9565b82525050565b600060208201905061035d6000830184610339565b92915050565b600061036e826105e9565b9150610379836105e9565b9250827fffffffffffffffffffffffffffffffffffffffffffffffffffffffffffffffff038211156103ae576103ad610624565b5b828201905092915050565b60006103c4826105e9565b91506103cf836105e9565b9250826103df576103de610653565b5b828204905092915050565b6000808291508390505b6001851115610434578086048111156104105761040f610624565b5b600185161561041f5780820291505b808102905061042d85610682565b94506103f4565b94509492505050565b6000610448826105e9565b9150610453836105e9565b92506104807fffffffffffffffffffffffffffffffffffffffffffffffffffffffffffffffff8484610488565b905092915050565b6000826104985760019050610554565b816104a65760009050610554565b81600181146104bc57600281146104c6576104f5565b6001915050610554565b60ff8411156104d8576104d7610624565b5b8360020a9150848211156104ef576104ee610624565b5b50610554565b5060208310610133831016604e8410600b841016171561052a5782820a90508381111561052557610524610624565b5b610554565b61053784848460016103ea565b9250905081840481111561054e5761054d610624565b5b81810290505b9392505050565b6000610566826105e9565b9150610571836105e9565b9250817fffffffffffffffffffffffffffffffffffffffffffffffffffffffffffffffff04831182151516156105aa576105a9610624565b5b828202905092915050565b60006105c0826105e9565b91506105cb836105e9565b9250828210156105de576105dd610624565b5b828203905092915050565b6000819050919050565b60006105fe826105e9565b9150610609836105e9565b92508261061957610618610653565b5b828206905092915050565b7f4e487b7100000000000000000000000000000000000000000000000000000000600052601160045260246000fd5b7f4e487b7100000000000000000000000000000000000000000000000000000000600052601260045260246000fd5b60008160011c9050919050565b610698816105e9565b81146106a357600080fd5b5056fea264697066735822122012efb081ca6247e249f84abaf6db12615f4bf879b435a00c5cbc321ab6406b5464736f6c63430008040033",
			"opcodes": "PUSH1 0x80 PUSH1 0x40 MSTORE CALLVALUE DUP1 ISZERO PUSH2 0x10 JUMPI PUSH1 0x0 DUP1 REVERT JUMPDEST POP PUSH2 0x6DC DUP1 PUSH2 0x20 PUSH1 0x0 CODECOPY PUSH1 0x0 RETURN INVALID PUSH1 0x80 PUSH1 0x40 MSTORE CALLVALUE DUP1 ISZERO PUSH2 0x10 JUMPI PUSH1 0x0 DUP1 REVERT JUMPDEST POP PUSH1 0x4 CALLDATASIZE LT PUSH2 0x7D JUMPI PUSH1 0x0 CALLDATALOAD PUSH1 0xE0 SHR DUP1 PUSH4 0xB1B45B1B GT PUSH2 0x5B JUMPI DUP1 PUSH4 0xB1B45B1B EQ PUSH2 0x112 JUMPI DUP1 PUSH4 0xDD125E37 EQ PUSH2 0x142 JUMPI DUP1 PUSH4 0xE989D9CC EQ PUSH2 0x172 JUMPI DUP1 PUSH4 0xF43F523A EQ PUSH2 0x1A2 JUMPI PUSH2 0x7D JUMP JUMPDEST DUP1 PUSH4 0x424BD620 EQ PUSH2 0x82 JUMPI DUP1 PUSH4 0x52F294BC EQ PUSH2 0xB2 JUMPI DUP1 PUSH4 0xA391C15B EQ PUSH2 0xE2 JUMPI JUMPDEST PUSH1 0x0 DUP1 REVERT JUMPDEST PUSH2 0x9C PUSH1 0x4 DUP1 CALLDATASIZE SUB DUP2 ADD SWAP1 PUSH2 0x97 SWAP2 SWAP1 PUSH2 0x2AE JUMP JUMPDEST PUSH2 0x1D2 JUMP JUMPDEST PUSH1 0x40 MLOAD PUSH2 0xA9 SWAP2 SWAP1 PUSH2 0x348 JUMP JUMPDEST PUSH1 0x40 MLOAD DUP1 SWAP2 SUB SWAP1 RETURN JUMPDEST PUSH2 0xCC PUSH1 0x4 DUP1 CALLDATASIZE SUB DUP2 ADD SWAP1 PUSH2 0xC7 SWAP2 SWAP1 PUSH2 0x2AE JUMP JUMPDEST PUSH2 0x1E8 JUMP JUMPDEST PUSH1 0x40 MLOAD PUSH2 0xD9 SWAP2 SWAP1 PUSH2 0x348 JUMP JUMPDEST PUSH1 0x40 MLOAD DUP1 SWAP2 SUB SWAP1 RETURN JUMPDEST PUSH2 0xFC PUSH1 0x4 DUP1 CALLDATASIZE SUB DUP2 ADD SWAP1 PUSH2 0xF7 SWAP2 SWAP1 PUSH2 0x2AE JUMP JUMPDEST PUSH2 0x1FE JUMP JUMPDEST PUSH1 0x40 MLOAD PUSH2 0x109 SWAP2 SWAP1 PUSH2 0x348 JUMP JUMPDEST PUSH1 0x40 MLOAD DUP1 SWAP2 SUB SWAP1 RETURN JUMPDEST PUSH2 0x12C PUSH1 0x4 DUP1 CALLDATASIZE SUB DUP2 ADD SWAP1 PUSH2 0x127 SWAP2 SWAP1 PUSH2 0x2AE JUMP JUMPDEST PUSH2 0x214 JUMP JUMPDEST PUSH1 0x40 MLOAD PUSH2 0x139 SWAP2 SWAP1 PUSH2 0x348 JUMP JUMPDEST PUSH1 0x40 MLOAD DUP1 SWAP2 SUB SWAP1 RETURN JUMPDEST PUSH2 0x15C PUSH1 0x4 DUP1 CALLDATASIZE SUB DUP2 ADD SWAP1 PUSH2 0x157 SWAP2 SWAP1 PUSH2 0x2EA JUMP JUMPDEST PUSH2 0x22A JUMP JUMPDEST PUSH1 0x40 MLOAD PUSH2 0x169 SWAP2 SWAP1 PUSH2 0x348 JUMP JUMPDEST PUSH1 0x40 MLOAD DUP1 SWAP2 SUB SWAP1 RETURN JUMPDEST PUSH2 0x18C PUSH1 0x4 DUP1 CALLDATASIZE SUB DUP2 ADD SWAP1 PUSH2 0x187 SWAP2 SWAP1 PUSH2 0x2AE JUMP JUMPDEST PUSH2 0x26D JUMP JUMPDEST PUSH1 0x40 MLOAD PUSH2 0x199 SWAP2 SWAP1 PUSH2 0x348 JUMP JUMPDEST PUSH1 0x40 MLOAD DUP1 SWAP2 SUB SWAP1 RETURN JUMPDEST PUSH2 0x1BC PUSH1 0x4 DUP1 CALLDATASIZE SUB DUP2 ADD SWAP1 PUSH2 0x1B7 SWAP2 SWAP1 PUSH2 0x2AE JUMP JUMPDEST PUSH2 0x283 JUMP JUMPDEST PUSH1 0x40 MLOAD PUSH2 0x1C9 SWAP2 SWAP1 PUSH2 0x348 JUMP JUMPDEST PUSH1 0x40 MLOAD DUP1 SWAP2 SUB SWAP1 RETURN JUMPDEST PUSH1 0x0 DUP2 DUP4 PUSH2 0x1E0 SWAP2 SWAP1 PUSH2 0x55B JUMP JUMPDEST SWAP1 POP SWAP3 SWAP2 POP POP JUMP JUMPDEST PUSH1 0x0 DUP2 DUP4 PUSH2 0x1F6 SWAP2 SWAP1 PUSH2 0x5B5 JUMP JUMPDEST SWAP1 POP SWAP3 SWAP2 POP POP JUMP JUMPDEST PUSH1 0x0 DUP2 DUP4 PUSH2 0x20C SWAP2 SWAP1 PUSH2 0x3B9 JUMP JUMPDEST SWAP1 POP SWAP3 SWAP2 POP POP JUMP JUMPDEST PUSH1 0x0 DUP2 DUP4 PUSH2 0x222 SWAP2 SWAP1 PUSH2 0x363 JUMP JUMPDEST SWAP1 POP SWAP3 SWAP2 POP POP JUMP JUMPDEST PUSH1 0x0 DUP2 DUP1 PUSH2 0x261 JUMPI PUSH32 0x4E487B7100000000000000000000000000000000000000000000000000000000 PUSH1 0x0 MSTORE PUSH1 0x12 PUSH1 0x4 MSTORE PUSH1 0x24 PUSH1 0x0 REVERT JUMPDEST DUP4 DUP6 ADDMOD SWAP1 POP SWAP4 SWAP3 POP POP POP JUMP JUMPDEST PUSH1 0x0 DUP2 DUP4 PUSH2 0x27B SWAP2 SWAP1 PUSH2 0x43D JUMP JUMPDEST SWAP1 POP SWAP3 SWAP2 POP POP JUMP JUMPDEST PUSH1 0x0 DUP2 DUP4 PUSH2 0x291 SWAP2 SWAP1 PUSH2 0x5F3 JUMP JUMPDEST SWAP1 POP SWAP3 SWAP2 POP POP JUMP JUMPDEST PUSH1 0x0 DUP2 CALLDATALOAD SWAP1 POP PUSH2 0x2A8 DUP2 PUSH2 0x68F JUMP JUMPDEST SWAP3 SWAP2 POP POP JUMP JUMPDEST PUSH1 0x0 DUP1 PUSH1 0x40 DUP4 DUP6 SUB SLT ISZERO PUSH2 0x2C1 JUMPI PUSH1 0x0 DUP1 REVERT JUMPDEST PUSH1 0x0 PUSH2 0x2CF DUP6 DUP3 DUP7 ADD PUSH2 0x299 JUMP JUMPDEST SWAP3 POP POP PUSH1 0x20 PUSH2 0x2E0 DUP6 DUP3 DUP7 ADD PUSH2 0x299 JUMP JUMPDEST SWAP2 POP POP SWAP3 POP SWAP3 SWAP1 POP JUMP JUMPDEST PUSH1 0x0 DUP1 PUSH1 0x0 PUSH1 0x60 DUP5 DUP7 SUB SLT ISZERO PUSH2 0x2FF JUMPI PUSH1 0x0 DUP1 REVERT JUMPDEST PUSH1 0x0 PUSH2 0x30D DUP7 DUP3 DUP8 ADD PUSH2 0x299 JUMP JUMPDEST SWAP4 POP POP PUSH1 0x20 PUSH2 0x31E DUP7 DUP3 DUP8 ADD PUSH2 0x299 JUMP JUMPDEST SWAP3 POP POP PUSH1 0x40 PUSH2 0x32F DUP7 DUP3 DUP8 ADD PUSH2 0x299 JUMP JUMPDEST SWAP2 POP POP SWAP3 POP SWAP3 POP SWAP3 JUMP JUMPDEST PUSH2 0x342 DUP2 PUSH2 0x5E9 JUMP JUMPDEST DUP3 MSTORE POP POP JUMP JUMPDEST PUSH1 0x0 PUSH1 0x20 DUP3 ADD SWAP1 POP PUSH2 0x35D PUSH1 0x0 DUP4 ADD DUP5 PUSH2 0x339 JUMP JUMPDEST SWAP3 SWAP2 POP POP JUMP JUMPDEST PUSH1 0x0 PUSH2 0x36E DUP3 PUSH2 0x5E9 JUMP JUMPDEST SWAP2 POP PUSH2 0x379 DUP4 PUSH2 0x5E9 JUMP JUMPDEST SWAP3 POP DUP3 PUSH32 0xFFFFFFFFFFFFFFFFFFFFFFFFFFFFFFFFFFFFFFFFFFFFFFFFFFFFFFFFFFFFFFFF SUB DUP3 GT ISZERO PUSH2 0x3AE JUMPI PUSH2 0x3AD PUSH2 0x624 JUMP JUMPDEST JUMPDEST DUP3 DUP3 ADD SWAP1 POP SWAP3 SWAP2 POP POP JUMP JUMPDEST PUSH1 0x0 PUSH2 0x3C4 DUP3 PUSH2 0x5E9 JUMP JUMPDEST SWAP2 POP PUSH2 0x3CF DUP4 PUSH2 0x5E9 JUMP JUMPDEST SWAP3 POP DUP3 PUSH2 0x3DF JUMPI PUSH2 0x3DE PUSH2 0x653 JUMP JUMPDEST JUMPDEST DUP3 DUP3 DIV SWAP1 POP SWAP3 SWAP2 POP POP JUMP JUMPDEST PUSH1 0x0 DUP1 DUP3 SWAP2 POP DUP4 SWAP1 POP JUMPDEST PUSH1 0x1 DUP6 GT ISZERO PUSH2 0x434 JUMPI DUP1 DUP7 DIV DUP2 GT ISZERO PUSH2 0x410 JUMPI PUSH2 0x40F PUSH2 0x624 JUMP JUMPDEST JUMPDEST PUSH1 0x1 DUP6 AND ISZERO PUSH2 0x41F JUMPI DUP1 DUP3 MUL SWAP2 POP JUMPDEST DUP1 DUP2 MUL SWAP1 POP PUSH2 0x42D DUP6 PUSH2 0x682 JUMP JUMPDEST SWAP5 POP PUSH2 0x3F4 JUMP JUMPDEST SWAP5 POP SWAP5 SWAP3 POP POP POP JUMP JUMPDEST PUSH1 0x0 PUSH2 0x448 DUP3 PUSH2 0x5E9 JUMP JUMPDEST SWAP2 POP PUSH2 0x453 DUP4 PUSH2 0x5E9 JUMP JUMPDEST SWAP3 POP PUSH2 0x480 PUSH32 0xFFFFFFFFFFFFFFFFFFFFFFFFFFFFFFFFFFFFFFFFFFFFFFFFFFFFFFFFFFFFFFFF DUP5 DUP5 PUSH2 0x488 JUMP JUMPDEST SWAP1 POP SWAP3 SWAP2 POP POP JUMP JUMPDEST PUSH1 0x0 DUP3 PUSH2 0x498 JUMPI PUSH1 0x1 SWAP1 POP PUSH2 0x554 JUMP JUMPDEST DUP2 PUSH2 0x4A6 JUMPI PUSH1 0x0 SWAP1 POP PUSH2 0x554 JUMP JUMPDEST DUP2 PUSH1 0x1 DUP2 EQ PUSH2 0x4BC JUMPI PUSH1 0x2 DUP2 EQ PUSH2 0x4C6 JUMPI PUSH2 0x4F5 JUMP JUMPDEST PUSH1 0x1 SWAP2 POP POP PUSH2 0x554 JUMP JUMPDEST PUSH1 0xFF DUP5 GT ISZERO PUSH2 0x4D8 JUMPI PUSH2 0x4D7 PUSH2 0x624 JUMP JUMPDEST JUMPDEST DUP4 PUSH1 0x2 EXP SWAP2 POP DUP5 DUP3 GT ISZERO PUSH2 0x4EF JUMPI PUSH2 0x4EE PUSH2 0x624 JUMP JUMPDEST JUMPDEST POP PUSH2 0x554 JUMP JUMPDEST POP PUSH1 0x20 DUP4 LT PUSH2 0x133 DUP4 LT AND PUSH1 0x4E DUP5 LT PUSH1 0xB DUP5 LT AND OR ISZERO PUSH2 0x52A JUMPI DUP3 DUP3 EXP SWAP1 POP DUP4 DUP2 GT ISZERO PUSH2 0x525 JUMPI PUSH2 0x524 PUSH2 0x624 JUMP JUMPDEST JUMPDEST PUSH2 0x554 JUMP JUMPDEST PUSH2 0x537 DUP5 DUP5 DUP5 PUSH1 0x1 PUSH2 0x3EA JUMP JUMPDEST SWAP3 POP SWAP1 POP DUP2 DUP5 DIV DUP2 GT ISZERO PUSH2 0x54E JUMPI PUSH2 0x54D PUSH2 0x624 JUMP JUMPDEST JUMPDEST DUP2 DUP2 MUL SWAP1 POP JUMPDEST SWAP4 SWAP3 POP POP POP JUMP JUMPDEST PUSH1 0x0 PUSH2 0x566 DUP3 PUSH2 0x5E9 JUMP JUMPDEST SWAP2 POP PUSH2 0x571 DUP4 PUSH2 0x5E9 JUMP JUMPDEST SWAP3 POP DUP2 PUSH32 0xFFFFFFFFFFFFFFFFFFFFFFFFFFFFFFFFFFFFFFFFFFFFFFFFFFFFFFFFFFFFFFFF DIV DUP4 GT DUP3 ISZERO ISZERO AND ISZERO PUSH2 0x5AA JUMPI PUSH2 0x5A9 PUSH2 0x624 JUMP JUMPDEST JUMPDEST DUP3 DUP3 MUL SWAP1 POP SWAP3 SWAP2 POP POP JUMP JUMPDEST PUSH1 0x0 PUSH2 0x5C0 DUP3 PUSH2 0x5E9 JUMP JUMPDEST SWAP2 POP PUSH2 0x5CB DUP4 PUSH2 0x5E9 JUMP JUMPDEST SWAP3 POP DUP3 DUP3 LT ISZERO PUSH2 0x5DE JUMPI PUSH2 0x5DD PUSH2 0x624 JUMP JUMPDEST JUMPDEST DUP3 DUP3 SUB SWAP1 POP SWAP3 SWAP2 POP POP JUMP JUMPDEST PUSH1 0x0 DUP2 SWAP1 POP SWAP2 SWAP1 POP JUMP JUMPDEST PUSH1 0x0 PUSH2 0x5FE DUP3 PUSH2 0x5E9 JUMP JUMPDEST SWAP2 POP PUSH2 0x609 DUP4 PUSH2 0x5E9 JUMP JUMPDEST SWAP3 POP DUP3 PUSH2 0x619 JUMPI PUSH2 0x618 PUSH2 0x653 JUMP JUMPDEST JUMPDEST DUP3 DUP3 MOD SWAP1 POP SWAP3 SWAP2 POP POP JUMP JUMPDEST PUSH32 0x4E487B7100000000000000000000000000000000000000000000000000000000 PUSH1 0x0 MSTORE PUSH1 0x11 PUSH1 0x4 MSTORE PUSH1 0x24 PUSH1 0x0 REVERT JUMPDEST PUSH32 0x4E487B7100000000000000000000000000000000000000000000000000000000 PUSH1 0x0 MSTORE PUSH1 0x12 PUSH1 0x4 MSTORE PUSH1 0x24 PUSH1 0x0 REVERT JUMPDEST PUSH1 0x0 DUP2 PUSH1 0x1 SHR SWAP1 POP SWAP2 SWAP1 POP JUMP JUMPDEST PUSH2 0x698 DUP2 PUSH2 0x5E9 JUMP JUMPDEST DUP2 EQ PUSH2 0x6A3 JUMPI PUSH1 0x0 DUP1 REVERT JUMPDEST POP JUMP INVALID LOG2 PUSH5 0x6970667358 0x22 SLT KECCAK256 SLT 0xEF 0xB0 DUP2 0xCA PUSH3 0x47E249 0xF8 0x4A 0xBA 0xF6 0xDB SLT PUSH2 0x5F4B 0xF8 PUSH26 0xB435A00C5CBC321AB6406B5464736F6C63430008040033000000 "
		},
		"gasEstimates": {
			"creation": {
				"codeDepositCost": "351200",
				"executionCost": "386",
				"totalCost": "351586"
			},
			"external": {
				"_addmod(uint256,uint256,uint256)": "infinite",
				"div(uint256,uint256)": "infinite",
				"expon(uint256,uint256)": "infinite",
				"mod(uint256,uint256)": "infinite",
				"prod(uint256,uint256)": "infinite",
				"resta(uint256,uint256)": "infinite",
				"suma(uint256,uint256)": "infinite"
			}
		},
		"methodIdentifiers": {
			"_addmod(uint256,uint256,uint256)": "dd125e37",
			"div(uint256,uint256)": "a391c15b",
			"expon(uint256,uint256)": "e989d9cc",
			"mod(uint256,uint256)": "f43f523a",
			"prod(uint256,uint256)": "424bd620",
			"resta(uint256,uint256)": "52f294bc",
			"suma(uint256,uint256)": "b1b45b1b"
		}
	},
	"abi": [
		{
			"inputs": [
				{
					"internalType": "uint256",
					"name": "x",
					"type": "uint256"
				},
				{
					"internalType": "uint256",
					"name": "y",
					"type": "uint256"
				},
				{
					"internalType": "uint256",
					"name": "k",
					"type": "uint256"
				}
			],
			"name": "_addmod",
			"outputs": [
				{
					"internalType": "uint256",
					"name": "",
					"type": "uint256"
				}
			],
			"stateMutability": "pure",
			"type": "function"
		},
		{
			"inputs": [
				{
					"internalType": "uint256",
					"name": "a",
					"type": "uint256"
				},
				{
					"internalType": "uint256",
					"name": "b",
					"type": "uint256"
				}
			],
			"name": "div",
			"outputs": [
				{
					"internalType": "uint256",
					"name": "",
					"type": "uint256"
				}
			],
			"stateMutability": "pure",
			"type": "function"
		},
		{
			"inputs": [
				{
					"internalType": "uint256",
					"name": "a",
					"type": "uint256"
				},
				{
					"internalType": "uint256",
					"name": "b",
					"type": "uint256"
				}
			],
			"name": "expon",
			"outputs": [
				{
					"internalType": "uint256",
					"name": "",
					"type": "uint256"
				}
			],
			"stateMutability": "pure",
			"type": "function"
		},
		{
			"inputs": [
				{
					"internalType": "uint256",
					"name": "a",
					"type": "uint256"
				},
				{
					"internalType": "uint256",
					"name": "b",
					"type": "uint256"
				}
			],
			"name": "mod",
			"outputs": [
				{
					"internalType": "uint256",
					"name": "",
					"type": "uint256"
				}
			],
			"stateMutability": "pure",
			"type": "function"
		},
		{
			"inputs": [
				{
					"internalType": "uint256",
					"name": "a",
					"type": "uint256"
				},
				{
					"internalType": "uint256",
					"name": "b",
					"type": "uint256"
				}
			],
			"name": "prod",
			"outputs": [
				{
					"internalType": "uint256",
					"name": "",
					"type": "uint256"
				}
			],
			"stateMutability": "pure",
			"type": "function"
		},
		{
			"inputs": [
				{
					"internalType": "uint256",
					"name": "a",
					"type": "uint256"
				},
				{
					"internalType": "uint256",
					"name": "b",
					"type": "uint256"
				}
			],
			"name": "resta",
			"outputs": [
				{
					"internalType": "uint256",
					"name": "",
					"type": "uint256"
				}
			],
			"stateMutability": "pure",
			"type": "function"
		},
		{
			"inputs": [
				{
					"internalType": "uint256",
					"name": "a",
					"type": "uint256"
				},
				{
					"internalType": "uint256",
					"name": "b",
					"type": "uint256"
				}
			],
			"name": "suma",
			"outputs": [
				{
					"internalType": "uint256",
					"name": "",
					"type": "uint256"
				}
			],
			"stateMutability": "pure",
			"type": "function"
		}
	]
}